:100000000222F8022B9ED2A9D28C22022392C2A9EC
:10001000C28C22022BE3D2ABD28E22022425C2ABA9
:10002000C28E220207A2D2ADD2CA22022B5990015F
:10003000427419F0E490012FF022220205353000BD
:1000400009D2A353A1F743A2082243A10853A2F760
:10005000D2A322022C2890007CE020E0030202C4FC
:10006000E020E1030202C49000C0E054015401FF0B
:1000700090019EE0FCA3E054FEFDECFEED4FFF90EE
:10008000019EEEF0A3EFF09000C0E0FFC313540117
:10009000540125E0FFE433FE90019EE0FCA3E05410
:1000A000FDFDEC4EFEED4FFF90019EEEF0A3EFF054
:1000B0009000C0E0FF1313543F54017E00540178B8
:1000C00002C333CE33CED8F9FF90019EE0FCA3E00B
:1000D00054FBFDEC4EFEED4FFF90019EEEF0A3EFC2
:1000E000F07F04122F2CEF600990019EE054FEF087
:1000F000801F900012E054015401FE90019EE054D4
:10010000FEFCA3E0FDEC4EFFED90019ECFF0A3EFCF
:10011000F0900012E0FFC4540F54015401C454F095
:10012000FE90019EE054EFFCA3E0FDEC4EFFED904D
:10013000019ECFF0A3EFF090006FE05401FF90001C
:1001400012E0FD1313543F5401FDE4ED5F5401250B
:10015000E025E0FE90019EE054FBFCA3E0FDEC4EA8
:10016000FFED90019ECFF0A3EFF09000BFE030E0F4
:1001700015900073E0FEA3E0FFD3900016E09F907F
:100180000015E09E40079000BFE030E57090006FE2
:10019000E0FFC4540F5401FF900012E0FD1313134D
:1001A000541F5401FDE4ED5F540133333354F8FE22
:1001B00090019EE054F7FCA3E0FDEC4EFFED9001B2
:1001C0009ECFF0A3EFF090006FE0FF131313541FC6
:1001D0005401FF900012E0FDC3135401FDE4ED5FF4
:1001E000540125E0FE90019EE054FDFCA3E0FDECEF
:1001F0004EFFED90019ECFF0A3EFF0800B90019E9B
:10020000E054FDF0E054F7F090006FE0FFC31354AA
:1002100001FF900012E0FDC41354075401FDE4ED0A
:100220005F5401C43354E0FE90019EE054DFFCA310
:10023000E0FDEC4EFFED90019ECFF0A3EFF09000BB
:100240006FE030E518900007E0600990019EE044FF
:1002500040F0803390019EE054BFF0802A9000125D
:10026000E0FFC41313540354015401C4333354C086
:10027000FE90019EE054BFFCA3E0FDEC4EFFED902C
:10028000019ECFF0A3EFF090006FE020E60302059F
:1002900034E030E403020534900012E0FFC413138D
:1002A0001354015401540133333354F8FE90019E2A
:1002B000E054F7FCA3E0FDEC4EFFED90019ECFF083
:1002C000A3EFF02290007CE020E3030204F890000A
:1002D0000BE01460191460271460352403704290F9
:1002E000019FE054FDF0E054FEF0E054FBF090017B
:1002F0009FE04402F0E054FEF0E054FBF0803190C7
:10030000019FE04402F0E04401F0E054FBF0802063
:1003100090019FE04402F0E04401F0E04404F080EA
:100320000F90019FE04402F0E04401F0E04404F04B
:1003300090000CE0C394064003020433E024FE6006
:100340003814605A14607C1470030203E8240460BB
:100350000302040D90019EE04401F0E054FDF0E042
:1003600054EFF0E054BFF0A3E0F0900179E054BF07
:10037000F090019EE054F7F02290019EE04401F0DD
:10038000E04402F0E054EFF0E054BFF0A3E0F0905E
:100390000179E054BFF090019EE054F7F022900103
:1003A0009EE04401F0E04402F0E04410F0E054BF6D
:1003B000F0A3E0F0900179E054BFF090019EE0548A
:1003C000F7F02290019EE04401F0E04402F0E044A6
:1003D00010F0E04440F0A3E0F0900179E04440F0F8
:1003E00090019EE054F7F02290019EE04401F0E07D
:1003F0004402F0E04410F0E04440F0A3E0F090014B
:1004000079E04440F090019EE04408F02290019E83
:10041000E054FEF0E054FDF0E054EFF0E054BFF0A3
:10042000A3E0F0900179E054BFF090019EE054F712
:10043000F022222086047F0180027F00EF5401FE1B
:1004400090019EE054FEFCA3E0FDEC4EFFED900118
:100450009ECFF0A3EFF02087047F0180027F00EFA2
:10046000540125E0FE90019EE054FDFCA3E0FDEC6C
:100470004EFFED90019ECFF0A3EFF020A4047F018A
:1004800080027F00EF5401C454F0FE90019EE054BE
:10049000EFFCA3E0FDEC4EFFED90019ECFF0A3EF4B
:1004A000F090007CE05401FD5401C4333354C0FE8D
:1004B00090019EE054BFFAA3E0FBEA4EFFEB9001EF
:1004C0009ECFF0A3EFF0AF05EF5401FFC4333354D8
:1004D000C0FF900179E054BF4FF090012FE0D3941A
:1004E00050400DE0945A500890019EE04408F022DC
:1004F00090019EE054F7F02290019FE054FEF0E05E
:1005000054FDF0E054FBF090019EE054FEF0E05406
:10051000FDF0E054FBF0E054F7F0E054EFF0E0546D
:10052000DFF0E054BFF09000BFE054FEF090007C9C
:10053000E054DFF022C0E0C0F0C083C082C0D075BC
:10054000D000C000C001C002C003C004C005C00686
:10055000C007E59D30E13F539DFDD39000D0E0946E
:10056000009000CFE09400402A9000DCE0FBA3E084
:10057000FAA3E0F91214FFF59F9000DDE475F00195
:100580001215699000D0E024FFF09000CFE034FF16
:10059000F080031231BFE59D20E003020787539DE1
:1005A000FE9000CBE0FEA3E0FFD39000C8E09F9058
:1005B00000C7E09E50030207879000C2E59FF090BD
:1005C00000CBE07002A3E0703F9000C2E064A56041
:1005D00008E064AA60030207879000C2E0FF900071
:1005E000D6E0FBA3E0FAA3E0F9EF1215459000D79F
:1005F000E475F0011215699000CCE004F0700690EB
:1006000000CBE004F00207879000CBE07004A3E089
:100610006401705B9000C2E0645A6004E0B4552F3E
:100620009000C2E0FF9000D6E0FBA3E0FAA3E0F95F
:10063000EF1215459000D7E475F00112156990008E
:10064000CCE004F070069000CBE004F00207879045
:1006500000CBE0FEA3E0FFC3E49FFFE49E9000D741
:100660008FF01215699000CBE4F0A3F00207879099
:1006700000CBE07004A3E06402705B9000C2E06411
:10068000046004E0B4402F9000C2E0FF9000D6E088
:10069000FBA3E0FAA3E0F9EF1215459000D7E4754B
:1006A000F0011215699000CCE004F070069000CBC8
:1006B000E004F00207879000CBE0FEA3E0FFC3E474
:1006C0009FFFE49E9000D78FF01215699000CBE455
:1006D000F0A3F00207879000CBE07004A3E064036E
:1006E00070619000C2E0C3941E5039E09400403421
:1006F000E0FF9000D6E0FBA3E0FAA3E0F9EF1215CB
:1007000045FF9000C7E4F0A3EFF09000D7E475F048
:10071000011215699000CCE004F070069000CBE067
:1007200004F080639000CBE0FEA3E0FFC3E49FFFF2
:10073000E49E9000D78FF01215699000CBE4F0A3EF
:10074000F080449000C2E0FF9000D6E0FBA3E0FA06
:10075000A3E0F9EF1215459000D7E475F0011215EA
:10076000699000CCE004F070069000CBE004F090BB
:1007700000C7E0FEA3E0FFC39000CCE09F9000CB59
:10078000E09E400312319BD007D006D005D004D0A4
:1007900003D002D001D000D0D0D082D083D0F0D00E
:1007A000E032C0E0C0F0C083C082C0D075D000C0CD
:1007B00000C001C002C003C004C005C006C00730AD
:1007C000993EC299D39000CEE094009000CDE09481
:1007D00000402A9000D9E0FBA3E0FAA3E0F912144C
:1007E000FFF5999000DAE475F0011215699000CEDA
:1007F000E024FFF09000CDE034FFF080031231B32D
:100800002098030209D4C2989000C9E0FEA3E0FF3B
:10081000D39000C6E09F9000C5E09E50030209D42B
:100820009000C1E599F09000C9E07002A3E0703734
:100830009000C1E064AA60030209D4E0FF9000D3F5
:10084000E0FBA3E0FAA3E0F9EF1215459000D4E431
:1008500075F0011215699000CAE004F0700690006E
:10086000C9E004F00209D49000C9E07004A3E06478
:100870000170529000C1E0B4552BFF9000D3E0FB13
:10088000A3E0FAA3E0F9EF1215459000D4E475F067
:10089000011215699000CAE004F070069000C9E0EA
:1008A00004F00209D49000C9E0FEA3E0FFC3E49F76
:1008B000FFE49E9000D48FF01215699000C9E4F017
:1008C000A3F00209D49000C9E07004A3E0640270B0
:1008D000529000C1E0B4402BFF9000D3E0FBA3E0B6
:1008E000FAA3E0F9EF1215459000D4E475F0011277
:1008F00015699000CAE004F070069000C9E004F0A9
:100900000209D49000C9E0FEA3E0FFC3E49FFFE426
:100910009E9000D48FF01215699000C9E4F0A3F006
:100920000209D49000C9E07004A3E06403706190F0
:1009300000C1E0C3941E5039E094004034E0FF90C1
:1009400000D3E0FBA3E0FAA3E0F9EF121545FF9016
:1009500000C5E4F0A3EFF09000D4E475F0011215A7
:10096000699000CAE004F070069000C9E004F080CD
:10097000639000C9E0FEA3E0FFC3E49FFFE49E9004
:1009800000D48FF01215699000C9E4F0A3F0804400
:100990009000C1E0FF9000D3E0FBA3E0FAA3E0F9F0
:1009A000EF1215459000D4E475F00112156990001E
:1009B000CAE004F070069000C9E004F09000C5E0C1
:1009C000FEA3E0FFC39000CAE09F9000C9E09E40F4
:1009D00003123191D007D006D005D004D003D00245
:1009E000D001D000D0D0D082D083D0F0D0E032413E
:1009F00000C1004100C2004801A200000000010047
:100A00000000520157000103E8000000000001103F
:100A1000138800000000005001690203010100007A
:100A2000000002020101000000005500FC01143228
:100A3000030F1E010A3202080F050A28030A320AB0
:100A40000A1E410112074101110041011400410138
:100A500013004100FB004100FA00410065005E0008
:100A60009C000000000000000000000000000000EA
:100A70000000000000000000000000000000005E18
:100A80000045000000000000000000000000000021
:100A90000000000000000000000000000000000056
:100AA0005E007E000000000000000000000000006A
:100AB0000000000000000000000000000000000036
:100AC000005E0027000000000000000000000000A1
:100AD0000000000000000000000000000000000016
:100AE000000047001E0000000000000047007500E5
:100AF0000000000000004100BD0041000A0041006C
:100B0000BA00410011004100250042000E000042E1
:100B1000006C000042001900004200BB00004200CF
:100B2000130000410010004100090041007D004118
:100B3000006A00410064004100260041006300415A
:100B4000000D004100BE0841006B0043006600003C
:100B50000043001B00000041007C004100C0004138
:100B60000012004100BF0041006E0041006F0041D3
:100B700000700041000800420073000042001500B0
:100B8000004200710000410007004100690041007F
:100B90000B0041000C004200170000410000004122
:100BA000000100410002004100040041019A00419F
:100BB000019C0041019B0041019D004101A00041B9
:100BC00001A10042019E0000410199004101AA00DB
:100BD00041012E004101421941012F0041012D0028
:100BE00042015500004101530041015200410154AE
:100BF00000410143004101440041014500410146DB
:100C00000041014700410179004101840041018513
:100C1000004101860041018800009000A0E0FFC46F
:100C2000540F9000BEF0E0B4010990007CE0440253
:100C3000F0800D9000BEE0700790007CE054FDF065
:100C40009000A0E0540F24F6603824FE7003020EDA
:100C50000B24036003020E1D9000A1E090006BF0D6
:100C60009000A2E0900066F09000A3E0900067F092
:100C70009000A4E0900068F0122FEC90000D740139
:100C8000F0229000A1E09000C0F09000A2E090005F
:100C900012F09000A3E0900008F0E0B4FF0990008B
:100CA0007CE054DFF0802190007CE030E50BE03008
:100CB000E407900008E0B4070F90007CE04420F0C7
:100CC000900008E0FF122FA09000A4E0900065F0D3
:100CD000E05401FF9000BFE054FE4FF0900065E04B
:100CE0005402FF9000BFE054FD4FF0900065E054C7
:100CF00004FF9000BFE054FB4FF0900065E0540803
:100D0000FF9000BFE054F74FF0900065E05410FFF3
:100D10009000BFE054EF4FF09000A6E0FE9000A5D9
:100D2000E07C002400FFEC3E900073F0A3EFF09015
:100D300000A7E0900007F090006EE020E003020DB5
:100D4000F690009FE0D3940F5003020DF69000A799
:100D5000E09000BDF09000A8E090000AF09000A99B
:100D6000E09000BAF09000AAE0900011F09000AB83
:100D7000E0900025F09000ADE0FE9000ACE0240093
:100D8000FFEC3E90000EF0A3EFF09000AFE0FE907D
:100D900000AEE02400FFEC3E90006CF0A3EFF0907A
:100DA00000B1E0FE9000B0E02400FFEC3E9000199E
:100DB000F0A3EFF09000B3E0FE9000B2E02400FF5B
:100DC000EC3E9000BBF0A3EFF09000B5E0FE900089
:100DD000B4E02400FFEC3E900013F0A3EFF090008D
:100DE000B6E0900010F09000B7E0900009F090009D
:100DF000B8E090007DF090007CE030E10790000DBD
:100E00007402F02290000D7401F02290000D740421
:100E1000F090007CE020E30AE04408F022E4900037
:100E20000DF0227F01122EC2EF7003020EC2E49079
:100E30000000F090009FE0D394004072E0941E50B8
:100E40006DE4900004F0900003F090009FE014FF28
:100E5000900003E0C39F501AE0249CF582E4340024
:100E6000F583E0FF900004E02FF0900003E004F031
:100E700080D890009FE0249BF582E43400F583E065
:100E8000FF900004E06F7026900000F090007CE07E
:100E90004401F090009CE0B4A514A3E0B45A0FA361
:100EA000E0B4040A120C1A90007CE04404F07B01C8
:100EB0007A00799C90018DE4F0A3741EF07F0112FA
:100EC0002F09E4FF122EC2EF603890007CE020E191
:100ED00019E020E3157F01122FA090007CE0440868
:100EE000F090000B7401F0E4A3F0E4900001F07BBB
:100EF000017A00797E90018DF0A3741EF0E4FF1258
:100F00002F09900155E0FEA3E07802CEC313CE1363
:100F1000D8F95401FD900155E01313543F54016D6D
:100F20007001E47003021018A3E05404FE90015510
:100F3000E054FBFCA3E0FDEC4EFFED900155CFF03B
:100F4000A3EFF0900000E004F0C3940A402BE4F01B
:100F500090007CE030E1177F04122FA090007CE02D
:100F600054FDF0E490000DF090000874FFF0900044
:100F70007CE054FEF0E04404F090007CE030E20DB0
:100F80001211C3122FD390007CE054FBF090007C30
:100F9000E020E309900069E0D39400403C1225BAB8
:100FA000900001E004F0D3940A402E90007CE030E1
:100FB000E308E054FDF0E054FEF090007CE054F7CC
:100FC000F0E4900001F07B017A00797E90018DF0D1
:100FD000A3741EF0E4FF122F09121019900002E012
:100FE00004F0C3940A4031E4F0900069E060021418
:100FF000F090007CE030E31D90000BE004F0C3941F
:101000000440037404F090000CE004F0C394064024
:10101000077406F02212253A2290007CE020E003BB
:101020000211B1E020E1030211B1900007E0540F7A
:10103000B41000400302119690103FF82828730264
:10104000106F02107F0210910210A40210C702104C
:10105000D90210EB0210FF021113021126021139FE
:1010600002114C02115F0211720211840210B6E4E7
:1010700090006AF0900064F0900026F00211A490B5
:10108000006A74FFF0E4900064F0900026F0021112
:10109000A4E490006AF090006474FFF0E4900026ED
:1010A000F00211A4E490006AF0900064F090002631
:1010B00074FFF00211A490006A74FFF0900064F0D5
:1010C000900026F00211A490006A74FFF090006472
:1010D000F0E4900026F00211A4E490006AF0900081
:1010E0006474FFF0900026F00211A490006A74FF6F
:1010F000F0E4900064F090002674FFF00211A490D8
:10110000006A74FFF09000647464F0E4900026F0CC
:101110000211A490006A74FFF0E4900064F0900063
:10112000267464F0807E90006A7464F090006474A9
:10113000FFF0E4900026F0806BE490006AF09000ED
:101140006474FFF09000267464F0805890006A7414
:1011500064F0E4900064F090002674FFF08045E4B1
:1011600090006AF09000647464F090002674FFF0C0
:10117000803290006A74FFF09000647464F0900014
:1011800026F0802090006A7464F0900064F0900073
:101190002674FFF0800E90006A74FFF0900064F0F7
:1011A000900026F0900007E0FFC4540F900063F019
:1011B00022E490006AF0900064F0900026F0900025
:1011C00063F02290004574AAF0A37455F0A3744014
:1011D000F0E4900049F090000DE024FE60410460CE
:1011E000030212FF900048740AF0A3E0FF9000A0F1
:1011F000E0FEC454F0FEEF4E900049F0E04401F0F0
:10120000A37402F090001BE090004BF090001CE0F3
:1012100090004CF090001DE090004DF002132490DF
:1012200000487415F0A3E0FF9000A0E0FEC454F065
:10123000FEEF4E900049F0E04402F0E4900065F0CB
:1012400090007CE05410FF1313543FFF900065E0C2
:1012500054FB4FF090007CE05420FF1313543FFFE9
:10126000900065E054F74FF09001AAE05410FF9011
:101270000065E054EF4FF09000BFE05420FF900075
:1012800065E054DF4FF09000BFE05440FF900065F0
:10129000E054BF4FF09000BFE05480FF900065E045
:1012A000547F4FF0E090004CF090012EE090004D04
:1012B000F0900142E090004EF090012FE090004F3E
:1012C000E4F090012FE0900050F0900015E09000C5
:1012D00053F0900015A3E0900054F0900071E0905E
:1012E0000055F0900071A3E0900056F0900017E0D8
:1012F000900057F0900017A3E0900058F0802590E0
:101300000048740AF0A37401F0A304F090001BE0FD
:1013100090004BF090001CE090004CF090001DE01D
:1013200090004DF0900048E02444F582E43400F54C
:1013300083E4F0900005F0900048E014FF90000571
:10134000E0C39F5024E02445F582E43400F583E0B7
:10135000FF900048E02444F582E43400F583E02F58
:10136000F0900005E004F080CE22900155E0FEA34D
:10137000E07802CEC313CE13D8F95401FD90015585
:10138000E0131313541F54016D7001E46079A3E05E
:10139000540425E0FE900155E054F7FCA3E0FDEC79
:1013A0004EFFED900155CFF0A3EFF0900070E030CC
:1013B000E0279000BFE030E32090019CE060021441
:1013C000F09001A0E0600214F090019DE060021432
:1013D000F09001A1E0600214F090007CE020E004B5
:1013E000E030E30A900199E0601DE4F0801990017B
:1013F00099E004F0C39464400EE4F090007CE02097
:10140000E4057F03122FA0900070E030E005121C6D
:10141000A4800E9000BFE020E007E4900015F0A348
:10142000F0900155E0C313A3E0137C005401FD903C
:101430000155E0FEA3E07807CEC313CE13D8F954CC
:10144000016D7001EC70030214FE7E00900156E005
:1014500054027806C333CE33CED8F9FF900155E05D
:10146000FCA3E0547FFDEC4EFEED4FFF900155EEE6
:10147000F0A3EFF012005690019FE05401FD7F01B0
:10148000122F8690019EE0C313A3E0135401FDE4E4
:10149000FF122F8690019EE0FEA3E07802CEC313D8
:1014A000CE13D8F95401FD7F02122F8690019EE0E1
:1014B0005401FD7F0A122F8690019EE0C313540150
:1014C000FD7F09122F8690019EE0131313541F54C1
:1014D00001FD7F03122F8690019EE0C4540F54013A
:1014E000FD7F08122F8690007CE030E31190019E72
:1014F000E0C4131354035401FD7F05122F8622BB51
:10150000010689828A83E0225002E722BBFE02E3C1
:101510002289828A83E49322BB010CE58229F58229
:10152000E5833AF583E0225006E92582F8E622BBFE
:10153000FE06E92582F8E222E58229F582E5833A72
:10154000F583E49322BB010689828A83F02250024C
:10155000F722BBFE01F322EF8DF0A4A8F0CF8CF0B0
:10156000A428CE8DF0A42EFE22C5F0F8A3E028F02A
:10157000C5F0F8E582158270021583E038F022BBD1
:101580000110E58229F582E5833AF583E0F5F0A3C1
:10159000E0225009E92582F886F008E622BBFE0A1F
:1015A000E92582F8E2F5F008E222E5832AF583E9ED
:1015B00093F5F0A3E993228A838982E47375F00896
:1015C000758200EF2FFFEE33FECD33CDCC33CCC58B
:1015D0008233C5829BED9AEC99E58298400CF582A6
:1015E000EE9BFEED9AFDEC99FC0FD5F0D6E4CEFB18
:1015F000E4CDFAE4CCF9A88222B800C1B90059BA06
:10160000002DEC8BF084CFCECDFCE5F0CBF9781833
:10161000EF2FFFEE33FEED33FDEC33FCEB33FB102D
:10162000D703994004EB99FB0FD8E5E4F9FA227847
:1016300018EF2FFFEE33FEED33FDEC33FCC933C959
:1016400010D7059BE99A4007EC9BFCE99AF90FD863
:10165000E0E4C9FAE4CCFB2275F010EF2FFFEE3383
:10166000FEED33FDCC33CCC833C810D7079BEC9AC2
:10167000E899400AED9BFDEC9AFCE899F80FD5F04B
:10168000DAE4CDFBE4CCFAE4C8F92290018BEBF06C
:10169000A3EAF0A3E9F090018BE0A3E0FAA3E04A0B
:1016A00070030217FC90018BE0FBA3E0FAA3E0F9C2
:1016B0001214FFFF90018BE0A3E0A3E01214FF756A
:1016C000F009A424DFF582E43400F583EFF0900103
:1016D0008BE0FBA3E0FAA3E0F9900001121518FFDC
:1016E00090018BE0A3E0A3E01214FF75F009A4249D
:1016F000E0F582E43400F583EFF090018BE0FBA38A
:10170000E0FAA3E0F990000212157FFFAEF090011D
:101710008BE0A3E0A3E01214FF75F009A424E1F527
:1017200082E43400F583EEF0A3EFF090018BE0FB50
:10173000A3E0FAA3E0F9900004121518FF90018BC2
:10174000E0A3E0A3E01214FF75F009A424E3F582FE
:10175000E43400F583EFF090018BE0FBA3E0FAA303
:10176000E0F9900005121518FF90018BE0A3E0A3AB
:10177000E01214FF75F009A424E4F582E43400F5C6
:1017800083EFF07B007A007900C003C002C00190B3
:10179000018BE0FBA3E0FAA3E0F91214FF75F00956
:1017A000A424E5F582E43400F583D001D002D0030F
:1017B000EBF0A3EAF0A3E9F090018BE0FBA3E0FAE1
:1017C000A3E0F91214FF1460161460222402702C96
:1017D00090018BE0FBA3E0FAA3E0F91220E0229055
:1017E000018BE0FBA3E0FAA3E0F912219A22900119
:1017F0008BE0FBA3E0FAA3E0F91220222290018BF8
:10180000EBF0A3EAF0A3E9F090018BE0A3E0FAA3E8
:10181000E04A700302196990018BE0FBA3E0FAA390
:10182000E0F91214FFFF90018BE0A3E0A3E0121493
:10183000FF75F008A42415F582E43401F583EFF078
:1018400090018BE0FBA3E0FAA3E0F99000011215F0
:1018500018FF90018BE0A3E0A3E01214FF75F008DD
:10186000A42416F582E43401F583EFF090018BE0B7
:10187000FBA3E0FAA3E0F9900002121518FF900113
:101880008BE0A3E0A3E01214FF75F008A42417F581
:1018900082E43401F583EFF090018BE0FBA3E0FAE2
:1018A000A3E0F9900003121518FF90018BE0A3E06C
:1018B000A3E01214FF75F008A42418F582E43401A3
:1018C000F583EFF090018BE0FBA3E0FAA3E0F99041
:1018D0000004121518FF90018BE0A3E0A3E012149E
:1018E000FF75F008A42419F582E43401F583EFF0C4
:1018F0007B007A007900C003C002C00190018BE038
:10190000FBA3E0FAA3E0F91214FF75F008A4241A6F
:10191000F582E43401F583D001D002D003EBF0A3CB
:10192000EAF0A3E9F090018BE0FBA3E0FAA3E0F971
:101930001214FF1460161460222402702C90018B84
:10194000E0FBA3E0FAA3E0F9122ACD2290018BE09C
:10195000FBA3E0FAA3E0F9122B132290018BE0FB2A
:10196000A3E0FAA3E0F912296622900156E04401AF
:10197000F0122D32900143E004F0C3940A4034E4A5
:10198000F0900155E013A3E01320E0047F018002F2
:101990007F00EF540125E0FFE433FE900155E0FCA9
:1019A000A3E054FDFDEC4EFEED4FFF900155EEF02F
:1019B000A3EFF0900144E004F0C394645003021AD2
:1019C000A1E4F0900155E0FEA3E07802CEC313CE6F
:1019D00013D8F920E0047F0180027F007E00EF54DD
:1019E000017802C333CE33CED8F9FF900155E0FC25
:1019F000A3E054FBFDEC4EFEED4FFF900155EEF0E1
:101A0000A3EFF012281A900145E004F0C3940540BA
:101A100042E4F0900155E0FEA3E07803CEC313CE7C
:101A200013D8F920E0047F0180027F007E00EF548C
:101A3000017803C333CE33CED8F9FF900155E0FCD3
:101A4000A3E054F7FDEC4EFEED4FFF900155EEF094
:101A5000A3EFF0900146E004F0C3940A4043E4F0A1
:101A6000900155E0C4F854F0C868A3E0C4540F488E
:101A700020E0047F0180027F00EF5401C4F8540F7E
:101A8000C868FFE4C454F048FE900155E0FCA3E0B0
:101A900054EFFDEC4EFEED4FFF900155EEF0A3EF3D
:101AA000F022900155E0C313A3E0137C005401FD24
:101AB000900155E0FEA3E07806CEC313CE13D8F90B
:101AC00054016D7001EC7003021BAD7E0090015655
:101AD000E054027805C333CE33CED8F9FF900155D8
:101AE000E0FCA3E054BFFDEC4EFEED4FFF9001552E
:101AF000EEF0A3EFF09000FAE004F0C3940250037C
:101B0000021BADE4F0900112E064076045E075F05F
:101B100003A424FCF582E43400F583E0900114F082
:101B2000900112E075F003A424FDF582E43400F581
:101B300083E0900113F0900112E075F003A424FEFD
:101B4000F582E43400F583E09000FBF0900112741C
:101B500007F0900114E0D394004041900111E0049B
:101B6000F0900113E0FF900111E09F500B1232043E
:101B700090007CE04410F0229000FBE0FF90011107
:101B8000E0C39F500B12320890007CE054EFF0222B
:101B9000900114E014F0E4900111F02290007CE038
:101BA00054EFF012320890007CE054EFF022E94A42
:101BB0007003021CA31214FF14604714607A24FD02
:101BC0007003021C6E24056003021CA39000021225
:101BD0001518700B900001121518F4529A80089095
:101BE0000001121518429A900003121518700A90FD
:101BF0000001121518F4529B229000011215184290
:101C00009B22900002121518700B900001121518FB
:101C1000F45291800890000112151842919000032F
:101C2000121518700A900001121518F452922290A1
:101C30000001121518429222900002121518700B22
:101C4000900001121518F452A1800890000112159D
:101C50001842A1900003121518700A900001121585
:101C600018F452A22290000112151842A2229000EC
:101C700002121518700B900001121518F452D98039
:101C80000890000112151842D9900003121518701F
:101C90000A900001121518F452DA22900001121570
:101CA0001842DA229000BFE020E003021D62E0202B
:101CB000E303021D80E020E427E0547FF0E054BFFE
:101CC000F0E054DFF0E04410F090019C7409F0E47F
:101CD00090019BF09001A1F09001A0F090019DF087
:101CE0009001A0E060149000BFE0547FF0E0442039
:101CF000F090019D742DF0021D8090019CE0D39422
:101D00000040199000BFE0547FF0E054DFF09001F4
:101D1000A1740AF090019A7403F080649000BFE00F
:101D20004480F0E054DFF09001A1E07053740AF0B9
:101D300090019AE07018A3E004F0E0C39402401A06
:101D400090019DE070149001A07405F0800CE49067
:101D5000019BF09000BFE04440F090019A7403F0C2
:101D6000801E9000BFE0547FF0E054BFF0E054DFED
:101D7000F0E054EFF0E054F7F0E4900015F0A3F039
:101D80009000BFE030E107E4900071F0A3F02290F2
:101D90000179E020E303021E71E030E703021E71C7
:101DA000E030E410E054DFF0E054EFF0E49001881C
:101DB000F0021E36900188E004F0D39408402E9083
:101DC0000185E004FFF0D390017DE09F90017CE06D
:101DD00094005009900179E04480F08007900179E7
:101DE000E04410F0900179E04420F08049900181B6
:101DF000E0FBA3E0FAA3E0F9900185E0F5827583AA
:101E000000121518FD7C00900188E014FF74017E1B
:101E100000A807088005C333CE33CED8F9FFEE5CA7
:101E2000FEEF5D4E6009900179E04420F08007905C
:101E30000179E054DFF0900179E0FFC413540754B6
:101E400001FFE0FEC41313540354016F602390009C
:101E50007CE020E31C900179E0FFC4135407540197
:101E6000FCC4333354C0FEE054BF4EF0EC24FF9268
:101E7000A322900189EBF0A3EAF0A3E9F0E4FFFECE
:101E8000A3F0A3F0A3F0A374FFF0E4A3F0C3EF94D6
:101E900012EE648094804003021F23900189E0FBCE
:101EA000A3E0FAA3E0F98F828E83121518FD90014A
:101EB0008EE0FCEDD39C4013900189E0A3E0A3E009
:101EC0008F828E8312151890018EF0900189E0FBAD
:101ED000A3E0FAA3E0F98F828E83121518FD90011A
:101EE0008FE0FCEDC39C5013900189E0A3E0A3E0D8
:101EF0008F828E8312151890018FF0900189E0FB7C
:101F0000A3E0FAA3E0F98F828E83121518FD9001E9
:101F10008DE02DF090018CE03400F00FEF70010E99
:101F2000021E8D90018EE0FFC390018DE09FFF9017
:101F3000018CE09400FE90018FE0FDC3EF9DFFEE69
:101F40009400C4F854F0C868EFC4540F48A3F0E0FC
:101F5000FF22900155E0C313A3E0135401FD90014B
:101F600055E0C31354016D7001E47003022021A3F6
:101F7000E05402FE900155E054FDFCA3E0FDEC4E60
:101F8000FFED900155CFF0A3EFF090012DE024304C
:101F9000F9E43401FA7B017F0312287690012DE0E9
:101FA00004F0E0C394124079E4F07B017A017930C7
:101FB000121E7290012FEFF090012EE054FEF0E01F
:101FC00054FDF0E054FBF0A3E0D3940A4005E09404
:101FD000FA4023E4900142F090012EE04401F0A386
:101FE000E0D3940A500890012EE04402F0229001C0
:101FF0002EE04404F02290012FE0C3941550079086
:1020000001427467F02290012FE0D394BF4006E4B0
:10201000900142F02290012FE090322293900142F1
:10202000F02290018EEBF0A3EAF0A3E9F090018E8C
:10203000E0A3E0FAA3E04A70030220DF90018EE003
:10204000FBA3E0FAA3E0F9900004121518428E9069
:10205000018EE0FBA3E0FAA3E0F99000011215184D
:1020600042C990018EE0FBA3E0FAA3E0F9900002E0
:1020700012157FFFAEF0FBE4C39BFFE49EFE7401EC
:102080009400FDE49400FCE4FB7A01F9F8122C6D55
:10209000AF038FCA8FCC90018EE0FBA3E0FAA3E0E0
:1020A000F990000212157FFFAEF0FBE4C39BFFE442
:1020B0009EFE74019400FDE49400FCE4FB7A01F9B7
:1020C000F8122C6D8FCB8FCD90018EE0FBA3E0FA40
:1020D000A3E0F990000512151842B8C2ADC2CA2299
:1020E00090018EEBF0A3EAF0A3E9F090018EE0A35B
:1020F000E0FAA3E04A700302219990018EE0FBA36D
:10210000E0FAA3E0F9900004121518428E90018EB7
:10211000E0FBA3E0FAA3E0F9900001121518428950
:1021200090018EE0FBA3E0FAA3E0F9900002121503
:102130007FFFAEF0FBE4C39BFFE49EFE74019400BE
:10214000FDE49400FCE4FB7A01F9F8122C6DAF0376
:102150008F8A90018EE0FBA3E0FAA3E0F9900002E1
:1021600012157FFFAEF0FBE4C39BFFE49EFE7401FB
:102170009400FDE49400FCE4FB7A01F9F8122C6D64
:102180008F8C90018EE0FBA3E0FAA3E0F9900005AC
:1021900012151842B8C2A9C28C2290018EEBF0A38E
:1021A000EAF0A3E9F090018EE0A3E0FAA3E04A7020
:1021B0000302225390018EE0FBA3E0FAA3E0F99022
:1021C0000004121518428E90018EE0FBA3E0FAA3E2
:1021D000E0F9900001121518428990018EE0FBA3EE
:1021E000E0FAA3E0F990000212157FFFAEF0FBE4E5
:1021F000C39BFFE49EFE74019400FDE49400FCE4A4
:10220000FB7A01F9F8122C6DAF038F8B90018EE0F1
:10221000FBA3E0FAA3E0F990000212157FFFAEF0F5
:10222000FBE4C39BFFE49EFE74019400FDE4940074
:10223000FCE4FB7A01F9F8122C6D8F8D90018EE091
:10224000FBA3E0FAA3E0F990000512151842B8C20A
:10225000ABC28E22C201E49001AEF0C201900179BE
:10226000E020E2030222F590017EE0FBA3E0FAA366
:10227000E0F99000011215189001ADF090017EE098
:10228000A3E0A3E01214FF64AA706A9001ADE0FF1E
:10229000C390017BE09F90017AE094004057900149
:1022A000AE7402F0E4FF9001ADE014FEA3E0C39E23
:1022B000502190017EE0FBA3E0FAA3E0F99001AE8B
:1022C000E0F5827583001215182FFF9001AEE0042F
:1022D000F080D39001ADE024FFFDE434FFFC9001D9
:1022E0007EE0FBA3E0FAA3E0F98D828C831215183F
:1022F000B50702D201A2012278FFE4F6D8FD9001D1
:10230000007F007E03E4F0A3DFFCDEFA758120028B
:10231000234D022E73E493A3F8E493A34003F680C5
:1023200001F208DFF48029E493A3F85407240CC8D1
:10233000C333C4540F4420C8834004F4568001467C
:10234000F6DFE4800B01020408102040809009EFC2
:10235000E47E019360BCA3FF543F30E509541FFEA7
:10236000E493A360010ECF54C025E060A840B8E418
:1023700093A3FAE493A3F8E493A3C8C582C8CAC59B
:1023800083CAF0A3C8C582C8CAC583CADFE9DEE72D
:1023900080BEC0E0C0F0C083C082C0D075D000C095
:1023A00000C001C002C003C004C005C006C0079041
:1023B00000E1E0FEA3E0FFFBAA06E4C39BFFE49E6E
:1023C000FE74019400FDE49400FCE4FB7A01F9F84A
:1023D000122C6DAF038F8A9000E1E0FEA3E0FFFBBB
:1023E000AA06E4C39BFFE49EFE74019400FDE494FE
:1023F00000FCE4FB7A01F9F8122C6D8F8C9000E55B
:10240000E0A3E0FAA3E0F91215B7D007D006D00593
:10241000D004D003D002D001D000D0D0D082D0835D
:10242000D0F0D0E032C0E0C0F0C083C082C0D07530
:10243000D000C000C001C002C003C004C005C00677
:10244000C0079000EAE0FEA3E0FFFBAA06E4C39BFE
:10245000FFE49EFE74019400FDE49400FCE4FB7A2A
:1024600001F9F8122C6DAF038F8B9000EAE0FEA308
:10247000E0FFFBAA06E4C39BFFE49EFE7401940008
:10248000FDE49400FCE4FB7A01F9F8122C6D8F8DC9
:102490009000EEE0A3E0FAA3E0F91215B7D007D060
:1024A00006D005D004D003D002D001D000D0D0D0C7
:1024B00082D083D0F0D0E032900155E0C313A3E086
:1024C000135401FD900155E054016D7001E4606901
:1024D0007E00A3E054027807C333CE33CED8F9FF91
:1024E000900155E054FEFCA3E0FDEC4EFEED4FFFE5
:1024F000900155EEF0A3EFF07F04122F2CEF600651
:102500009001ACE004F09001ABE004F0C3941440FF
:1025100028A3E0941040099001AAE04410F0801034
:102520009001ACE0D3940450079001AAE054EFF07E
:10253000E49001ACF09001ABF02290001E74AAF080
:10254000A37404F090006AE0900020F0900064E032
:10255000900021F0900026E0900022F0900063E0CF
:10256000900023F0E4A3F09000067402F0900006BF
:10257000E0C39406501AE0241EF582E43400F5838B
:10258000E0FF900024E02FF0900006E004F080DDF2
:10259000900179E020E022E0FF131313541F30E094
:1025A0000BE0FFC4131313540130E00D7B017A00DC
:1025B000791E7D077C00122DE822E4FD900027742F
:1025C000AAF0A37455F0A37440F0A37406F0A374AA
:1025D00004F090007CE030E30790002BE044C0F072
:1025E00090002AE02426F582E43400F583E4F0FD2F
:1025F00090002AE014FFEDC39F501F74272DF58231
:10260000E43400F583E0FF90002AE02426F582E41C
:102610003400F583E02FF00D80D67B017A00792716
:1026200090002AE0FF90018DE4F0A3EFF0E4FF12A8
:102630002EE6221214FF14602214603624FD604935
:102640002405705BEDB40109900001121518428059
:1026500022900001121518F4528022EDB401099065
:102660000001121518429022900001121518F45220
:102670009022EDB4010990000112151842A0229099
:102680000001121518F452A022EDB40109900001C6
:1026900012151842D822900001121518F452D822AF
:1026A000E4900197F0A3F0C3ED9401EC9400500B7B
:1026B000900197E4F0A37480F0803D9000D9EBF096
:1026C000A3EAF0A3E9F0AF059000CDECF0A3EFF0A2
:1026D0009000D9E0FBA3E0FAA3E0F91214FFF5990A
:1026E0009000DAE475F0011215699000CEE024FF45
:1026F000F09000CDE034FFF0900197E0FEA3E0FF02
:1027000022E4900197F0A3F0C3ED9401EC94005003
:102710000B900197E4F0A37480F0803D9000DCEB17
:10272000F0A3EAF0A3E9F0AF059000CFECF0A3EF3F
:10273000F09000DCE0FBA3E0FAA3E0F91214FFF54F
:102740009F9000DDE475F0011215699000D0E0243F
:10275000FFF09000CFE034FFF0900197E0FEA3E09F
:10276000FF22900190EBF0A3EAF0A3E9F0E49001DE
:1027700095F0A3F0EF14602104703A900190E0FB13
:10278000A3E0FAA3E0F9A3E0FCA3E0FD1226A090E9
:102790000195EEF0A3EFF0801C900190E0FBA3E028
:1027A000FAA3E0F9A3E0FCA3E0FD12270190019554
:1027B000EEF0A3EFF0900195E0FEA3E0FF22900180
:1027C00090EBF0A3EAF0A3E9F0E4900195F0A3F018
:1027D000EF14602104703A900190E0FBA3E0FAA3AB
:1027E000E0F9A3E0FCA3E0FD122A3F900195EEF092
:1027F000A3EFF0801C900190E0FBA3E0FAA3E0F9C6
:10280000A3E0FCA3E0FD122A86900195EEF0A3EF71
:10281000F0900195E0FEA3E0FF22900152E0FF90CE
:102820000154E02448F582E43401F583EFF0E490AC
:102830000152F0900154E004F0C3940A4002E4F025
:10284000E4900017F0A3F0900147F0900147E0C337
:10285000940A5021E02448F582E43401F583E0FF36
:10286000900018E02FF0900017E03400F09001473E
:10287000E004F080D622900189EFF0A3EBF0A3EA08
:10288000F0A3E9F01231D0900189E0FF1231E0535A
:10289000ADDF1231D80000E5AD30E5FBAFAFEF752D
:1028A000F010A4FFE5AEC4540F7C002FFFEC35F010
:1028B000FEEF7804CEA2E713CE13D8F8FF90018A7A
:1028C000E0FBA3E0FAA3E0F9EF121545001231D4C2
:1028D00022E4900189F0A3F0900189F0A3F0C39065
:1028E000018AE0940B900189E0648094805029E093
:1028F000FEA3E07802C333CE33CED8F924E2F974D4
:10290000323EFA7BFF121BAE90018AE004F07006A3
:10291000900189E004F080C6E4F59722E4900189F3
:10292000F0A3F0900189F0A3F0C390018AE0940233
:10293000900189E064809480502BE0FEA3E078024F
:10294000C333CE33CED8F924A2F58274013EF58389
:10295000E0FF12316490018AE004F0700690018972
:10296000E004F080C422E94A604490000112151886
:10297000FF900002121518FEA807088002C333D882
:10298000FC42C6900001121518FF900003121518A2
:10299000FEA807088002C333D8FC42C753A9F790AA
:1029A0000004121518600443B9082253B9F722E451
:1029B000900189F0A3F0900189F0A3F0C390018AFF
:1029C000E09402900189E0648094805029E0FEA3A5
:1029D000E0FF7C007D0912155774572FF974013EF2
:1029E000FA7B0112168B90018AE004F070069001C8
:1029F00089E004F080C622E4900189F0A3F0900100
:102A000089F0A3F0C390018AE09402900189E06408
:102A10008094805029E0FEA3E07803C333CE33CE08
:102A2000D8F92469F974013EFA7B011217FD90016F
:102A30008AE004F07006900189E004F080C622E488
:102A4000900197F0A3F0C3ED9401EC9400500B902B
:102A50000197E4F0A37480F08023E49000D1F0901B
:102A600000C9F0A3F0AF059000C5ECF0A3EFF09023
:102A700000D3EBF0A3EAF0A3E9F04398109001979C
:102A8000E0FEA3E0FF22E4900197F0A3F0C3ED94F1
:102A900001EC9400500B900197E4F0A37480F08057
:102AA00023E49000D2F09000CBF0A3F0AF059000AB
:102AB000C7ECF0A3EFF09000D6EBF0A3EAF0A3E9A7
:102AC000F0439D10900197E0FEA3E0FF22E94A60E9
:102AD00041900001121518FF900002121518FEA86F
:102AE00007088002C333D8FC42BA900001121518BF
:102AF000FF900003121518FEA807088002C333D800
:102B0000FC42BBC2A89000041215186003D2B82280
:102B1000C2B822E94A6041900001121518FF9000E6
:102B200002121518FEA807088002C333D8FC42BC65
:102B3000900001121518FF900003121518FEA80747
:102B4000088002C333D8FC42BDC2AA90000412150B
:102B5000186003D2BA22C2BA22C0E0C0F0C083C05B
:102B600082C0D075D000C000C001C002C003C00444
:102B7000C005C006C0079000F7E0A3E0FAA3E0F9A3
:102B80001215B7D007D006D005D004D003D002D09C
:102B900001D000D0D0D082D083D0F0D0E032C0E0DD
:102BA000C0F0C083C082C0D075D000C000C001C0DA
:102BB00002C003C004C005C006C00790011AE0A30C
:102BC000E0FAA3E0F91215B7D007D006D005D0047B
:102BD000D003D002D001D000D0D0D082D083D0F0AA
:102BE000D0E032C0E0C0F0C083C082C0D075D00059
:102BF000C000C001C002C003C004C005C006C007B9
:102C0000900122E0A3E0FAA3E0F91215B7D007D0B3
:102C100006D005D004D003D002D001D000D0D0D04F
:102C200082D083D0F0D0E032C0E0C0F0C083C08258
:102C3000C0D075D000C000C001C002C003C004C035
:102C400005C006C00790012AE0A3E0FAA3E0F9124C
:102C500015B7D007D006D005D004D003D002D001DC
:102C6000D000D0D0D082D083D0F0D0E032C2D5E82E
:102C700030E70FB2D5E4C39BFBE49AFAE499F9E498
:102C800098F8EC30E717B2D5122CA31215F9E4C36B
:102C90009BFBE49AFAE499F9E498F880031215F999
:102CA00030D50DE4C39FFFE49EFEE49DFDE49CFC53
:102CB000221214FF14601614601E24FD60252405E2
:102CC000702A9000011215185580FF801F90000196
:102CD0001215185590FF801490000112151855A078
:102CE000FF800990000112151855D8FFEF60027F90
:102CF0000122208709900156E04420F080149001C1
:102D000056E030E50D900153E004F0900156E05498
:102D1000DFF0208608900155E04410F02290015524
:102D2000E030E40D900152E004F0900155E054EFE2
:102D3000F022900153E060399000BFE030E0149041
:102D40000153E0FF900016E02FF0900015E03400F2
:102D5000F080199000BFE020E512900153E0FF9051
:102D60000072E02FF0900071E03400F0E490015325
:102D7000F0227B017A00799C90018DE4F0A3741E0F
:102D8000F07F01122F097F0112308F7B017A0079C9
:102D90007E90018DE4F0A3741EF0E4FF122F09E48D
:102DA000FF12308FE490007CF0900069743CF022B8
:102DB0005391F343920C4398405398EFE4F5C9F5CF
:102DC0008775C83075CAE275CB0453C8FBC2ADC263
:102DD000ACC2BC9000C3F09000D1F09000CDF0A345
:102DE000F09000C9F0A3F022900179E04408F0E0EF
:102DF0004410F0E4900185F0900188F0900179E0B2
:102E0000547FF0900181EBF0A3EAF0A3E9F0AF0565
:102E100090017CECF0A3EFF022900179E04401F006
:102E2000E054FDF0E4900184F0900186F090017987
:102E3000E054FBF0AF05A3ECF0A3EFF090017EEBC4
:102E4000F0A3EAF0A3E9F0227BFF7A1D798F7F01DE
:102E50001230A37F011230B7E4900179F090018421
:102E6000F0A3F0A3F0900188F0900179E04440F0E5
:102E7000D2A322122F4BE4FF122FA0123210900186
:102E800056E030E0F6E054FEF01224B8121F521261
:102E90001AA212136A120E2380E122E4900155F067
:102EA000A3F07BFF7A19796AFF1230A3E4FF123096
:102EB000B77BFF7A2C79F2E4FF1230DFE4FF1230A7
:102EC000F322E4900189F0EF14600D0470121231C6
:102ED000AD900189EFF080081231B9900189EFF0CF
:102EE000900189E0FF22EF25E025E024A2F582E4AD
:102EF0003401F583E0FF90018DE0FDA3E0900193A4
:102F0000CDF0A3EDF012276222EF25E025E024A208
:102F1000F582E43401F583E0FF90018DE0FDA3E04C
:102F2000900193CDF0A3EDF01227BE22E490018929
:102F3000F0EF75F004A424E2F9743235F0FA7BFF67
:102F4000122CB1900189EFF0E0FF2212322A1231E7
:102F50002E122E9B1232141231A51231C5122D726F
:102F6000122E4812002E12322D2253A1FC43A2032E
:102F7000438FC0539D53539DEF759EE27595044357
:102F8000A90153B9FE22900189EDF0EF75F004A478
:102F900024E2F9743235F0FA7BFFE0FD1226332289
:102FA000900189EFF0123208E4900114F0900111C1
:102FB000F0900189E0900112F02275D18075D290D5
:102FC00075D44075D3B775DC0875DE5B53A9FD5326
:102FD000B9FD227B017A007945900048E0FF90011D
:102FE0008DE4F0A3EFF07F01122EE622900066E060
:102FF00090006EF0900067E090006FF0900068E045
:10300000900070F022EF14600B14600C2402700B1F
:10301000120006221200162212002622EF14600B64
:1030200014600C2402700B12000E2212001E2212D9
:1030300031CB22EF75F009A424E5F582E43400F5E4
:1030400083EBF0A3EAF0A3E9F022EF14600B146025
:103050000C2402700B12321E22123221221231F87D
:1030600022EF14600B14600C2402700B1232242225
:10307000123227221231FC22EF75F008A4241AF52F
:1030800082E43401F583EBF0A3EAF0A3E9F022EF48
:1030900025E025E024A2F582E43401F583E0FF1267
:1030A000317322EF75F009A42457F582E43401F559
:1030B00083E0FF12303322EF75F009A42457F58224
:1030C000E43401F583E0FF12300522EF75F009A426
:1030D0002457F582E43401F583E0FF12301C22EF1F
:1030E00075F008A42469F582E43401F583E0FF1249
:1030F000307822EF75F008A42469F582E43401F5F4
:1031000083E0FF12304A22EF75F008A42469F582AB
:10311000E43401F583E0FF12306122EF75F004A47E
:1031200024E2F9743235F0FA7BFF121BAE2212282A
:10313000D11232001229AF12291C12320C1229F7B7
:1031400022E4FDFCC3ED9FEC9E5008000DED7001E4
:103150000C80F122E4F5AD75AB08F5AC75AA07C299
:10316000AEC2BE22EF146007047007122DB0221207
:103170002F6A22EF146007047007123218221231EE
:10318000EC22EF14600704700712321B221231F098
:10319000225398EF9000D17401F022539DEF9000DC
:1031A000D27401F022E490019EF0A3F0229000D1AD
:1031B000E0FF22E49000C3F0229000D2E0FF22E47E
:1031C0009000C4F022E49001AAF022C2ADC2CA224B
:1031D00043AD802253AD7F2243AD402253ADBF2289
:1031E000EF42AD2243D2802253D27F2243A9012253
:1031F00053A9FE2243CF102243A9082253A9F72244
:10320000123154221231E4221231E822122FBA2252
:103210001231F42212320822D2AC22C2AC22D2A83D
:1032200022D2AA22C2A822C2AA22C2AF22D2AF228E
:10323000787673706E6C6A6866646362605E5C5B0D
:10324000595856555453514F4E4D4C4B4A49484787
:10325000464544444342414040403F3E3D3C3B3B69
:103260003A3939383736363535343433323231310C
:1032700030302F2F2E2E2D2C2C2B2B2A2A2929288B
:1032800028272726262625252424232322222121F8
:103290002020201F1F1E1E1D1D1D1C1C1B1B1A1A5B
:1032A0001A191919181818171716161515141414B1
:1032B000131312121211111010100F0F0E0E0E0D0B
:1032C0000D0C0C0B0B0B0A0A090908080807070666
:1032D00006060505040404030302020101000000C0
:1032E0000000012001000140010001800100028076
:1032F00001000210000102080100008000010040EE
:0E33000000010020010000100100000101008A
:00000001FF
