:03000000023A348D
:03000B00023DC4EF
:03001B00023E544E
:0300230002352C77
:03002B000258CEAA
:03003B0002337F0E
:03005B00024EF260
:03006B00024AFD49
:030073000258D45C
:03007B0002173B2E
:03009B000214410B
:100100004106FB004106FC004107000041070100D9
:100110004106FA004107FB004808070200000003FF
:100120000000004907FE00017D00010000000044BE
:10013000082400000000410828005A07B00380038B
:10014000400320031003080304030203010101011B
:100150000401100120014042081C000041081B005E
:1001600041081700410818004108190041081A0009
:100170006020079000000000000000000000000068
:10018000000000000000000000000000000000006F
:100190000000000041078F004107F4004107EB0019
:1001A0004107EF004107F1004207F2000041082D2E
:1001B0000042082B00004108290041082A0541059A
:1001C000A3004105A8004105AE004205EB00005E1A
:1001D00005AF00000000000000000000000000006B
:1001E000000000000000000000000000000000000F
:1001F0005E0560000000000000000000000000003C
:1002000000000000000000000000000000000000EE
:10021000005E05CD000000000000000000000000AE
:1002200000000000000000000000000000000000CE
:1002300000005E05810000000000000000000000DA
:1002400000000000000000000000000000000000AE
:100250000000004105ED004105A2004105A9004153
:1002600005A1004105A7004105EE004105F100424E
:10027000059F00004205AA00004205EF000042056C
:10028000AC000041055FFF4305A400000043057E6C
:1002900000000041055C0041055D0041055E005C19
:1002A000065F0000000000000000000000000000E9
:1002B0000000000000000000000000000000604896
:1002C00005F2120810080C080808060804080208BD
:1002D000121010100C10081006100410021012203A
:1002E00010200C200820062004200220124010407C
:1002F0000C400840064004400240128010800C80F0
:100300000880068004800280148041063B0041067C
:100310003C0041063D00C1056021063EFF4DB9FF8E
:100320004DF9FF4F68FF4FA1FF36C9FF32A3FF2CE5
:1003300024FF1C9BFF5697FF57F1FF5210410823E3
:1003400000420820000041081F0041082200410827
:100350001E00410811004108120041081300410825
:10036000140042080F00004208150000C106611F7A
:100370000100A8000000000000A80000000200002A
:10038000A90100000F00202900000002002029011F
:1003900000000F0020A9000000020000A903001CBB
:1003A000A8001EA9070000140000A90A00002A01E5
:1003B000C2A90700005A005AA9000000020000AAC2
:1003C0000100000F00202A0000000200202A010086
:1003D000000F0020AA000000020000AA0300191369
:1003E000001EAA070000140000AA0A00002A00B498
:1003F000AA000000020000AB0100000F00202B004B
:1004000000000200202B0100000F0020AB000000C4
:10041000020000AB03001913001EAB07000014001C
:1004200000AB0A0000480168AB000000020000AC0D
:100430000100000F00202C0000000200202C010011
:10044000000F0020AC000000020000B40600000015
:100450000258340E0001E00258340F0000780258B0
:10046000AD130000F000F0AD10000000003CAD1036
:1004700000001E0000CD120008340834CD11000029
:100480001E0000CD160000000000AE1700000000A6
:100490000061340427A8000000000000A80000004C
:1004A000020000A90100000F002029000000020046
:1004B00020290100000F0020A9140000000000A95D
:1004C000000000020000A903001CA8001EA90700EC
:1004D00000140000A90A00002A01C2A90700009622
:1004E0000096A90A00003700F0A9000000020000F1
:1004F000AA0100000F00202A0000000200202A01AB
:1005000000000F0020AA000000020000AA0300194A
:1005100013001EAA070000140000AA0A00003701F9
:100520002CAA000000020000AB0100000F00202BED
:100530000000000200202B0100000F0020AB000093
:1005400000020000AB03001913001EAB07000014EB
:100550000000AB0A000048021CAB000000020000D3
:10056000AC0100000F00202C0000000200202C0134
:1005700000000F0020AC000000020000B4060000E4
:10058000000258340E0001E00258340F00007802D7
:1005900058AD130000F000F0AD10000000003CADBD
:1005A0001000001E0000CD120008340834CD1500E4
:1005B00002580258CD1100001E0000CD16000000A8
:1005C0000000AE17000000000060850051A8000088
:1005D00000000000A8000000020000A90100000FB8
:1005E000002029000000020020290100000F002047
:1005F000A9140000000000AC0600000002582C0EF8
:100600000001E002582C0F00007802582C0E000167
:10061000E002582C0F0000780258AD130000F000E3
:10062000F0AD10000000003CAD1000001E0000CD39
:10063000120008340834CD150002580258CD1100BC
:10064000001E0000CD160000000000AE17000000E4
:100650000000604D0359A8000000000000A8000041
:1006600000020000A90100000F0020290000000284
:100670000020290100000F0020A914000000000044
:10068000AD120009600960AD150002580258AD11A5
:1006900000001E0000AD160000000000AE170000B4
:1006A00000000060E70221A8000000000000A80090
:1006B0000000020000A90100000F00202900000036
:1006C000020020290100000F0020A9000000020004
:1006D00000A903001CA8001EA9070000140000A91F
:1006E0000A00002A012CA9000000020000AA010053
:1006F000000F00202A0000000200202A0100000F45
:100700000020AA000000020000AA03001913001E26
:10071000AA070000140000AA0A00002A0078AA0014
:100720000000020000AB0100000F00202B000000C1
:100730000200202B0100000F0020AB00000002008F
:1007400000AB03001913001EAB070000140000AB40
:100750000A00003700B4AB000000020000AD130037
:1007600000F000F0AD10000000003CAD1000001ED5
:100770000000CD120008340834CD1100001E000026
:10078000CD160000000000AE17000000000060540D
:1007900003A760000000000000E00000000200026B
:1007A0006103001CA8003C620A00004802D06301FB
:1007B00000000F000F630000000200026301000050
:1007C0000F000F641200016801686510000000004E
:1007D0003C651000001E0000E600000002000266FA
:1007E000170000000000602A03FB2000000000004A
:1007F00000A00000000200022110000000003C21C7
:100800001000001E0000A2000000020002221700DB
:10081000000000005200E700001A01001A0200194F
:1008200003001404001805000A6030001F13130AA7
:1008300007000000001D1D0F0A000000000A0A0A40
:100840000A0A00000028282828282800000A0A058B
:10085000030000000000000000000000004F00D670
:100860000101000104270100510103590102214641
:1008700000060103A70103FB410015FF4200F90038
:100880000043000F00000042030C00004203090077
:10089000004100FF0042001D000041001A0042001C
:1008A0000D00004203560000410003004100E60035
:1008B000410018004200FB00004200160000410009
:1008C0000C004103580041001C0042004F00004151
:1008D0000004004200FD000041030B004200010043
:1008E0000042021F000041030800410014004100C3
:1008F00000006048030EFF581FFF5772FF57FDFFAF
:100900004CAAFF42D1FF4781FF40F5FF5784FF56B5
:1009100002FF5559FF52F8FF537AFF4423FF5595C4
:10092000FF561DFF50E7FF3849FF5796FF53EFFF73
:100930004E79FF51DFFF4FDAFF5729FF2F9F6024C9
:10094000076900FF591B01FF591D04FF557703FF7D
:10095000591C03FF591E05FF582A02FF583501FF95
:1009600057A803FF591F41078E0041078D0041071B
:100970006700410768004107D9004207DA000041DB
:1009800007CE004207D100004207CC00004207D743
:1009900000004207D300004207D500004207CF0005
:1009A000004207CA0000009007DDEFF0E49007E581
:1009B000F09007DDE0FF75F002A4247CF582E5F0FD
:1009C0003406F583E0FCA3E0FD75F002EFA4249C5F
:1009D000F582E5F03406F583E0FEA3E0C39DFFEE6B
:1009E0009C9007DEF0A3EFF0E47F01FEFDFC900792
:1009F000DDE0F9F81212E38F198E188D178C16AFFF
:100A0000011253259007E3EEF0A3EFF0C39007DF48
:100A1000E09FEE6480F89007DEE0648098400890E4
:100A200007E07401F08005E49007E0F09007E0E053
:100A300064016003020C2C9007DDE0FF24ACF5821A
:100A4000E43406F583E0C394FA74809480500D7406
:100A5000AC2FF582E43406F583E004F0E515551972
:100A6000FFE5145518FEE5135517FDE5125516FC64
:100A7000E4FBFAF9F8C31212BF6003020BF290060E
:100A80007BE09007E2F01258F7EF6047E49007E050
:100A9000F0A3F09007E1E0FFC3951A502274AC2F49
:100AA000F582E43406F583E0C394017480948040B9
:100AB000069007E0E004F09007E1E004F080D490B5
:100AC00007E0E0C394037480948040079007E2E05D
:100AD000240FF09007DDE024ACF582E43406F583C2
:100AE000E0FF9007E2E0FEEFC39E5003020BF2E44A
:100AF0009007E0F0125892EF6003020B7F9007E13D
:100B0000F09007E1E0FFC3951A502C9007DDE06FED
:100B1000601D1258549007E1E024ACF582E43406DD
:100B2000F583E0C39F40089007E07401F0800890CF
:100B300007E1E004F080CA1258F7EF3395E04F6008
:100B400003020BD09007E0E06003020BD0A3F0900B
:100B500007E1E0FFC3951A50779007DDE06F60175B
:100B60001258549007E1E024B4F582E43406F5838A
:100B7000E0C39F400280539007E1E004F080D01270
:100B800058F7EF3395E04F70479007E2F09007E198
:100B9000F09007E1E0FFC3951A502274AC2FF58264
:100BA000E43406F583E0C394027480948040069098
:100BB00007E2E004F09007E1E004F080D49007E25F
:100BC000E0C394037480948040069007E07401F0C1
:100BD0009007E0E064017002D203E5154519F515B0
:100BE000E5144518F514E5134517F513E5124516F8
:100BF000F5129007DDE0FF24CCF582E43406F5839E
:100C0000E4F074F22FF582E43406F583E4F075F035
:100C100002EFA424BCF582E5F03406F583E4F0A3EA
:100C2000F0748C2FF582E43406020FF19007DDE0BA
:100C3000FF1256C59007DEE0FCA3E0FDD39FEE64F3
:100C400080F8EC64809840129007DDE024B4F582CF
:100C5000E43406F583E004F080159007FDE004F02D
:100C60009007DDE024B4F582E43406F583E4F090E7
:100C700006E1E0FF3395E0FEC3E49FFBE49EFAC388
:100C8000ED9BEA6480F8EC6480985003020D93D3E6
:100C90009007DFE09FEE6480F89007DEE0648098C4
:100CA0004003020D939007DDE0FF24CCF582E4348D
:100CB00006F583E4F0748C2FF582E43406F583E4C2
:100CC000F0FFFEFDFCAB15AA14A913A812C3121263
:100CD000BF6003020EF69007DEE0FEA3E0FF900780
:100CE000DDE075F002A424BCF582E5F03406F5835E
:100CF000EE8FF012124E1258149007DDE075F002DC
:100D0000A424BCF582E5F03406F583E0FCA3E0C33F
:100D10009FEE6480F8EC64809840199007DDE0FF56
:100D200075F002A4247CF582E5F03406F583E475C1
:100D3000F0018046125814C3E49FFFE49EFE900722
:100D4000DDE075F002A424BCF582E5F03406F583FD
:100D5000E0FCA3E0C39FEE6480F8EC64809840035D
:100D6000020EF69007DDE0FF75F002A4247CF58208
:100D7000E5F03406F58374FFF5F012124E75F002BB
:100D8000EFA424BCF582E5F03406F583E4F0A3F08B
:100D9000020EF69006E1E0FF3395E0FEC3E49FFF0C
:100DA000E49EFEC39007DFE09FEE6480F89007DECC
:100DB000E06480984003020E659007DDE0FF24CCDC
:100DC000F582E43406F583E004F0748C2FF582E4B8
:100DD0003406F583E4F074CC2FF582E43406F58311
:100DE000E0FD905982E493FFED8FF084E5F07060B0
:100DF00090598393FEEF8EF0A4FFC3ED9FE5F0645E
:100E000080F87480989007DDE0401424CCF582E4EB
:100E10003406F583E4F0D2049006FA04F0803175CC
:100E2000F002A4247CF582E5F03406F583C083C08B
:100E300082E0FEA3E0FF9006E1E0A2E713FD339518
:100E4000E0FCC3EF9DFFEE9CD082D083F0A3EFF0D7
:100E50009007DDE0FF9007F6E06F6003020EF67486
:100E6000FFF0020EF69006E1E0FF3395E0FED3902E
:100E700007DFE09FEE6480F89007DEE06480984032
:100E8000759007DDE024CCF582E43406F583E4F0C8
:100E9000FFFEFDFCAB15AA14A913A812C31212BFC2
:100EA00070549007DDE0FF248CF582E43406F5836E
:100EB000E004F0748C2FF582E43406F583E06420BE
:100EC00070349007DDE0FF248CF582E43406F5836E
:100ED000E4F09006E1E0A2E713A2E713FD3395E00A
:100EE000FC75F002EFA4247CF582E5F03406F5836E
:100EF000EC8DF012124EE5155519FFE5145518FE4C
:100F0000E5135517FDE51255164D4E4F70030210AF
:100F1000079007E3E0FCA3E0FDAE047802CEA2E771
:100F200013CE13D8F8FFC3ED9FFFEC9EFEC39007CE
:100F3000DFE09FEE6480F89007DEE0648098400375
:100F4000020FF69007DDE024F2F582E43406F58323
:100F5000E004F012589A9007E2EFF0E49007E1F015
:100F60009007E1E0FFC3951A502274AC2FF582E49C
:100F70003406F583E0C394017480948040069007A2
:100F8000E0E004F09007E1E004F080D49007E0E0B6
:100F9000C3940374809480400890067BE09007E23D
:100FA000F09007DDE0FB24F2F582E43406F583E0FF
:100FB000FF9007E2E0FEEFC39E500302107674F24A
:100FC0002BF582E43406F583E4F0AF19AE18AD17C3
:100FD000AC161212B2E5155FF515E5145EF514E5D1
:100FE000135DF513E5125CF51274AC2BF582E43455
:100FF00006F583E4F0229007DDE024F2F582E43484
:1010000006F583E014F0229007DDE024ACF582E4DD
:101010003406F583E4F0FFFEFDFCAB15AA14A9131A
:10102000A812C31212BF70089007DDE0FF123794B8
:10103000E51A14FF9007DDE06F703B9007FDE0C3F9
:10104000951A4032E49007E1F09007E1E0FFC39584
:101050001A501B74AC2FF582E43406F583E0600669
:101060009007E07401F09007E1E004F080DB900766
:10107000E0E07002C20322E709F608DFFA8046E7E3
:1010800009F208DFFA803E88828C83E709F0A3DF4B
:10109000FA8032E309F608DFFA8078E309F208DF24
:1010A000FA807088828C83E309F0A3DFFA80648978
:1010B000828A83E0A3F608DFFA805889828A83E077
:1010C000A3F208DFFA804C80D280FA80C680D480F8
:1010D0006980F28033801080A680EA809A80A880A0
:1010E000DA80E280CA803389828A83ECFAE493A3AF
:1010F000C8C582C8CCC583CCF0A3C8C582C8CCC53E
:1011000083CCDFE9DEE7800D89828A83E493A3F64E
:1011100008DFF9ECFAA9F0EDFB2289828A83ECFA68
:10112000E0A3C8C582C8CCC583CCF0A3C8C582C81B
:10113000CCC583CCDFEADEE880DB89828A83E49356
:10114000A3F208DFF980CC88F0EF60010E4E60C397
:1011500088F0ED2402B4040050B9F582EB2402B407
:10116000040050AF23234582239010C773BB0106B0
:1011700089828A83E0225002E722BBFE02E32289B1
:10118000828A83E49322BB010CE58229F582E58300
:101190003AF583E0225006E92582F8E622BBFE06F6
:1011A000E92582F8E222E58229F582E5833AF58392
:1011B000E49322BB010689828A83F0225002F7223F
:1011C000BBFE01F322F8BB010DE58229F582E58320
:1011D0003AF583E8F0225006E92582C8F622BBFEE4
:1011E00005E92582C8F222EF8DF0A4A8F0CF8CF09B
:1011F000A428CE8DF0A42EFE22BC000BBE0029EF49
:101200008DF084FFADF022E4CCF875F008EF2FFFED
:10121000EE33FEEC33FCEE9DEC984005FCEE9DFEBB
:101220000FD5F0E9E4CEFD22EDF8F5F0EE8420D202
:101230001CFEADF075F008EF2FFFED33FD40079871
:101240005006D5F0F222C398FD0FD5F0EA22C5F082
:10125000F8A3E028F0C5F0F8E58215827002158346
:10126000E038F022A3F8E0C5F025F0F0E582158221
:1012700070021583E0C838F0E822BB0110E582292E
:10128000F582E5833AF583E0F5F0A3E0225009E921
:101290002582F886F008E622BBFE0AE92582F8E2FC
:1012A000F5F008E222E5832AF583E993F5F0A3E956
:1012B0009322CFF4CFCEF4CECDF4CDCCF4CC22EB30
:1012C0009FF5F0EA9E42F0E99D42F0E89C45F0224D
:1012D000E8600FECC313FCED13FDEE13FEEF13FFFC
:1012E000D8F122E8600FEFC333FFEE33FEED33FD9C
:1012F000EC33FCD8F122ECF0A3EDF0A3EEF0A3EF79
:10130000F022A8828583F0D083D0821213191213A1
:1013100019121319121319E473E493A3C583C5F0CA
:10132000C583C8C582C8F0A3C583C5F0C583C8C539
:1013300082C822D083D082E4937012740193700D1E
:10134000A3A393F8740193F5828883E473740293E2
:101350006C70127403936D700C7404936E70067449
:1013600005936F60DDA3A3A3A3A3A380CA8A838987
:1013700082E47375F008758200EF2FFFEE33FECD27
:1013800033CDCC33CCC58233C5829BED9AEC99E545
:101390008298400CF582EE9BFEED9AFDEC99FC0FD5
:1013A000D5F0D6E4CEFBE4CDFAE4CCF9A88222B89D
:1013B00000C1B90059BA002DEC8BF084CFCECDFC22
:1013C000E5F0CBF97818EF2FFFEE33FEED33FDECAF
:1013D00033FCEB33FB10D703994004EB99FB0FD898
:1013E000E5E4F9FA227818EF2FFFEE33FEED33FD36
:1013F000EC33FCC933C910D7059BE99A4007EC9B35
:10140000FCE99AF90FD8E0E4C9FAE4CCFB2275F0C4
:1014100010EF2FFFEE33FEED33FDCC33CCC833C8D5
:1014200010D7079BEC9AE899400AED9BFDEC9AFCDB
:10143000E899F80FD5F0DAE4CDFBE4CCFAE4C8F98A
:1014400022C0E0C0F0C083C082C0D075D000C00010
:10145000C001C002C003C004C005C006C007E5C487
:1014600030E14275DC0243C402D3900718E09400D7
:10147000900717E09400402A90072FE0FBA3E0FAC2
:10148000A3E0F912116DF5C7900730E475F0011271
:10149000124E900718E024FFF0900717E034FFF099
:1014A00080031258C8E5C420E00302172075DC024F
:1014B00043C40190070FE0FEA3E0FFD390070AE0CA
:1014C0009F900709E09E5003021720900700E5C790
:1014D000F0EF4E7056E0FF64A56004EFB4AA4590AB
:1014E0000726E0FBA3E0FAA3E0F9EF1211B390079F
:1014F00000E0A3F0900726E0F9A3E0FAA3E090064D
:10150000FDC9F0A3EAF0A3E9F0900727E475F00124
:1015100012124E900710E004F0705A90070FE0048A
:10152000F0021720900701E40216E090070FE0FE9A
:10153000A3E0FF64014E705B900700E0FD645A6019
:1015400004EDB45533900726E0FBA3E0FAA3E0F9DD
:10155000ED1211B3900700E0FDA3E02DF0900727F6
:10156000E475F00112124E900710E004F07006903E
:10157000070FE004F0021720C3E49FFFE49E9007EA
:10158000278FF012124E90070FE4F0A3F09007019E
:101590000216E090070FE0FEA3E0FF64024E7060C9
:1015A000900700E0FD64046009ED64406004EDB460
:1015B0004133900726E0FBA3E0FAA3E0F9ED121116
:1015C000B3900700E0FDA3E02DF0900727E475F04D
:1015D0000112124E900710E004F0700690070FE021
:1015E00004F0021720C3E49FFFE49E9007278FF0CA
:1015F00012124E90070FE4F0A3F09007010216E0DC
:1016000090070FE07004A3E064037078900700E097
:10161000FFFDD390070AE09D900709E09400404247
:10162000EFD39400403C900726E0FBA3E0FAA3E050
:10163000F9EF1211B3FF900709E4F0A3EFF0900760
:1016400000E0FFA3E02FF0900727E475F0011212ED
:101650004E900710E004F0700690070FE004F002CF
:10166000172090070FE0FEA3E0FFC3E49FFFE49E76
:101670009007278FF012124E90070FE4F0A3F0901E
:101680000701805C90070AE024FFFF900709E0341F
:10169000FFFE90070FE06E7003A3E06F704D9007A0
:1016A00000E0FFA3E0B50714900726E0FBA3E0FAF3
:1016B000A3E0F9EF1211B31257CA806490070FE04C
:1016C000FEA3E0FFC3E49FFFE49E9007278FF01284
:1016D000124E90070FE4F0A3F0900701F09007007E
:1016E000F0900709F0A3741EF08035900700E0FF2A
:1016F000900726E0FBA3E0FAA3E0F9EF1211B39004
:101700000700E0FFA3E02FF0900727E475F0011237
:10171000124E900710E004F0700690070FE004F0FE
:10172000D007D006D005D004D003D002D001D0001D
:10173000D0D0D082D083D0F0D0E032C0E0C0F0C0B2
:1017400083C082C0D075D000C000C001C002C003F9
:10175000C004C005C006C007E5A430E13F43A402B1
:10176000D3900716E09400900715E09400402A906B
:10177000072CE0FBA3E0FAA3E0F912116DF5A790A6
:10178000072DE475F00112124E900716E024FFF0C9
:10179000900715E034FFF080031258BCE5A420E068
:1017A000030219EB43A40190070DE0FEA3E0FFD371
:1017B000900708E09F900707E09E50030219EB9006
:1017C00006FBE5A7F0EF4E703CE0FFB4A5309007B4
:1017D00023E0FBA3E0FAA3E0F9EF1211B39006FBBC
:1017E000E0A3F0900724E475F00112124E90070E6A
:1017F000E004F0705590070DE004F00219EB90063C
:10180000FCE40219AB90070DE0FEA3E0FF64014E7B
:1018100070569006FBE0FDB45A33900723E0FBA31B
:10182000E0FAA3E0F9ED1211B39006FBE0FDA3E0AE
:101830002DF0900724E475F00112124E90070EE08F
:1018400004F0700690070DE004F00219EBC3E49F6A
:10185000FFE49E9007248FF012124E90070DE4F0E3
:10186000A3F09006FC0219AB90070DE0FEA3E0FF89
:1018700064024E70569006FBE0FDB40433900723DB
:10188000E0FBA3E0FAA3E0F9ED1211B39006FBE050
:10189000FDA3E02DF0900724E475F00112124E90A4
:1018A000070EE004F0700690070DE004F00219EB5B
:1018B000C3E49FFFE49E9007248FF012124E90071E
:1018C0000DE4F0A3F09006FC0219AB90070DE07058
:1018D00004A3E0640370789006FBE0FFFDD390075B
:1018E00008E09D900707E094004042EFD394004049
:1018F0003C900723E0FBA3E0FAA3E0F9EF1211B359
:10190000FF900707E4F0A3EFF09006FBE0FFA3E0F1
:101910002FF0900724E475F00112124E90070EE0AC
:1019200004F0700690070DE004F00219EB90070D2B
:10193000E0FEA3E0FFC3E49FFFE49E9007248FF046
:1019400012124E90070DE4F0A3F09006FC805C901C
:101950000708E024FFFF900707E034FFFE90070D23
:10196000E06E7003A3E06F704D9006FBE0FFA3E014
:10197000B50714900723E0FBA3E0FAA3E0F9EF1208
:1019800011B312584A806490070DE0FEA3E0FFC334
:10199000E49FFFE49E9007248FF012124E90070DF3
:1019A000E4F0A3F09006FCF09006FBF0900707F03F
:1019B000A3741EF080359006FBE0FF900723E0FB48
:1019C000A3E0FAA3E0F9EF1211B39006FBE0FFA346
:1019D000E02FF0900724E475F00112124E90070EEC
:1019E000E004F0700690070DE004F0D007D006D0B8
:1019F00005D004D003D002D001D000D0D0D082D006
:101A000083D0F0D0E032900829E064027029900879
:101A10002AE06402702190055FF0900636E030E025
:101A20000554FEF08011E4FF1256AE7F021256AE4E
:101A3000900636E04401F0900829E0FC6408702D1F
:101A400090082AE064027025900636E020E01E909F
:101A5000055F7402F0900632E0FE7D0020E0027D1A
:101A600001ED5401FDEE54FE4D900632F0EC64049D
:101A7000705C90082AE064027054900636E020E022
:101A80004D900638E030E01C900634E020E03F90B6
:101A9000062EE020E03890062CE020E03190062A67
:101AA000E020E02A90055F7402F0900630E0FF7EAF
:101AB0000020E0027E01EE5401FDEF54FE4D900641
:101AC00030F0EE5401FF90061CE054FE4FF09008F9
:101AD00029E06401705C90082AE06402705490066A
:101AE00036E020E04D900638E030E01C900630E013
:101AF00020E03F90062EE020E03890062CE020E029
:101B00003190062AE020E02A90055F7402F09006EA
:101B100034E0FF7E0020E0027E01EE5401FDEF5430
:101B2000FE4D900634F0EE5401FF900628E054FE7E
:101B30004FF0900829E0FB6406705C90082AE0648E
:101B4000027054900636E020E04D900638E030E018
:101B50001C900630E020E03F900634E020E0389012
:101B6000062CE020E03190062AE020E02A90055F74
:101B70007402F090062EE0FE7D0020E0027D01ED73
:101B80005401FCEE54FE4C90062EF0ED5401FF90F3
:101B9000061EE054FE4FF0EB6403705C90082AE0F0
:101BA00064027054900636E020E04D900638E03034
:101BB000E01C900630E020E03F900634E020E03862
:101BC00090062EE020E03190062AE020E02A9005E1
:101BD0005F7402F090062CE0FF7E0020E0027E01A0
:101BE000EE5401FDEF54FE4D90062CF0EE5401FF33
:101BF000900624E054FE4FF0900829E06407705CE2
:101C000090082AE064027054900636E020E04D907F
:101C10000638E030E01C900630E020E03F900634CB
:101C2000E020E03890062EE020E03190062CE02005
:101C3000E02A90055F7402F090062AE0FF7E002003
:101C4000E0027E01EE5401FDEF54FE4D90062AF0B5
:101C5000EE5401FF900626E054FE4FF0900829E074
:101C60006405703690082AE06402702E900636E013
:101C700020E02790055F7402F0900638E013B392DD
:101C800006E4FF1256AE7F021256AEA206E43354AB
:101C900001FF900638E054FE4FF02290030DE0540F
:101CA000DFF090030CE0FEA3E07806CEC313CE1362
:101CB000D8F95401FF900638E054FE4FF0900636F4
:101CC000E04401F090081CE0FEA3E07803CEC313CB
:101CD000CE13D8F95401FD90030CE0FEA3E0FFEE13
:101CE000C313EF135401FFEF5D7F0070027F01EF1C
:101CF0005401FF900632E054FE4FF090055BE0FC8B
:101D000064036003021EB6900005E0146073147053
:101D100003021DDD147003021E67147003021E12FD
:101D200024046003021E949003A6E0FEC394049072
:101D30000634E050054401F0800354FEF090062E76
:101D4000E054FEF0900630E054FEF0EEC3940550EF
:101D50001D90030CE0FEA3E07803CEC313CE13D88E
:101D6000F95401FF90062CE054FE4FF080079006D6
:101D70002CE054FEF09003A6E0C39406505C021ED3
:101D8000439003A6E0FEC3940490062EE050054461
:101D900001F0800354FEF0900634E054FEF090060B
:101DA00030E054FEF0EEC39405501D90030CE0FEAD
:101DB000A3E07803CEC313CE13D8F95401FF9006E5
:101DC0002CE054FE4FF0800790062CE054FEF0907B
:101DD00003A6E0C3940650028069021E6290062E9C
:101DE000E054FEF0900634E054FEF0900630E054EB
:101DF000FEF09003A6E0FFC3940590062CE050058A
:101E00004401F0800354FEF0EFC394065002803387
:101E1000805090062CE054FEF090062EE054FEF028
:101E2000900634E054FEF09003A6E0FFC3940490C3
:101E30000630E050054401F0800354FEF0EFC394F7
:101E400006501F90030CE0FEA3E0FFEEC4F854F030
:101E5000C8EFC4540F485401FF90062AE054FE4FC7
:101E6000F02290062A804C90062CE054FEF090065A
:101E70002EE054FEF0900634E054FEF0900630E080
:101E800054FEF09003A6E0C3940690062AE050505A
:101E90004401F02290062AE054FEF090062CE05413
:101EA000FEF090062EE054FEF0900634E054FEF072
:101EB000900630E0802A90062CE054FEF090062E2A
:101EC000E054FEF0900634E054FEF0EC90062AB4A4
:101ED0000606E04401F08004E054FEF0900630E095
:101EE00054FEF02290063BE09059859390063AF01C
:101EF000E05401FF9005F2E054FE4FF090063AE006
:101F00005402C313FF9005F4E054FE4FF090063ADC
:101F1000E054041313543FFF9005F6E054FE4FF0D5
:101F200090063AE05408131313541FFF9005F8E08D
:101F300054FE4FF090063AE05410C4540FFF900541
:101F4000FAE054FE4FF090063AE05420C4135407D0
:101F5000FF9005FCE054FE4FF090063AE05440C478
:101F600013135403FF9005FEE054FE4FF090063C1F
:101F7000E09059859390063AF0E05401FF900600F6
:101F8000E054FE4FF090063AE05402C313FF90066F
:101F900002E054FE4FF090063AE054041313543F0D
:101FA000FF900604E054FE4FF090063AE054081308
:101FB0001313541FFF900606E054FE4FF090063AAC
:101FC000E05410C4540FFF900608E054FE4FF09008
:101FD000063AE05420C4135407FF90060AE054FE6A
:101FE0004FF090063AE05440C413135403FF900698
:101FF0000CE054FE4FF090063DE09059859390061A
:102000003AF0E05401FF90060EE054FE4FF09006C7
:102010003AE05402C313FF900610E054FE4FF090D4
:10202000063AE054041313543FFF900612E054FEA6
:102030004FF090063AE05408131313541FFF900614
:1020400014E054FE4FF090063AE05410C4540FFFD1
:10205000900616E054FE4FF090063AE05420C41368
:102060005407FF900618E054FE4FF090063AE054F3
:1020700040C413135403FF90061AE054FE4FF0E4DB
:10208000FFEF25E024F2F582E43405F583E030E04B
:1020900032EF25E024F2F582E43405F583E0C31342
:1020A000547F2400F582E43420F583C083C082E0AD
:1020B000FEEF25E024F3F582E43405F583E0FDEE40
:1020C0004D8031EF25E024F2F582E43405F583E01C
:1020D000C313547F2400F582E43420F583C083C009
:1020E00082E0FEEF25E024F3F582E43405F583E099
:1020F000F4FDEE5DD082D083F00FEF642470822275
:1021000090030CE020E007E020E2030222E630002A
:102110000B7B017A0779907D20125903900792E09A
:1021200064A060030221F7A3E064B060030221F71A
:102130001254DD40030221F7900790E090078FF0E2
:10214000E0FF13131354017E0054017803C333CE10
:1021500033CED8F9FF90030CE0FCA3E054F7FDEC7C
:102160004EFEED4FFF90030CEEF0A3EFF090078FC3
:10217000E0C45401C4F8540FC868FFE4C454F048E4
:10218000FE90030CE0FCA3E054EFFDEC4EFEED4F9F
:10219000FF90030CEEF0A3EFF090078FE0FFC41365
:1021A0001354017E0054017806C333CE33CED8F9E0
:1021B000FF90030CE0FCA3E054BFFDEC4EFEED4F9E
:1021C000FF90030CEEF0A3EFF090030DE054DFF06E
:1021D000900791E09000E5F090055B7408F09003A3
:1021E0000DE054FEF0E054FDF090030CE054F7F0E5
:1021F000E054FEF00222E290030CE020E003022211
:10220000A8900790E090078FF0E0FF13131354019C
:102210007E0054017803C333CE33CED8F9FF900348
:102220000CE0FCA3E054F7FDEC4EFEED4FFF9003F5
:102230000CEEF0A3EFF090078FE0C45401C4F85403
:102240000FC868FFE4C454F048FE90030CE0FCA300
:10225000E054EFFDEC4EFEED4FFF90030CEEF0A3CB
:10226000EFF090078FE0FFC4131354017E00540178
:102270007806C333CE33CED8F9FF90030CE0FCA32D
:10228000E054BFFDEC4EFEED4FFF90030CEEF0A3CB
:10229000EFF090030DE054DFF0900791E09000E53F
:1022A000F090030CE054FEF090030CE030E2379025
:1022B000055B7408F09000E57401F090030DE044B4
:1022C00008F0E04410F090000F74FFF0A37426F0C3
:1022D000A37443F090030DE04440F0E054DFF0902D
:1022E000030CE054FBF0229007DCEFF09007FBE0DA
:1022F000C39403748094804051E4F09006FAE07037
:102300003E9007DDF09007DDE0C3951A5031E0FF05
:1023100075F002A424E2F582E5F03406F583E0FCD2
:10232000A3E0FD75F002EFA4247CF582E5F034060D
:10233000F583ECF0A3EDF09007DDE004F080C61229
:10234000448EC204E49006FAF0229007F5E004F00F
:102350009007DCE0FF9007F5E0B507081250B3E402
:102360009007F6F09007DCE0FF9007F5E0D39F5070
:10237000030224A2E49007DDF09007DDE0C3951A84
:10238000400302244EE0FF75F002A424E2F582E54A
:10239000F03406F583E0FCA3E0FD75F002EFA42421
:1023A0009CF582E5F03406F583E0FEA3E0C39DFFD3
:1023B000EE9CAD07FC9006FAE070429006E1E0FB6F
:1023C0003395E0FAFEEB7802C333CE33CED8F9FF73
:1023D000D3ED9FEE6480F8EC6480984060E49BFF4E
:1023E000E49AFEEF7802C333CE33CED8F9FFC3EDC3
:1023F0009FEE6480F8EC648098504280519006E132
:10240000E0FB3395E0FAFEEB7803C333CE33CED84E
:10241000F9FFD3ED9FEE6480F8EC648098401EE4F1
:102420009BFFE49AFEEF7803C333CE33CED8F9FF97
:10243000C3ED9FEE6480F8EC64809840119007DD56
:10244000E0FF1224A39007DDE004F0022379900757
:10245000DDE0B51A069007F6E004F09007DCE0FD39
:1024600075F008A4FF9007F5E0C39FE5F06480F8DD
:10247000748098402DE4F0C2039007FBE004F0ED77
:1024800075F004A4FF9007F6E0C39FE5F06480F8C0
:10249000748098400DE49007FBF012507F12448E38
:1024A000C204229007E0EFF0F9E0FF75F002A424E7
:1024B000E2F582E5F03406F583E0FCA3E0FD75F07B
:1024C00002EFA4249CF582E5F03406F583E0FEA338
:1024D000E0C39DFFEE9C9007E1F0A3EFF0AF011287
:1024E0005325AD07AC069007E1E0FEA3E0FFD39DC6
:1024F000EC6480F8EE6480985014C3E49DFBE49C87
:10250000FAC3EF9BEA6480F8EE648098502F90073E
:10251000E0E0FF75F002A4249CF582E5F03406F5B6
:1025200083E0FCA3E0FD75F002EFA424E2F582E570
:10253000F03406F583ECF0A3EDF0022616ECA2E7EA
:1025400013FEED13FF9007E1E0FAA3E0FBD39FEE4B
:102550006480F8EA648098501CECA2E713FEED1347
:10256000FFC3E49FFFE49EFEC3EB9FEE6480F8EAA6
:10257000648098503E9007E0E0FD75F002A424E2EC
:10258000F582E5F03406F583E0FAA3E0FBEAC31335
:10259000FEEB13FFC3EB9FFBEA9EFA75F002EDA47E
:1025A000249CF582E5F03406F583E0C313FEA3E036
:1025B0001380479007E0E0FD75F002A424E2F58265
:1025C000E5F03406F583E0FAA3E0FBAE027803CE33
:1025D000C313CE13D8F9FFC3EB9FFBEA9EFA75F045
:1025E00002EDA4249CF582E5F03406F583E0FEA319
:1025F000E07803CEC313CE13D8F92BFFEA3EFE904A
:1026000007E0E075F002A424E2F582E5F03406F577
:1026100083EEF0A3EFF09007E0E0FF75F002A42452
:10262000E2F582E5F03406F583E0FCA3E0FD75F009
:1026300002EFA4249CF582E5F03406F583ECF0A3C8
:10264000EDF022E49000F9F0A3F09005A1E054FE33
:10265000F0E4900001F0A3F0900015E004F0900089
:1026600005E075F003A424D6F582E43400F583E098
:10267000FBA3E0FAA3E0F9900015E075F007A4FFD2
:10268000E92FF9EA35F0FA78DC7C077D017E007FDE
:10269000071211477B017A0779DC12517D50B9127C
:1026A00051AE50B49007DCE020E70302275B9003B3
:1026B00056E0FEA3E0FF90000DE0FCA3E0FD9FECE0
:1026C0009E500302274DED9FFFEC9EAB07FA900052
:1026D00019E0FF7E009007E3EEF0A3EFF02401FF86
:1026E000EE33FE7C007D3C1211E79007E3EEF0A391
:1026F000EFF0900003E0F92BFFE43AFED39007E4FB
:10270000E09F9007E3E09E403EE9AC02AD032DFF61
:10271000E43CFEC3A3E09FF09007E3E09EF0E0FA04
:10272000A3E0FB7C007D3CFFAE021211F990001982
:10273000EFF07C007D3CAF03AE021211F9C3743C94
:102740009D900003F080069000197401F0E490035E
:1027500056F0A3F090030AE054F7F09003A6E0FFD0
:102760009007DCE05407FEB5070660046406703A83
:10277000E490021FF0A3F0900309E054FDF0A3E001
:1027800054EFF0E054FDF0900309E054FEF0E490C3
:1027900000FDF0A3F0900004F09005A1E04402F0E9
:1027A000E4900308F09003A6EEF0E490004FF0A34D
:1027B000F0900016F0A3F09007DDE090001BF09081
:1027C00007DFE0FFA3E0900012CFF0A3EFF0900747
:1027D000E1E0FFA3E090000DCFF0A3EFF022900620
:1027E00036E020E007900632E030E01CE49005A2DD
:1027F000F0F09005A1E054FEF0E49000FBF0A3F0AF
:102800009005A1E04402F022900638E020E00302A7
:1028100028FAE49005A2F0F09005A1E054FEF0E45F
:102820009000FBF0A3F0900630E030E0279000FB32
:10283000741CF0A374A8F0D39005ABE094A89005A5
:10284000AAE0941C500E9005A1E04401F09005A967
:10285000E04402F0900634E030E01D9005A1E04431
:1028600001F09005A9E04402F09005A2E04402F0D6
:1028700074FF9000FBF0A3F090062EE030E01E9075
:1028800005A9E04401F09005F1E0D3942D500E909D
:1028900005A7E020E0079005A2E04401F090062C97
:1028A000E030E0279000FB7408F0A374F4F0D390BC
:1028B00005ABE094F49005AAE09408500E9005A1B1
:1028C000E04401F09005A9E04402F090062AE020DF
:1028D000E0030229609005A9E04410F0C39005AD23
:1028E000E094329005ACE0940040759005A2E0447D
:1028F00004F09005A9E04480F022900630E05401F5
:10290000FD9005A1E054FE4DF0ED540125E0FF904F
:1029100005A9E054FD4FF074FF9000FBF0A3F09088
:102920000634E0540125E0FF9005A2E054FD4FF08D
:1029300090062EE05401FF9005A9E054FE4FF09060
:10294000062CE05401FF9005A2E054FE4FF09006E3
:102950002AE05401C454F0FF9005A9E054EF4FF071
:10296000229005B3E0540F24FE602F24FE70030272
:102970002AAE24036003022ACA9005B4E09005EE53
:10298000F09005B5E09005A4F09005B6E09005A59F
:10299000F09005B7E09005A6F0229005B4E0900510
:1029A000A8F09005B5E09005AEF09005B6E0900572
:1029B000A3F0E05404FF9005EDE054FB4FF09005C8
:1029C000A3E05408FF9005EDE054F74FF09005A305
:1029D000E05410FF9005EDE054EF4FF09005A3E0B8
:1029E0005420FF9005A1E054DF4FF09005A3E05480
:1029F00040FF9005A1E054BF4FF09005A3E0548044
:102A0000FF9005A1E0547F4FF09005B7E09005A33B
:102A1000F0E05401FF9005A7E054FE4FF09005A3AD
:102A2000E05402FF9005A7E054FD4FF09005A3E0AD
:102A30005404FF9005A7E054FB4FF09005B8E090D8
:102A400005F1F09005B9E0FEA3E07C002400FFEC66
:102A50003E90059FF0A3EFF09005BBE0FEA3E024BD
:102A600000FFEC3E9005EBF0A3EFF09005BDE0FE1B
:102A7000A3E02400FFEC3E9005AAF0A3EFF0900540
:102A8000BFE0FEA3E02400FFEC3E9005EFF0A3EFD3
:102A9000F09005B2E0D3941340379005C1E0FEA357
:102AA000E02400FFEC3E9005ACF0A3EFF02290058F
:102AB000EDE054FDF0900816E020E01590055F74FD
:102AC00001F0900816E04401F0229005EDE054FD7D
:102AD000F0227F01125638EF60339005EDE044019B
:102AE000F09005AFE0B4AA0DA3E0B45508A3E0B49C
:102AF0004003122961E490055CF07B017A0579AF0F
:102B00009007E1F0A3741EF07F0112545AE4FF1203
:102B10005638EF60409005EDE020E121900816E086
:102B200020E01A90055F7401F0E4900815F0A3F01E
:102B3000900816E04401F0900813740AF0E4900540
:102B40005DF07B017A0579CD9007E1F0A3741EF06A
:102B5000E4FF12545A90081CE0FEA3E07802CEC3B2
:102B600013CE13D8F95401FD90081CE0131354013F
:102B70006D7001E47003022C23A3E05404FE90085E
:102B80001CE054FBFCA3E0FDEC4EFFED90081CCFD5
:102B9000F0A3EFF090055EE004F0C394024005E47A
:102BA000F01231B4900816E020E0099000E6E0D37E
:102BB0009400403F12498090055DE004F0D3941EDC
:102BC0004031900816E030E00B9005EDE054FEF047
:102BD000E054FDF0900816E054FEF0E490055DF03E
:102BE0007B017A0579CD9007E1F0A3741EF0E4FF34
:102BF00012545A90055CE004F0D3941E4025E4F092
:102C00009005EDE054FEF0E054FDF0E04408F07B68
:102C1000017A0579AF9007E1E4F0A3741EF07F011B
:102C200012545A2290030DE054DFF090030CE0FEA2
:102C3000A3E07806CEC313CE13D8F95401FF900653
:102C400038E054FE4FF0900005E0FD14603224FDA2
:102C5000606024046003022CE6900634E04401F036
:102C600090062EE054FEF0900630E054FEF0900303
:102C70000CE0FEA3E07803CEC313CE13D8F9802571
:102C8000900634E054FEF090062EE04401F09006E9
:102C900030E054FEF090030CE0FEA3E07803CEC3D6
:102CA00013CE13D8F95401FF90062CE054FE4FF0D8
:102CB000805B90062CE054FEF090062EE054FEF06F
:102CC000900634E054FEF090030CE0C4F854F0C8D1
:102CD000A3E0C4540F485401FF90062AE054FE4F6D
:102CE000F0900630805A900634E054FEF090062EA4
:102CF000E054FEF0900630E054FEF090030DE0202A
:102D0000E304EDB4022290062CE04401F090030CA1
:102D1000E0C4F854F0C8A3E0C4540F485401FF9035
:102D2000062AE054FE4FF02290030DE020E40790C5
:102D30000005E0B4030F90062CE054FEF090062A44
:102D4000E04401F02290062AE054FEF090062CE0C8
:102D500054FEF02290081DE04401F0900817E004B2
:102D6000F0C3940A4032E4F090081CE013A3E0138F
:102D70007F0020E0027F01EF540125E0FFE433FEF5
:102D800090081CE0FCA3E054FDFDEC4EFEED4FFF6F
:102D900090081CEEF0A3EFF0900818E004F0C39444
:102DA000645003022E7CE4F090081CE0FEA3E0785F
:102DB00002CEC313CE13D8F97F0020E0027F017E3C
:102DC00000EF54017802C333CE33CED8F9FF900818
:102DD0001CE0FCA3E054FBFDEC4EFEED4FFF900821
:102DE0001CEEF0A3EFF0900819E004F0C394054046
:102DF00040E4F090081CE0FEA3E07803CEC313CEBD
:102E000013D8F97F0020E0027F017E00EF540178A3
:102E100003C333CE33CED8F9FF90081CE0FCA3E007
:102E200054F7FDEC4EFEED4FFF90081CEEF0A3EFC3
:102E3000F090081AE004F0C3940A4040E4F09008CF
:102E40001CE0C4F854F0C8A3E0C4540F487F00202D
:102E5000E0027F01EF5401C4F8540FC868FFE4C4D6
:102E600054F048FE90081CE0FCA3E054EFFDEC4E4B
:102E7000FEED4FFF90081CEEF0A3EFF022E4F50901
:102E8000F511F510F50FF50E1258FD5003022F8BBA
:102E90001252408F0D8E0C8D0B8C0AE4F508E5085C
:102EA000C3951A5049AF0DAE0CAD0BAC0A780112A8
:102EB00012D08F0D8E0C8D0B8C0A30D72DE47F0134
:102EC000FEFDFC74942508F582E43406F583E0F9F0
:102ED000F81212E3E5114FF511E5104EF510E50F6C
:102EE0004DF50FE50E4CF50E0509050880B0E50916
:102EF000C394024015D203E509940340051259001A
:102F00008008125892EF6002C20320032CE4FFFEF7
:102F1000FDFCAB11AA10A90FA80EC31212BF6010BE
:102F20009006E0E004F070069006DFE004F08020F8
:102F3000E49006DFF0A3F080179006DDE004F07067
:102F4000069006DCE004F0E4F511F510F50FF50E3F
:102F5000125809C39006E0E09F9006DFE09E400A09
:102F6000125900E49006DFF0A3F0D39006DDE09460
:102F70002C9006DCE09401401D1259009006FA7472
:102F800001F0E49006DCF0A3F0800B905930E4747B
:102F90000193FF1222E7AF11AE10AD0FAC0E2290DD
:102FA00005A1E054FEF0E04402F0E054FBF0E490B0
:102FB000004FF0A3F0900016F0A3F0900004F09002
:102FC0000003F09005A7E054EFF0E4900767F0905D
:102FD000001DF0A3F090001AF09000FFF090030B9A
:102FE000F0900019F09000F9F0A3F0900001F0A328
:102FF000F090021FF0A3F090000DF0A3F0900356A4
:10300000F0A3F0900018F09000FDF0A3F0900308FA
:10301000F0A3E054FEF0A3E054FDF0E054EFF09094
:103020000309E054FDF0A3E054F7F0E054FBF0E4B2
:103030009003A6F0900012F0A3F090001BF0900512
:103040005F7405F090030DE054FBF0E4900814F079
:1030500090030DE054FEF0E054FDF0900005E09088
:1030600000E5F090000F74FFF0A37426F0A3744302
:10307000F090001574FFF090030AE090055B30E5D6
:103080000F7406F090030AE054DFF01258A2800398
:103090007405F090030CE04402F09004257402F0F3
:1030A00090001C74FFF090000CF0E4900358F022A4
:1030B0009007E0EBF0A3EAF0A3E9F09007E0E0FB73
:1030C000A3E0FAA3E0F94A70030231B312116DFFD5
:1030D00075F009A4243AF582E43407F583EFF09003
:1030E0000001121186FF12116DFE75F009A4243B38
:1030F000F582E43407F583EFF090000212127AFDB6
:10310000ACF0EE75F009A4243CF582E43407F583B5
:10311000ECF0A3EDF0900004121186FF12116DFE89
:1031200075F009A4243EF582E43407F583EFF090AE
:103130000005121186FFEE75F009A4243FF582E424
:103140003407F583EFF07B00EE75F009A42440F519
:1031500082E43407F583EBF0A3F0A3F0EE14601BD8
:1031600014602614603114603C240470469007E01B
:10317000E0FBA3E0FAA3E0F9023C989007E0E0FB53
:10318000A3E0FAA3E0F9023D2E9007E0E0FBA3E004
:10319000FAA3E0F9023B689007E0E0FBA3E0FAA3A2
:1031A000E0F90238FA9007E0E0FBA3E0FAA3E0F9C7
:1031B0001239972290056074A5F0A3745AF0A37495
:1031C00004F09005B3E0FDC454F0900564F0900560
:1031D000EDE030E160900563740DF0A3E0440AF087
:1031E0009005EDE030E30AE054F7F090055F74FFDE
:1031F000F09005A2E0900565F09005A9E0900566C5
:10320000F090055FE0900567F09005A1E0541F90F5
:103210000568F09000FBE0FEA3E0900569F0EEA3E6
:10322000F0900822E054F0FF90081FE0540F4F90F8
:10323000056BF08044900563740AF0A3E04409F044
:10324000A37402F0E490057EF0A37468F0E4A3F0A8
:1032500090057EE0900566F090057FE0900567F0B0
:10326000E4A3F0EDC4540FFFBF090E9005B1E0B424
:1032700040079005EDE04402F01254FD900563E034
:10328000245FF582E43405F583EFF07B017A05795C
:1032900060900563E0FF9007E0E4F0A3EFF07F01AA
:1032A000025438900814E075F00A84AFF090063D9F
:1032B000EFF090063CF090063BF090080FE0C3134F
:1032C000A3E0135401FF900634E054FE4FF0900841
:1032D0000FE0FEA3E07802CEC313CE13D8F9540159
:1032E000FF900636E054FE4FF090080FE0FEA3E09A
:1032F0007803CEC313CE13D8F95401FF90062CE007
:1033000054FE4FF090080FE0C4F854F0C8A3E0C496
:10331000540F485401FF900630E054FE4FF09008DF
:103320000FE0FEA3E07805CEC313CE13D8F9540105
:10333000FF900638E054FE4FF090080FE0FEA3E047
:103340007806CEC313CE13D8F95401FF90062EE0B1
:1033500054FE4FF090080FE0FEA3E07807CEC313B1
:10336000CE13D8F95401FF90062AE054FE4FF09096
:10337000080FE05401FF900632E054FE4FF022C0E7
:10338000E0C0F0C083C082C0D075D000C000C001D2
:10339000C002C003C004C005C006C007E59530E107
:1033A0003F439502D3900712E09400900711E094F8
:1033B00000402A900729E0FBA3E0FAA3E0F91211EC
:1033C0006DF59F90072AE475F00112124E900712D6
:1033D000E024FFF0900711E034FFF080031258B0B2
:1033E000E59530E05743950190070BE0FEA3E0FF21
:1033F000D3900706E09F900705E09E403F9007208E
:10340000E0FBA3E0FAA3E0F9E59F1211B3900721D6
:10341000E475F00112124E90070CE004F070069073
:10342000070BE004F090070BE0FEA3E0FF90070518
:10343000E0B50608A3E0B50703125840D007D00650
:10344000D005D004D003D002D001D000D0D0D0829B
:10345000D083D0F0D0E03290030DE020E6030235B7
:103460001C9005EDE030E035E030E431900820E4D8
:1034700075F00112124EFEC3E5F09470EE94174001
:103480000D9008207417F0A37470F00235129008A4
:103490001F740FF090030DE030E174805BE490083E
:1034A00020F0A3F090055BE024FC60391460431425
:1034B000604D146052240470599003A6E024FB6010
:1034C0000B04701090081F740DF0800E90081F748C
:1034D00007F0800690081F740EF090030DE030E1B5
:1034E000028015802A90081F7401F0900822741041
:1034F000F02290081F7404F09008227460F022906B
:10350000081F7402F08008900823E090081FF0E480
:103510008005E490081FF0900822F022E490081F34
:10352000F0900822F0900820F0A3F022C0E0C0F054
:10353000C083C082C0D075D000C000C001C002C02E
:1035400003C004C005C006C00730993EC299D3909D
:10355000071CE0940090071BE09400402A90073677
:10356000E0FBA3E0FAA3E0F912116DF5999007379B
:10357000E475F00112124E90071CE024FFF0900752
:103580001BE034FFF080031258AA309856C298907E
:103590000719E0FEA3E0FFD3900714E09F90071304
:1035A000E09E403F900733E0FBA3E0FAA3E0F9E59B
:1035B000991211B3900734E475F00112124E90077E
:1035C0001AE004F07006900719E004F0900719E083
:1035D000FEA3E0FF900713E0B50608A3E0B50703DC
:1035E00012585ED007D006D005D004D003D002D048
:1035F00001D000D0D0D082D083D0F0D0E03290087B
:103600002DE0FF900829E06F6032EF701BC3900837
:103610002CE0940290082BE09400400C90082AE0E3
:10362000B405051255E7800C90082DE0900829F0AC
:10363000A37405F0E490082BF0A3F02290082DE08D
:10364000700B90082BF0A3F090082AF02290082C21
:10365000E004F0700690082BE004F090082BE0FEE8
:10366000A3E0FF64324E701B900829E0B40214906E
:10367000055BE0FD6403600BED6404600690082ABE
:103680007403F0C3EF942CEE9401401390082AE0E9
:10369000B40103D38001C3400690082A7403F0C329
:1036A00090082CE094F490082BE09401401A7401E7
:1036B000F0A374F4F090082AE0B40103D38001C3AE
:1036C000400690082A7404F02290081CE0FEA3E053
:1036D0007803CEC313CE13D8F913B392059005A186
:1036E000E030E211A205E4335401FF900628E054D3
:1036F000FE4FF08007900628E054FEF090061CE094
:1037000054FEF09005A1E030E011A205E43354012D
:10371000FF90061CE054FE4FF0800790061CE0541A
:10372000FEF09003A6E0FF64016009EF640260040C
:10373000EFB40311A205E4335401FF90061EE054D8
:10374000FE4FF0800790061EE054FEF09003A6E0C6
:10375000FCB40411A205E4335401FE900624E054A5
:10376000FE4EF08007900624E054FEF0ECB4051005
:10377000A205E4335401FF900626E054FE4FF022E8
:1037800090055BE0900626B40605E04401F022E0D7
:1037900054FEF0229007E6EFF01257D79007E7EFBC
:1037A000F09007E6E0FF12573CEFFB9007F8E025AA
:1037B000E0FF9007F7E033FE7C007D0A1211F9ADBF
:1037C000037C001211E79007E6E0FD75F002A424E7
:1037D0007CF582E5F03406F583E0FAA3E0C39FEAC6
:1037E0009E50099007E7E0605F14804D9007E6E087
:1037F000FF12573CEFFB9007F7E0FEA3E0FF7C00D1
:103800007D071211E77D0A1211F9AD037C00121138
:10381000E79007E6E0FD75F002A4247CF582E5F070
:103820003406F583E0FAA3E0D39FEA9E401A90079E
:10383000E7E0FF647E6011EF04FF74D42DF582E4AD
:103840003406F583EFF0D2042290030DE020E22944
:103850001249CE501812553BE4335401C43333336C
:103860005480FF9005A9E0547F4FF08008124EB6B7
:1038700050079005A9E04410F09005A2E04402F042
:10388000900012E0FEA3E0FF4E6009900309E030D3
:10389000E15B80349005EFE07002A3E060079005E3
:1038A000A1E04402F074FF9000FBF0A3F09005A1AA
:1038B000E04401F09005A9E04402F012416F500B82
:1038C00090000DE0FEA3E0FF0244FD90000EE02416
:1038D0005AFF90000DE03400FEC39000FAE09F9084
:1038E00000F9E09E4013900309E04402F090000FBD
:1038F000A3E0FAA3E0F912136D229007E3EBF0A323
:10390000EAF0A3E9F09007E3E0FBA3E0FAA3E0F913
:103910004A700302399675CE039000041211864254
:10392000C890000112118642C990000212127AAEAC
:10393000F0FBE4C39BFFE49EFE74019400FDE4945D
:1039400000FCE4FB7A01F9F8124D33AF038FCA9003
:1039500007E3E0FBA3E0FAA3E0F990000212127A79
:10396000AEF0FBE4C39BFFE49EFE74019400FDE413
:103970009400FCE4FB7A01F9F8124D338FCB9007E9
:10398000E3E0FBA3E0FAA3E0F99000051211864200
:10399000B953A9BFC2CA229007E3EBF0A3EAF0A390
:1039A000E9F09007E3E0FBA3E0FAA3E0F94A700333
:1039B000023A3375CE0490000412118642C890007A
:1039C0000112118642C990000212127AAEF0FBE495
:1039D000C39BFFE49EFE74019400FDE49400FCE4AC
:1039E000FB7A01F9F8124D33AF038FCA9007E3E079
:1039F000FBA3E0FAA3E0F990000212127AAEF0FB0A
:103A0000E4C39BFFE49EFE74019400FDE49400FC7B
:103A1000E4FB7A01F9F8124D338FCB9007E3E0FB1A
:103A2000A3E0FAA3E0F990000512118642B953A968
:103A30007FC2CA2278FFE4F6D8FD9000007FFF7EA7
:103A400010E4F0A3DFFCDEFA758120023A89024619
:103A500013E493A3F8E493A34003F68001F208DF94
:103A6000F48029E493A3F85407240CC8C333C45446
:103A70000F4420C8834004F456800146F6DFE480FA
:103A80000B0102040810204080900100E47E0193A5
:103A900060BCA3FF543F30E509541FFEE493A360CC
:103AA000010ECF54C025E060A840B8E493A3FAE427
:103AB00093A3F8E493A3C8C582C8CAC583CAF0A378
:103AC000C8C582C8CAC583CADFE9DEE780BEAB07C6
:103AD000AA067C037DE81211F9EF4E603690081DAE
:103AE000E030E32F90063B740EF07C277D10AF038F
:103AF000AE021211F990063CEFF07C037DE8AF03B3
:103B0000AE021211F97C007D0A1211F990063DED0A
:103B1000F080507C007D64AF03AE021211F97C008E
:103B20007D0A1211F990063BEDF07C007D0AAF038F
:103B3000AE021211F97C007D0A1211F990063CEDDB
:103B4000F0AE02AF037C007D0A1211F990063DED44
:103B5000F090063BE0700C740AF090063CE07003B5
:103B6000740AF0C2000256509007E3EBF0A3EAF0AB
:103B7000A3E9F09007E3E0FBA3E0FAA3E0F94A60D1
:103B80007F75CE0290000412118642C89000011287
:103B9000118642C990000212127AAEF0FBE4C39B78
:103BA000FFE49EFE74019400FDE49400FCE4FB7AC3
:103BB00001F9F8124D33AF038FCA9007E3E0FBA37E
:103BC000E0FAA3E0F990000212127AAEF0FBE4C32F
:103BD0009BFFE49EFE74019400FDE49400FCE4FB72
:103BE0007A01F9F8124D338FCB9007E3E0FBA3E0A5
:103BF000FAA3E0F990000512118642B8C2ADC2CA1C
:103C00002275FE8543FF2053DB7FD2AFC204E490D0
:103C100007FCF09006DEF0124A1CE4FF12511AEF86
:103C20002401FDE433FC7E0F7FA01211F99007F709
:103C3000EEF0A3EFF0E4FF12573C7E009007F7E0B0
:103C4000FCA3E0FD1211E78EE78FE67F0212511A06
:103C5000EFC454F0FEC006E4FF12511AD0E02FF575
:103C6000E17F0312511AE5E254804FF5E27F04121E
:103C7000511AEF6008E5E254804480F5E27F0112BA
:103C8000511A8FE312448E43A910900694E04480A9
:103C9000F5E8123F7302507F9007E3EBF0A3EAF0E0
:103CA000A3E9F09007E3E0FBA3E0FAA3E0F94A60A0
:103CB0007C900004121186428E90000112118642FF
:103CC0008990000212127AAEF0FBE4C39BFFE49EDF
:103CD000FE74019400FDE49400FCE4FB7A01F9F821
:103CE000124D33AF038F8A9007E3E0FBA3E0FAA302
:103CF000E0F990000212127AAEF0FBE4C39BFFE4FD
:103D00009EFE74019400FDE49400FCE4FB7A01F94A
:103D1000F8124D338F8C9007E3E0FBA3E0FAA3E0A9
:103D2000F990000512118642B8C2A9C28C229007F0
:103D3000E3EBF0A3EAF0A3E9F09007E3E0FBA3E0F4
:103D4000FAA3E0F94A607C900004121186428E903A
:103D50000001121186428990000212127AAEF0FB25
:103D6000E4C39BFFE49EFE74019400FDE49400FC18
:103D7000E4FB7A01F9F8124D33AF038F8B9007E320
:103D8000E0FBA3E0FAA3E0F990000212127AAEF091
:103D9000FBE4C39BFFE49EFE74019400FDE49400E9
:103DA000FCE4FB7A01F9F8124D338F8D9007E3E0C4
:103DB000FBA3E0FAA3E0F990000512118642B8C215
:103DC000ABC28E22C0E0C0F0C083C082C0D075D02C
:103DD00000C000C001C002C003C004C005C006C0CE
:103DE0000790073CE0FEA3E0FBAA06E4C39BFFE4C8
:103DF0009EFE74019400FDE49400FCE4FB7A01F95A
:103E0000F8124D33AF038F8A90073CE0FEA3E0FB2E
:103E1000AA06E4C39BFFE49EFE74019400FDE494B3
:103E200000FCE4FB7A01F9F8124D338F8C900740C7
:103E3000A3E0FAA3E0F912136DD007D006D005D0A5
:103E400004D003D002D001D000D0D0D082D083D013
:103E5000F0D0E032C0E0C0F0C083C082C0D075D0E6
:103E600000C000C001C002C003C004C005C006C03D
:103E700007900745E0FEA3E0FBAA06E4C39BFFE42E
:103E80009EFE74019400FDE49400FCE4FB7A01F9C9
:103E9000F8124D33AF038F8B900745E0FEA3E0FB94
:103EA000AA06E4C39BFFE49EFE74019400FDE49423
:103EB00000FCE4FB7A01F9F8124D338F8D9007492D
:103EC000A3E0FAA3E0F912136DD007D006D005D015
:103ED00004D003D002D001D000D0D0D082D083D083
:103EE000F0D0E032C2AF75FEC1AFFFD2AFEF5430B9
:103EF000FD7C0070047920801CED64104C70047906
:103F0000108012ED64204C700479088008ED643054
:103F10004C70027904E924F8601824F8602024F039
:103F20006028241C70309007E07401F0A374F4F052
:103F300080269007E07403F0A374E8F0801A9007DD
:103F4000E07407F0A374D0F0800E9007E0740FF0D7
:103F5000A374A0F08002E4F99007E0E07002A3E00F
:103F600060109007E1E024FFF09007E0E034FFF0FC
:103F700080E622905984E4939007DEF01253CAE45D
:103F80009007DFF09007DFE0FFC3951A5034E0FEA2
:103F900075F002A4249CF582E5F03406F583E0FC7C
:103FA000A3E0FD75F002EEA4247CF582E5F0340672
:103FB000F583ECF0A3EDF01237949007DFE004F006
:103FC00080C29007DEE0FF14F0EF70B01250B31221
:103FD000588A9007DEEFF01253CAE49007DFF090A2
:103FE00007DFE0FFC3951A500B1224A39007DFE010
:103FF00004F080EB9007DEE0FF14F0EF70D9229020
:1040000007E3EBF0A3EAF0A3E9F0E4FDFCEF1460B2
:10401000201460331460462403705A9007E3E0FBD9
:10402000A3E0FAA3E0F9A3E0FCA3E0FD1247DA80E5
:10403000409007E3E0FBA3E0FAA3E0F9A3E0FCA3D0
:10404000E0FD124830802A9007E3E0FBA3E0FAA3EA
:10405000E0F9A3E0FCA3E0FD12488680149007E39A
:10406000E0FBA3E0FAA3E0F9A3E0FCA3E0FD124724
:1040700028AC06AD07AE04AF05229007E4EBF0A331
:10408000EAF0A3E9F0E4FDFCEF14602014603314BF
:1040900060462403705A9007E4E0FBA3E0FAA3E033
:1040A000F9A3E0FCA3E0FD124C6480409007E4E03B
:1040B000FBA3E0FAA3E0F9A3E0FCA3E0FD124BD6DA
:1040C000802A9007E4E0FBA3E0FAA3E0F9A3E0FC78
:1040D000A3E0FD124C1D80149007E4E0FBA3E0FA7E
:1040E000A3E0F9A3E0FCA3E0FD124AB3AC06AD07E0
:1040F000AE04AF05229005A1E04401F09005EFE089
:104100007002A3E060079005A1E04402F07FF47E16
:10411000081241F012416F50559005A1E054FEF095
:10412000900016E0FEA3E0FF9005AAE0FCA3E0FDEE
:104130002FFFEC3EFEC3EF942AEE9407501D900033
:1041400017E02DF0900016E03CF07F07124E3990FA
:1041500005A1E04404F0E054FEF02290030AE0449C
:1041600010F090000FA3E0FAA3E0F912136D229073
:104170000016E0FEA3E0FF9005ABE02FFF9005AA3C
:10418000E03EFED39000FCE09F9000FBE09E4015D7
:10419000900050E02405FD90004FE03400FCC3EF98
:1041A0009DEE9C400D90004FEEF0A3EFF0E49000E8
:1041B00004F090030CE030E40F900004E004F0C33E
:1041C000940A4004E4F0D322C39000FAE09478907B
:1041D00000F9E09400400F90001BE064106007E4D9
:1041E000900004F0D322C322900012E0FEA3E0FF6F
:1041F0009007DCEEF0A3EFF0900016E0FCA3E0FDEA
:104200009005ABE02DFD9005AAE03CFCC3ED9FECD2
:104210009E402690030AE054EFF09005EFE0700214
:10422000A3E060079005A1E04402F090000FA3E036
:10423000FAA3E0F912136D801490030DE09005A924
:1042400030E506E04408F08004E04402F09007DC2A
:10425000E0FFA3E09000FBCFF0A3EFF022C20290BA
:1042600007FCE075F002A4249CF582E5F03406F525
:1042700083E5E5F0A3E5E4F09007FCE004F0E0C39B
:10428000951A400BE4F09006DEE04480F08002D204
:10429000029007FCE0FF12573C7E009007F7E0FC1D
:1042A000A3E0FD1211E78EE78FE69007FCE0FF1216
:1042B00057D7E5E254804FF5E29007FCE02494F5EF
:1042C00082E43406F583E04480F5E8300202D2EE61
:1042D000229005A1E04401F09005EFE07002A3E018
:1042E00060079005A1E04402F01241E812416F50CE
:1042F00052900016E0FEA3E0FF9005ABE02FFF9088
:1043000005AAE03EFEC3EF947EEE9415400E9000A9
:104310000FA3E0FAA3E0F912136D80209005AAE044
:10432000FEA3E0FF900017E02FF0900016E03EF0B3
:104330007F07124E399005A1E04404F09005A1E0FA
:1043400054FEF022121333439700008000439F0075
:1043500001000043A300020000438F00040000435B
:104360009B001000004393002000004387004000A2
:104370000043AB00500000438B0080000043A700C7
:10438000820000000043AF7B0180267B0280227BFD
:1043900003801E7B04801A7B0580167B0680127BBF
:1043A00007800E7B08800A7B1C80067B108002E45D
:1043B000FBAF032290030DE054BFF0900636E020DF
:1043C000E06090061CE030E002800E900628E030AD
:1043D000E018900638E030E0119005AAE0FEA3E076
:1043E000FF7C037D951211F9803090061EE030E0CD
:1043F00009900638E030E0028007900624E030E0C3
:1044000003025351900626E030E012900638E03067
:10441000E00B9005ACE0FEA3E0FF023ACE7F0E1267
:10442000574E229005A9E04401F090030AE030E1E4
:1044300026900308E0FF9005F1E0C39F5045125617
:1044400068E4335401FF9005A2E054FE4FF090035E
:104450000AE054FDF0802C9005F1E0FFD3900013AA
:10446000E09F900012E09400500990030AE044029B
:10447000F08010125668E4335401FF9005A2E05416
:10448000FE4FF090000DE0FEA3E0FF0244FDE4FFCC
:10449000EFC3951A504674AC2FF582E43406F583C9
:1044A000E4F074CC2FF582E43406F583E4F074F282
:1044B0002FF582E43406F583E4F075F002EFA424CE
:1044C000BCF582E5F03406F583E4F0A3F074B42F74
:1044D000F582E43406F583E4F00F80B4E4F515F5D5
:1044E00014F513F5129007F674FFF0E49007F9F055
:1044F000A3F0C20422900012E0FEA3E0FFEF4E60A2
:1045000053C39000FAE09F9000F9E09E404690036C
:104510000DE030E20690055F7402F090001BE0B4FD
:10452000150790030AE054FBF090030AE054FEF0F4
:10453000900309E054FDF0A3E054FDF0900309E07E
:1045400054FEF0E4900308F090000FA3E0FAA3E01B
:10455000F912136D22E49007EEF09007EEE0A3F05D
:104560007F0025E0FE9007F2F0A3EFF02402FFE4C5
:104570003EFE7D021256E29007F0EFF09007F3E066
:1045800024039007F21256DB9007F1EFF09007F04A
:10459000E0B4A00BA3E0B4B0069007EFE0FF2290D8
:1045A00007EEE004F0E0D3940C40AFE4FFFE1259B4
:1045B000187F0022AD07AC069007DDE5F4F0A2AF4E
:1045C000E433A3F0AFDFA3E4F0A3EFF0C2AF75F4E0
:1045D00002ECF5F3AF058FF2AFF3EFFEADF27C0026
:1045E000E42DEC3EC39418501475F1F075F6204399
:1045F000F60200000000800500000000009007DDCA
:10460000E0F5F49007DFA3E0F5DF9007DEE024FF9C
:1046100092AF221254BDEF24FFE433540125E0256C
:10462000E0FE90030CE054FBFCA3E0FDEC4EFFED3C
:1046300090030CCFF0A3EFF0D200122100900636C9
:10464000E04401F090063D740AF090063CF09006BC
:104650003BF012590F124F2D90081DE030E0F3E0AF
:1046600054FEF01252CB1227DE12492F122AD280AA
:10467000E190081CE0C313A3E0137C005401FD90FB
:10468000081CE0FEA3E07806CEC313CE13D8F9547D
:10469000016D7001EC60357E0090081DE0540278D9
:1046A00005C333CE33CED8F9FF90081CE0FCA3E05D
:1046B00054BFFDEC4EFEED4FFF90081CEEF0A3EF53
:1046C000F0900828E090082DF01235FE229007DCCB
:1046D000EBF0A3EAF0A3E9F0A3EDF09007F4E025F6
:1046E000E09007ECF0A3E4F09007EBF09007DFE038
:1046F000FF9007EBE0FEC39F502DEEFF9007EDE02B
:104700002F9007EC1256DB9007DCE0FBA3E0FAA346
:10471000E0F99007EBE0F582758300EF1211C59088
:1047200007EBE004F080C522E49007E8F0A3F0C3B3
:10473000ED9401EC9400500B9007E8E4F0A3748032
:10474000F0803590072FEBF0A3EAF0A3E9F0AF0576
:10475000900717ECF0A3EFF075DC0212116DF5C7AE
:10476000900730E475F00112124E900718E024FF14
:10477000F0900717E034FFF09007E8E0FEA3E0FFB9
:10478000229005A1E04401F09005EFE07002A3E063
:1047900060079005A1E04402F090030DE09005A9A8
:1047A00030E506E04408F08004E04402F01244F5ED
:1047B00012416F50249005AAE0FEA3E0FF9000177D
:1047C000E02FF0900016E03EF07F07124E39900582
:1047D000A1E04404F0E054FEF022E49007E8F0A3E6
:1047E000F0C3ED9401EC9400500B9007E8E4F0A3C3
:1047F0007480F08032900736EBF0A3EAF0A3E9F082
:10480000AF0590071BECF0A3EFF012116DF5999036
:104810000737E475F00112124E90071CE024FFF0F8
:1048200090071BE034FFF09007E8E0FEA3E0FF22D2
:10483000E49007E8F0A3F0C3ED9401EC9400500B72
:104840009007E8E4F0A37480F08032900729EBF041
:10485000A3EAF0A3E9F0AF05900711ECF0A3EFF0A5
:1048600012116DF59F90072AE475F00112124E9017
:104870000712E024FFF0900711E034FFF09007E802
:10488000E0FEA3E0FF22E49007E8F0A3F0C3ED947C
:1048900001EC9400500B9007E8E4F0A37480F080E2
:1048A0003290072CEBF0A3EAF0A3E9F0AF059007F4
:1048B00015ECF0A3EFF012116DF5A790072DE4753C
:1048C000F00112124E900716E024FFF0900715E059
:1048D00034FFF09007E8E0FEA3E0FF22E49007DE5B
:1048E000F0A3F0439340439320439380F596F597CC
:1048F0009007DEF0A3F09007DEE0FEA3E0FFC39494
:104900000DEE648094805024EF25E0FFEE33FE74BA
:10491000B02FF974073EFA7B011250139007DFE0C5
:1049200004F070D29007DEE004F080CA0257E490F1
:10493000081CE0FEA3E07802CEC313CE13D8F954CE
:1049400001FD90081CE054016D7001E460317E00AF
:10495000A3E054047806C333CE33CED8F9FF9008D1
:104960001CE054FEFCA3E0FDEC4EFEED4FFF900872
:104970001CEEF0A3EFF01243B4121EE412345722DF
:1049800090058174A5F0A3745AF0A37404F0A37485
:1049900006F0A3740CF0900816E030E0079005854F
:1049A000E04440F012551C900584E02480F582E438
:1049B0003405F583EFF07B017A057981900584E079
:1049C000FF9007E0E4F0A3EFF0E4FF02543890001A
:1049D00005E0FFAD0790030DE030E41EED75F00338
:1049E000A424E8F582E43400F583E0FEA3E0780334
:1049F000CEC313CE13D8F920E01EED75F003A42426
:104A0000E8F582E43400F583E0FEA3E07802CEC34B
:104A100013CE13D8F930E002D322C3229059267462
:104A2000019390067BF09059407401939006E1F059
:104A3000124A68E4F508E508C3951A5023E508759D
:104A4000F008A42446F582E43459F583E493FF7416
:104A5000D42508F582E43406F583EFF0050880D606
:104A6000E49006DFF0A3F022E4F509F50AF50E75EF
:104A70000D80750CF7F50BF509AF0EAE0DAD0CAC56
:104A80000B78011212D08F0E8E0D8D0C8C0B30D73F
:104A9000177494250AF582E43406F583E509F005D8
:104AA0000AE50AC3940850070509E509B41FCA8539
:104AB0000A1A22E49007E9F0A3F0C3ED9401EC9404
:104AC00000500B9007E9E4F0A37480F08026E49096
:104AD000071FF090070FF0A3F0AF05900709ECF067
:104AE000A3EFF0900726EBF0A3EAF0A3E9F075DC62
:104AF0000243C4109007E9E0FEA3E0FF22C0E0C03B
:104B0000F0C083C082C0D075D000C000C001C00218
:104B1000C003C004C005C006C00775CE03C2CF9055
:104B2000075BA3E0FAA3E0F912136DD007D006D01B
:104B300005D004D003D002D001D000D0D0D082D094
:104B400083D0F0D0E032EEFF7E00E4FCFD9007E47D
:104B50007402F09007E01212F69007E5E5F4F0A277
:104B6000AFE433F9C2AF9007E4E0F5F49007E0A3B7
:104B7000A3E0FEA3E02400F582E43EF583E493FF86
:104B80009007E5E0F5F4AE01EE24FF92AF22E49049
:104B900007DEF0A3F09007DEF0A3F09007DEE0FE62
:104BA000A3E0FFC39402EE648094805028EF780263
:104BB000C333CE33CED8F92407F58274083EF5838B
:104BC000E0FF1255B19007DFE004F070CE9007DEF1
:104BD000E004F080C622E49007E9F0A3F0C3ED946E
:104BE00001EC9400500B9007E9E4F0A37480F0808E
:104BF00023E490071DF090070BF0A3F0AF0590079A
:104C000005ECF0A3EFF0900720EBF0A3EAF0A3E9A6
:104C1000F04395109007E9E0FEA3E0FF22E490073F
:104C2000E9F0A3F0C3ED9401EC9400500B9007E978
:104C3000E4F0A37480F08023E490071EF090070D49
:104C4000F0A3F0AF05900707ECF0A3EFF090072377
:104C5000EBF0A3EAF0A3E9F043A4109007E9E0FE2B
:104C6000A3E0FF22E49007E9F0A3F0C3ED9401EC88
:104C70009400500B9007E9E4F0A37480F08022E4E4
:104C8000900732F0900719F0A3F0AF05900713ECEE
:104C9000F0A3EFF0900733EBF0A3EAF0A3E9F0D232
:104CA0009C9007E9E0FEA3E0FF229005A1E044010B
:104CB000F09005EFE07002A3E060079005A1E044EA
:104CC00002F01241E812416F50249005AAE0FEA3C1
:104CD000E0FF900017E02FF0900016E03EF07F0715
:104CE000124E399005A1E04404F0E054FEF022E4B5
:104CF0009007DEF0A3F09007DEF0A3F09007DEE06F
:104D0000FEA3E0FFC39401EE6480948050247C00F5
:104D10007D091211E774FE2FF974073EFA7B011228
:104D200030B09007DFE004F070D29007DEE004F0CE
:104D300080CA22C2D5E830E70FB2D5E4C39BFBE4BA
:104D40009AFAE499F9E498F8EC30E717B2D5124DE5
:104D5000691213AFE4C39BFBE49AFAE499F9E4986F
:104D6000F880031213AF30D50DE4C39FFFE49EFE1D
:104D7000E49DFDE49CFC227B017A0579AF9007E17C
:104D8000E4F0A3741EF07F0112545A7F011256F012
:104D90007B017A0579CD9007E1E4F0A3741EF0E47D
:104DA000FF12545AE4FF1256F09005EDE054FDF066
:104DB000E054FEF0E04408F02290063D740AF090C2
:104DC000063CF090063BF0900628E054FEF090067A
:104DD00026E054FEF0900624E054FEF0900622E017
:104DE00054FEF0900620E054FEF090061EE054FEC3
:104DF000F090061CE054FEF02290063D7408F090FE
:104E0000063CF090063BF0900628E04401F0900646
:104E100026E04401F0900624E04401F0900622E0F0
:104E20004401F0900620E04401F090061EE04401A9
:104E3000F090061CE04401F02290055BE0640860FD
:104E40003790078EE025E025E02469F582E43407F9
:104E5000F583E0FEEF25E025E02469F582E43407E0
:104E6000F583E0D39E401190078EEFF090055F74BC
:104E700004F090078D743CF02290030DE020E418BC
:104E800090030AE030E4059005A9802290000FA36A
:104E9000E0FAA3E0F902136D12553BE4335401C468
:104EA0003333335480FF9005A9E0547F4FF0E04442
:104EB00010F01244F522900005E0FFAD0790030DBD
:104EC000E030E317ED75F003A424E8F582E4340044
:104ED000F583E0C313A3E01320E013ED75F003A402
:104EE00024E8F582E43400F583A3E030E002D32225
:104EF000C322C0E0C0F0C083C082C0D075D000C063
:104F000000C001C002C003C004C005C006C0071233
:104F1000425DD007D006D005D004D003D002D00126
:104F2000D000D0D0D082D083D0F0D0E0329006DE56
:104F3000E030E733122E7D9008241212F6900824F8
:104F4000E0FCA3E0FDA3E0FEA3E0FF1243449008D1
:104F500028EFF09006DEE0547FF01258FA90082413
:104F60001213020000000022900638E054FEF09078
:104F70000636E054FEF0900634E054FEF09006321F
:104F8000E054FEF0900630E054FEF090062EE0541F
:104F9000FEF090062CE054FEF090062AE054FEF05D
:104FA00022900638E04401F0900636E04401F0908B
:104FB0000634E04401F0900632E04401F0900630FF
:104FC000E04401F090062EE04401F090062CE0440D
:104FD00001F090062AE04401F02290030AE030E25A
:104FE0002512553BE4335401C43333335480FF90CE
:104FF00005A9E0547F4FF0E04410F0900012E0FE6D
:10500000A3E0FF0244FD90000FA3E0FAA3E0F91231
:10501000136D22E94A603312116D14601314601984
:1050200014601F24037023900001121186429C22F9
:1050300090000112118642942290000112118642C2
:10504000A32290000112118642B32253A1FC43A275
:105050000343984075CE0243C83043C98075CB0DD9
:1050600075CA05C2CAC2ADC2ACE4900704F090078D
:1050700032F090071BF0A3F0900719F0A3F022E4A0
:10508000FFEFC3951A502B75F002EFA4249CF58214
:10509000E5F03406F583E0FCA3E0FD75F002EFA433
:1050A000247CF582E5F03406F583ECF0A3EDF00FF7
:1050B00080CF22E4FFEFC3951A502B75F002EFA4C6
:1050C000249CF582E5F03406F583E0FCA3E0FD7551
:1050D000F002EFA424E2F582E5F03406F583ECF06B
:1050E000A3EDF00F80CF229000F9E0FEA3E0FF7C5B
:1050F000007D1E1211F9C3ED940AEC9400401012C9
:105100005668E4335401FF9005A2E054FE4FF0903E
:105110000012E0FEA3E0FF0244FDEF1460121460F1
:105120001414601814601A2404701E9059428008E8
:105130009059438003905944E493FF22E4FF0257BF
:10514000D7905934740193FF227F002275DC0253FB
:105150009AF3439B0C438EC075C44075C50575C654
:105160000D53C4EF53AAFDE4900703F090071FF01E
:10517000900717F0A3F090070FF0A3F022D20112CE
:10518000116DFF131313541F20E01AEFC4540F3096
:10519000E01690030CE0FEA3E07803CEC313CE1319
:1051A000D8F930E003D38001C39201A20122D201D9
:1051B00012116DFFC413540720E01BEFC4131354E6
:1051C0000330E01590030CE0C4F854F0C8A3E0C429
:1051D000540F4830E003D38001C39201A201229012
:1051E00005F1E0C39414501590030AE04404F01252
:1051F00049CE5010900019E0240AF0800790030A6D
:10520000E054FBF090000FA3E0FAA3E0F902136D65
:10521000900626E054FEF0900624E054FEF090063E
:105220001EE054FEF090061CE054FEF09005A1E054
:1052300054041313543FFF900628E054FE4FF0220D
:10524000E49007FDF09007DCF09007DCE0FFC395E9
:105250001A50131224A39007DCE0FF1209A790074D
:10526000DCE004F080E3AF15AE14AD13AC122253B2
:105270009A9F439B60438F30759540759D05759E41
:105280000D5395EF53A9FEE4900739F090071DF0F8
:10529000900711F0A3F090070BF0A3F0225391F5C3
:1052A00043920A438FC075A44075A50575A60D539A
:1052B000A4EF53AAFEE4900702F090071EF09007B7
:1052C00015F0A3F090070DF0A3F02212467190089C
:1052D00011E0FF900829E0FEB5070C900812E0FFEE
:1052E00090082AE06F6010900811EEF090082AE014
:1052F000900812F0121A06229005A9E04401F090DD
:105300000012E0FEA3E0FF1253A3125668E43354E8
:1053100001FF9005A2E054FE4FF090000DE0FEA3C7
:10532000E0FF0244FDAD07ED75F008A42448F582C6
:10533000E43459F583E493FEED75F008A42449F5AF
:1053400082E43459F583E4937C002400FFEC3EFEB4
:10535000229005F1E0FF75F06484E5F075F00A84B1
:1053600090063BF0EF75F00A8490063CE5F0F09073
:10537000063D740DF0C2000256509005A9E04401AC
:10538000F0125668E4335401FF9005A2E054FE4F3A
:10539000F090030AE04401F0900012E0FEA3E0FF69
:1053A0000253A39005F1E0C39FE49E401C900309C3
:1053B000E04401F0A3E030E010E054FEF090000F74
:1053C000A3E0FAA3E0F912136D22E4FE9006DEE0FA
:1053D000547FF0D2EE9006DEE054807011123EE46D
:1053E00043CF100EEEC394647480948040E7221281
:1053F000553BE4335401C43333335480FF9005A943
:10540000E0547F4FF0E04410F0900012E0FEA3E083
:10541000FF0244FDE490078EF0900426E0FF900523
:105420005FB403057402F080037407F090055BEF2E
:10543000F09000187401F022EF25E025E02407F534
:1054400082E43408F583E0FF9007E0E0FDA3E090FC
:1054500007E6CDF0A3EDF0023FFFEF25E025E024C5
:1054600007F582E43408F583E0FF9007E1E0FDA34F
:10547000E09007E7CDF0A3EDF002407AEF14601062
:105480001460101460101460102404700F0258DAB5
:105490000258DF02588202586712587022125909C6
:1054A0001259069007DDEFF0124CEF124B8E1248A6
:1054B000DC12591212590C9007DDE0FF2212590933
:1054C00012549D9007DCEFF01257BA12591512577B
:1054D00060124D7712590C9007DCE0FF22E4FFFECA
:1054E00074902EF582E43407F583E02FFF0EEEB4BE
:1054F0001FEE9007AFE0B50702D322C322E4FFFE00
:10550000900563E014FDEEC39D501074602EF5828B
:10551000E43405F583E02FFF0E80E522E4FFFE90E2
:105520000584E014FDEEC39D501074812EF582E4D5
:105530003405F583E02FFF0E80E52212554FE4334A
:10554000540125E025E0FF9005A2E054FB4FF090C8
:1055500005A7E0C4540F13B3229005A9E04401F05D
:1055600090021FE07002A3E0700C90000FA3E0FA1D
:10557000A3E0F912136D22900768E070037428F01D
:10558000900768E0D394149005A2E040044402F030
:105590002254FDF02290030AE054FDF0900012A383
:1055A000E0900308F090000FA3E0FAA3E0F90213E3
:1055B0006DEF14600D14600D14600D2403700C0267
:1055C000504B02526F02529D12514C22EF14600D4B
:1055D00014600D14600D2403700C0258F40258E49A
:1055E0000258E81258EC22C390082CE0942C900842
:1055F0002BE09401500B90082A7402F0E4A3F0A36E
:10560000F022900012E0FFA3E090021FCFF0A3EF82
:10561000F090000FA3E0FAA3E0F902136D125668B0
:10562000E4335401FF9005A2E054FE4FF0900012C5
:10563000E0FEA3E0FF0244FDE4FEEF14600A047004
:105640000C1258B6AE0780051258C2AE07AF06223C
:10565000A200E4335401FD900622E054FE4DF09088
:105660000620E054FE4DF0229005A7E0700E900356
:1056700009E020E0079005A7E030E302C322D3222F
:10568000EF75F009A42440F582E43407F583EBF0CC
:10569000A3EAF0A3E9F022124DB9124F6890063642
:1056A000E04401F0E5964597700343973022EF758B
:1056B000F003A4243EF582E43406F583A3E0FAA3C4
:1056C000E0F902136D125325EF7803C333CE33CEC6
:1056D000D8F9FF7C007D0A1211F922FFE03400FEA8
:1056E0007D02AB05E4FCFD9007E4EBF0124B532286
:1056F000EF25E025E02407F582E43408F583E0FF98
:105700000255CCEF75F009A424FEF582E43407F5C8
:1057100083E0FF025680EF75F009A424FEF582E4D1
:105720003407F583E0FF02547C90030AE04420F044
:1057300090000FA3E0FAA3E0F902136DEF75F008F3
:10574000A42445F582E43459F583E493FF229006BE
:105750003DEFF090063CF090063BF0C20002565040
:10576000E4900829F0900811F090082AF0900812AF
:10577000F0229005A2E04402F0900012E0FEA3E0C7
:10578000FF0244FD9005A9E04401F0900012E0FE04
:10579000A3E0FF0244FD9005A9E04410F090001240
:1057A000E0FEA3E0FF0244FD9005A1E020E20A1222
:1057B0005414E49000F9F0A3F0227BFF7A2D795481
:1057C000E4FF125703E4FF02571675DC0253C4EFDF
:1057D00090071F7401F02274D42FF582E43406F58B
:1057E00083E0FF22E4FF7E1C902000E4F0A3DEFCB7
:1057F00022E59645976005E4F596F5972290000F0F
:10580000A3E0FAA3E0F902136D90592AE493FE7421
:105810000193FF2290592EE493FE740193FF22908E
:105820000012E0FEA3E0FF0244FD9005EDE030E150
:1058300003125414229005EDE020E40312541422C4
:105840005395EF90071D7401F02253A4EF90071EAB
:105850007401F02290067BE075F00384FF22C29C65
:105860009007327401F02275CE0343A940D2CA22B8
:1058700075CE0443A980D2CA221245559007F4EF91
:10588000F02275CE02D2ADD2CA229059287401936B
:10589000FF22905922740193FF2290067BE0C313EC
:1058A000FF229007D9E04401F022E4900704F0229F
:1058B000E4900739F02290071EE0FF22E4900702EF
:1058C000F02290071FE0FF22E4900703F02275CE3C
:1058D00002C2CF3275CE04C2CF32D2A9D28C22D22C
:1058E000ABD28E2243A9012243AA012243AA02225B
:1058F00043CF1022D2AC227F0122D2EE22A2042278
:10590000D204220246CD7F0122C2AF22D2AF2202B0
:1059100058F0023C010258790245B4222222222288
:105920000000000100000005000A0BB800C8006478
:10593000000200000000000400000001FFFFFFFF64
:10594000002B034B04081B050273034B04081E05C0
:1059500002E1034B0408230502C8034B04081705A2
:1059600002F1034B04081C0503C2034B0408200585
:1059700002E5034B04081E050319034B0408170531
:1059800003000A0A203F065B4F666D7D077F6F00AC
:10599000797639408054371C3E5E3038363F737715
:0459A00071747C782A
:00000001FF
