:030000000236BD08
:03000B000239B304
:03001B00023A4363
:0300230002311295
:03002B0002541D5F
:03003B00022F652C
:03005B00024AA3B3
:03006B00024668E2
:0300730002542311
:03007B0002173930
:03009B0002143F0D
:100100004106FB004106FC004107000041070100D9
:100110004106FA004107FB004808070200000003FF
:100120000000004907FE00017D00010000000044BE
:10013000082400000000410828005A07B00380038B
:10014000400320031003080304030203010101011B
:100150000401100120014042081C000041081B005E
:1001600041081700410818004108190041081A0009
:100170006020079000000000000000000000000068
:10018000000000000000000000000000000000006F
:100190000000000041078F004107F4004107EB0019
:1001A0004107EF004107F1004207F2000041082D2E
:1001B0000042082B00004108290041082A0541059A
:1001C000A3004105A8004105AE004205EB00005E1A
:1001D00005AF00000000000000000000000000006B
:1001E000000000000000000000000000000000000F
:1001F0005E0560000000000000000000000000003C
:1002000000000000000000000000000000000000EE
:10021000005E05CD000000000000000000000000AE
:1002200000000000000000000000000000000000CE
:1002300000005E05810000000000000000000000DA
:1002400000000000000000000000000000000000AE
:100250000000004105ED004105A2004105A9004153
:1002600005A1004105A7004105EE004105F100424E
:10027000059F00004205AA00004205EF000042056C
:10028000AC000041055FFF4305A400000043057E6C
:1002900000000041055C0041055D0041055E005C19
:1002A000065F0000000000000000000000000000E9
:1002B0000000000000000000000000000000604896
:1002C00005F2120810080C080808060804080208BD
:1002D000121010100C10081006100410021012203A
:1002E00010200C200820062004200220124010407C
:1002F0000C400840064004400240128010800C80F0
:100300000880068004800280148041063B0041067C
:100310003C0041063D00C1056021063EFF496AFFE1
:1003200049AAFF4B19FF4B52FF31E4FF2E89FF28EA
:100330000AFF1A04FF5207FF5338FF4DC14108233B
:1003400000420820000041081F0041082200410827
:100350001E00410811004108120041081300410825
:10036000140042080F00004208150000611F010040
:10037000A8000000000000A8000000020000A90181
:1003800000000F00202900000002002029010000C9
:100390000F0020A9000000020000A903001CA80013
:1003A0001EA9070000140000A90A00002A01C2A922
:1003B0000700005A005AA9000000020000AA01002C
:1003C000000F00202A0000000200202A0100000F78
:1003D0000020AA000000020000AA03001913001E5A
:1003E000AA070000140000AA0A00002A00B4AA000C
:1003F0000000020000AB0100000F00202B000000F5
:100400000200202B0100000F0020AB0000000200C2
:1004100000AB03001913001EAB070000140000AB73
:100420000A0000480168AB000000020000AC0100B7
:10043000000F00202C0000000200202C0100000F03
:100440000020AC000000020000B4060000000258CA
:10045000340E0001E00258340F0000780258AD134A
:100460000000F000F0AD10000000003CAD100000F6
:100470001E0000CD120008340834CD1100001E000B
:1004800000CD160000000000AE1700000000006163
:10049000340427A8000000000000A80000000200AB
:1004A00000A90100000F00202900000002002029FF
:1004B0000100000F0020A9140000000000A90000A6
:1004C00000020000A903001CA8001EA907000014D8
:1004D0000000A90A00002A01C2A9070000960096A0
:1004E000A90A00003700F0A9000000020000AA01DC
:1004F00000000F00202A0000000200202A01000056
:100500000F0020AA000000020000AA030019130037
:100510001EAA070000140000AA0A000037012CAA36
:10052000000000020000AB0100000F00202B0000C3
:10053000000200202B0100000F0020AB0000000291
:100540000000AB03001913001EAB070000140000ED
:10055000AB0A000048021CAB000000020000AC0126
:1005600000000F00202C0000000200202C010000E1
:100570000F0020AC000000020000B40600000002E2
:1005800058340E0001E00258340F0000780258ADD4
:10059000130000F000F0AD10000000003CAD1000B2
:1005A000001E0000CD120008340834CD150002589A
:1005B0000258CD1100001E0000CD16000000000002
:1005C000AE17000000000060850051A80000000088
:1005D0000000A8000000020000A90100000F002098
:1005E00029000000020020290100000F0020A914AA
:1005F0000000000000AC0600000002582C0E0001B4
:10060000E002582C0F00007802582C0E0001E00286
:10061000582C0F0000780258AD130000F000F0AD28
:1006200010000000003CAD1000001E0000CD1200C4
:1006300008340834CD150002580258CD1100001EB0
:100640000000CD160000000000AE17000000000002
:10065000604D0359A8000000000000A8000000023F
:100660000000A90100000F00202900000002002066
:10067000290100000F0020A9140000000000AD12A5
:100680000009600960AD150002580258AD11000064
:100690001E0000AD160000000000AE1700000000B4
:1006A0000060E70221A8000000000000A800000090
:1006B000020000A90100000F002029000000020034
:1006C00020290100000F0020A9000000020000A95D
:1006D00003001CA8001EA9070000140000A90A00BE
:1006E000002A012CA9000000020000AA0100000F4E
:1006F00000202A0000000200202A0100000F002034
:10070000AA000000020000AA03001913001EAA0795
:100710000000140000AA0A00002A0078AA000000C5
:10072000020000AB0100000F00202B0000000200BF
:10073000202B0100000F0020AB000000020000ABE6
:1007400003001913001EAB070000140000AB0A00E1
:10075000003700B4AB000000020000AD130000F051
:1007600000F0AD10000000003CAD1000001E0000C5
:10077000CD120008340834CD1100001E0000CD1643
:100780000000000000AE170000000000605403A746
:1007900060000000000000E00000000200026103B1
:1007A000001CA8003C620A00004802D0630100005F
:1007B0000F000F63000000020002630100000F0041
:1007C0000F641200016801686510000000003C65BC
:1007D0001000001E0000E600000002000266170084
:1007E00000000000602A03FB20000000000000A0C1
:1007F0000000000200022110000000003C21100057
:10080000001E0000A20000000200022217000000EB
:1008100000005200E700001A01001A02001903004C
:100820001404001805000A6030001F13130A0700A3
:100830000000001D1D0F0A000000000A0A0A0A0A33
:1008400000000028282828282800000A0A0503009C
:1008500000000000000000000000004F00D6010171
:10086000000104270100510103590102214600063D
:100870000103A70103FB410015FF4200F9000043FB
:10088000000F00000042030C000042030900004179
:1008900000FF0042001D000041001A0042000D0050
:1008A000004203560000410003004100E600410001
:1008B00018004200FB0000420016000041000C003E
:1008C0004103580041001C0042004F000041000459
:1008D000004200FD000041030B0042000100004205
:1008E000021F000041030800410014004100000005
:1008F0006048030EFF5366FF52B9FF5344FF485B45
:10090000FF3EC0FF42A3FF3CE4FF52CBFF518AFFF2
:1009100050E1FF4EA9FF4F02FF3FA3FF511DFF51C2
:10092000A5FF4C98FF3426FF52DDFF4F77FF4A2A80
:10093000FF4D90FF4B8BFF5282FF2B856024076990
:1009400000FF546A01FF546C04FF50FF03FF546B17
:1009500003FF546D05FF537102FF537C01FF52EFFB
:1009600003FF546E41078E0041078D004107670069
:10097000410768004107D9004207DA00004107CE6D
:10098000004207D100004207CC00004207D7000018
:100990004207D300004207D500004207CF000042C3
:1009A00007CA0000009007DDEFF0E49007E5F09043
:1009B00007DDE0FF75F002A4247CF582E5F0340643
:1009C000F583E0FCA3E0FD75F002EFA4249CF58222
:1009D000E5F03406F583E0FEA3E0C39DFFEE9C90B6
:1009E00007DEF0A3EFF0E47F01FEFDFC9007DDE001
:1009F000F9F81212E18F198E188D178C16AF0112AB
:100A00004ED69007E3EEF0A3EFF0C39007DFE09F30
:100A1000EE6480F89007DEE064809840089007E07C
:100A20007401F08005E49007E0F09007E0E06401D5
:100A30006003020C2A9007DDE0FF24ACF582E43469
:100A400006F583E0C394FA74809480500D74AC2F43
:100A5000F582E43406F583E004F0E5155519FFE569
:100A6000145518FEE5135517FDE5125516FCE4FB69
:100A7000FAF9F8C31212BD6003020BF090067BE096
:100A80009007E2F0125446EF6047E49007E0F0A3CD
:100A9000F09007E1E0FFC3951A502274AC2FF58265
:100AA000E43406F583E0C39401748094804006909A
:100AB00007E0E004F09007E1E004F080D49007E064
:100AC000E0C394037480948040079007E2E0240F11
:100AD000F09007DDE024ACF582E43406F583E0FF16
:100AE0009007E2E0FEEFC39E5003020BF0E4900794
:100AF000E0F01253D9EF6003020B7D9007E1F09014
:100B000007E1E0FFC3951A502C9007DDE06F601DF0
:100B100012539B9007E1E024ACF582E43406F583A0
:100B2000E0C39F40089007E07401F080089007E15F
:100B3000E004F080CA125446EF3395E04F600302A0
:100B40000BCE9007E0E06003020BCEA3F09007E12C
:100B5000E0FFC3951A50779007DDE06F60171253DE
:100B60009B9007E1E024B4F582E43406F583E0C30A
:100B70009F400280539007E1E004F080D012544679
:100B8000EF3395E04F70479007E2F09007E1F09067
:100B900007E1E0FFC3951A502274AC2FF582E434CC
:100BA00006F583E0C394027480948040069007E2C7
:100BB000E004F09007E1E004F080D49007E2E0C3A5
:100BC00094037480948040069007E07401F09007CD
:100BD000E0E064017002D203E5154519F515E5144E
:100BE0004518F514E5134517F513E5124516F512EA
:100BF0009007DDE0FF24CCF582E43406F583E4F0D1
:100C000074F22FF582E43406F583E4F075F002EF18
:100C1000A424BCF582E5F03406F583E4F0A3F07477
:100C20008C2FF582E43406020FEF9007DDE0FF120F
:100C3000521E9007DEE0FCA3E0FDD39FEE6480F837
:100C4000EC64809840129007DDE024B4F582E4342F
:100C500006F583E004F080159007FDE004F09007AE
:100C6000DDE024B4F582E43406F583E4F09006E197
:100C7000E0FF3395E0FEC3E49FFBE49EFAC3ED9BE7
:100C8000EA6480F8EC6480985003020D91D39007D9
:100C9000DFE09FEE6480F89007DEE0648098400318
:100CA000020D919007DDE0FF24CCF582E43406F5D7
:100CB00083E4F0748C2FF582E43406F583E4F0FFCE
:100CC000FEFDFCAB15AA14A913A812C31212BD6035
:100CD00003020EF49007DEE0FEA3E0FF9007DDE0E4
:100CE00075F002A424BCF582E5F03406F583EE8F9E
:100CF000F012124C12535B9007DDE075F002A42451
:100D0000BCF582E5F03406F583E0FCA3E0C39FEE7A
:100D10006480F8EC64809840199007DDE0FF75F07E
:100D200002A4247CF582E5F03406F583E475F00135
:100D3000804612535BC3E49FFFE49EFE9007DDE014
:100D400075F002A424BCF582E5F03406F583E0FCDE
:100D5000A3E0C39FEE6480F8EC6480984003020E29
:100D6000F49007DDE0FF75F002A4247CF582E5F045
:100D70003406F58374FFF5F012124C75F002EFA4FF
:100D800024BCF582E5F03406F583E4F0A3F0020E0E
:100D9000F49006E1E0FF3395E0FEC3E49FFFE49E9C
:100DA000FEC39007DFE09FEE6480F89007DEE0640A
:100DB00080984003020E639007DDE0FF24CCF582AB
:100DC000E43406F583E004F0748C2FF582E43406F5
:100DD000F583E4F074CC2FF582E43406F583E0FD6E
:100DE0009054D1E493FFED8FF084E5F0706090545F
:100DF000D293FEEF8EF0A4FFC3ED9FE5F06480F880
:100E00007480989007DDE0401424CCF582E4340629
:100E1000F583E4F0D2049006FA04F0803175F00214
:100E2000A4247CF582E5F03406F583C083C082E01B
:100E3000FEA3E0FF9006E1E0A2E713FD3395E0FC9E
:100E4000C3EF9DFFEE9CD082D083F0A3EFF090071C
:100E5000DDE0FF9007F6E06F6003020EF474FFF030
:100E6000020EF49006E1E0FF3395E0FED39007DF39
:100E7000E09FEE6480F89007DEE064809840759013
:100E800007DDE024CCF582E43406F583E4F0FFFED0
:100E9000FDFCAB15AA14A913A812C31212BD7054FD
:100EA0009007DDE0FF248CF582E43406F583E0044E
:100EB000F0748C2FF582E43406F583E064207034FE
:100EC0009007DDE0FF248CF582E43406F583E4F03E
:100ED0009006E1E0A2E713A2E713FD3395E0FC756D
:100EE000F002EFA4247CF582E5F03406F583EC8D66
:100EF000F012124CE5155519FFE5145518FEE513CF
:100F00005517FDE51255164D4E4F70030210059012
:100F100007E3E0FCA3E0FDAE047802CEA2E713CE27
:100F200013D8F8FFC3ED9FFFEC9EFEC39007DFE0F0
:100F30009FEE6480F89007DEE06480984003020F23
:100F4000F49007DDE024F2F582E43406F583E00452
:100F5000F01253E19007E2EFF0E49007E1F0900720
:100F6000E1E0FFC3951A502274AC2FF582E43406F9
:100F7000F583E0C394017480948040069007E0E01C
:100F800004F09007E1E004F080D49007E0E0C3941F
:100F90000374809480400890067BE09007E2F09014
:100FA00007DDE0FB24F2F582E43406F583E0FF90F0
:100FB00007E2E0FEEFC39E500302107474F22BF5BB
:100FC00082E43406F583E4F0AF19AE18AD17AC1621
:100FD0001212B0E5155FF515E5145EF514E5135D25
:100FE000F513E5125CF51274AC2BF582E43406F5CA
:100FF00083E4F0229007DDE024F2F582E43406F584
:1010000083E014F0229007DDE024ACF582E434069E
:10101000F583E4F0FFFEFDFCAB15AA14A913A8129A
:10102000C31212BD70089007DDE0FF123371E51A9C
:1010300014FF9007DDE06F703B9007FDE0C3951A49
:101040004032E49007E1F09007E1E0FFC3951A50C9
:101050001B74AC2FF582E43406F583E0600690073C
:10106000E07401F09007E1E004F080DB9007E0E03D
:101070007002C20322E709F608DFFA8046E709F2A8
:1010800008DFFA803E88828C83E709F0A3DFFA80CC
:1010900032E309F608DFFA8078E309F208DFFA8024
:1010A0007088828C83E309F0A3DFFA806489828AE6
:1010B00083E0A3F608DFFA805889828A83E0A3F2EE
:1010C00008DFFA804C80D280FA80C680D4806980A4
:1010D000F28033801080A680EA809A80A880DA802F
:1010E000E280CA803389828A83ECFAE493A3C8C57C
:1010F00082C8CCC583CCF0A3C8C582C8CCC583CC7C
:10110000DFE9DEE7800D89828A83E493A3F608DFB6
:10111000F9ECFAA9F0EDFB2289828A83ECFAE0A3CC
:10112000C8C582C8CCC583CCF0A3C8C582C8CCC50D
:1011300083CCDFEADEE880DB89828A83E493A3F252
:1011400008DFF980CC88F0EF60010E4E60C388F0B4
:10115000ED2402B4040050B9F582EB2402B404007B
:1011600050AF23234582239010C573BB01068982AB
:101170008A83E0225002E722BBFE02E32289828AB0
:1011800083E49322BB010CE58229F582E5833AF5DD
:1011900083E0225006E92582F8E622BBFE06E92517
:1011A00082F8E222E58229F582E5833AF583E49329
:1011B00022BB010689828A83F0225002F722BBFEFD
:1011C00001F322F8BB010DE58229F582E5833AF5AA
:1011D00083E8F0225006E92582C8F622BBFE05E925
:1011E0002582C8F222EF8DF0A4A8F0CF8CF0A428BD
:1011F000CE8DF0A42EFE22BC000BBE0029EF8DF098
:1012000084FFADF022E4CCF875F008EF2FFFEE3349
:10121000FEEC33FCEE9DEC984005FCEE9DFE0FD5F8
:10122000F0E9E4CEFD22EDF8F5F0EE8420D21CFECC
:10123000ADF075F008EF2FFFED33FD400798500635
:10124000D5F0F222C398FD0FD5F0EA22C5F0F8A33D
:10125000E028F0C5F0F8E582158270021583E038C9
:10126000F022A3F8E0C5F025F0F0E58215827002C7
:101270001583E0C838F0E822BB0110E58229F58229
:10128000E5833AF583E0F5F0A3E0225009E92582F1
:10129000F886F008E622BBFE0AE92582F8E2F5F0BE
:1012A00008E222E5832AF583E993F5F0A3E9932286
:1012B000CFF4CFCEF4CECDF4CDCCF4CC22EB9FF551
:1012C000F0EA9E42F0E99D42F0E89C45F022E86099
:1012D0000FECC313FCED13FDEE13FEEF13FFD8F17B
:1012E00022E8600FEFC333FFEE33FEED33FDEC3346
:1012F000FCD8F122ECF0A3EDF0A3EEF0A3EFF02286
:10130000A8828583F0D083D082121317121317128C
:101310001317121317E473E493A3C583C5F0C583B1
:10132000C8C582C8F0A3C583C5F0C583C8C582C837
:1013300022D083D082E4937012740193700DA3A322
:1013400093F8740193F5828883E4737402936C704C
:10135000127403936D700C7404936E70067405938D
:101360006F60DDA3A3A3A3A3A380CA8A838982E4B9
:101370007375F008758200EF2FFFEE33FECD33CD8D
:10138000CC33CCC58233C5829BED9AEC99E582982B
:10139000400CF582EE9BFEED9AFDEC99FC0FD5F02A
:1013A000D6E4CEFBE4CDFAE4CCF9A88222B800C1A1
:1013B000B90059BA002DEC8BF084CFCECDFCE5F00E
:1013C000CBF97818EF2FFFEE33FEED33FDEC33FC55
:1013D000EB33FB10D703994004EB99FB0FD8E5E4FE
:1013E000F9FA227818EF2FFFEE33FEED33FDEC33E0
:1013F000FCC933C910D7059BE99A4007EC9BFCE96F
:101400009AF90FD8E0E4C9FAE4CCFB2275F010EFAA
:101410002FFFEE33FEED33FDCC33CCC833C810D7ED
:10142000079BEC9AE899400AED9BFDEC9AFCE89941
:10143000F80FD5F0DAE4CDFBE4CCFAE4C8F922C029
:10144000E0C0F0C083C082C0D075D000C000C00131
:10145000C002C003C004C005C006C007E5C430E137
:101460004275DC0243C402D3900718E09400900751
:1014700017E09400402A90072FE0FBA3E0FAA3E0D6
:10148000F912116BF5C7900730E475F00112124C98
:10149000900718E024FFF0900717E034FFF0800376
:1014A000125417E5C420E00302171E75DC0243C482
:1014B0000190070FE0FEA3E0FFD390070AE09F90A2
:1014C0000709E09E500302171E900700E5C7F0EFE2
:1014D0004E7056E0FF64A56004EFB4AA459007265D
:1014E000E0FBA3E0FAA3E0F9EF1211B1900700E0EE
:1014F000A3F0900726E0F9A3E0FAA3E09006FDC967
:10150000F0A3EAF0A3E9F0900727E475F0011212C6
:101510004C900710E004F0705A90070FE004F002BE
:10152000171E900701E40216DE90070FE0FEA3E00D
:10153000FF64014E705B900700E0FD645A6004EDAB
:10154000B45533900726E0FBA3E0FAA3E0F9ED12CF
:1015500011B1900700E0FDA3E02DF0900727E4759E
:10156000F00112124C900710E004F0700690070F83
:10157000E004F002171EC3E49FFFE49E9007278F4C
:10158000F012124C90070FE4F0A3F090070102163E
:10159000DE90070FE0FEA3E0FF64024E706090074C
:1015A00000E0FD64046009ED64406004EDB4413383
:1015B000900726E0FBA3E0FAA3E0F9ED1211B19049
:1015C0000700E0FDA3E02DF0900727E475F001127D
:1015D000124C900710E004F0700690070FE004F042
:1015E00002171EC3E49FFFE49E9007278FF012129C
:1015F0004C90070FE4F0A3F09007010216DE90076D
:101600000FE07004A3E064037078900700E0FFFD32
:10161000D390070AE09D900709E094004042EFD381
:101620009400403C900726E0FBA3E0FAA3E0F9EF2A
:101630001211B1FF900709E4F0A3EFF0900700E06A
:10164000FFA3E02FF0900727E475F00112124C90F1
:101650000710E004F0700690070FE004F002171E78
:1016600090070FE0FEA3E0FFC3E49FFFE49E900716
:10167000278FF012124C90070FE4F0A3F0900701AF
:10168000805C90070AE024FFFF900709E034FFFE2A
:1016900090070FE06E7003A3E06F704D900700E0BD
:1016A000FFA3E0B50714900726E0FBA3E0FAA3E050
:1016B000F9EF1211B1125311806490070FE0FEA3ED
:1016C000E0FFC3E49FFFE49E9007278FF012124CC7
:1016D00090070FE4F0A3F0900701F0900700F0905E
:1016E0000709F0A3741EF08035900700E0FF900713
:1016F00026E0FBA3E0FAA3E0F9EF1211B190070096
:10170000E0FFA3E02FF0900727E475F00112124CE0
:10171000900710E004F0700690070FE004F0D00787
:10172000D006D005D004D003D002D001D000D0D054
:10173000D082D083D0F0D0E032C0E0C0F0C083C00F
:1017400082C0D075D000C000C001C002C003C00478
:10175000C005C006C007E5A430E13F43A402D39012
:101760000716E09400900715E09400402A90072C9B
:10177000E0FBA3E0FAA3E0F912116BF5A790072DA7
:10178000E475F00112124C900716E024FFF0900768
:1017900015E034FFF0800312540BE5A420E00302AF
:1017A00019E943A40190070DE0FEA3E0FFD39007E1
:1017B00008E09F900707E09E50030219E99006FB9E
:1017C000E5A7F0EF4E703CE0FFB4A530900723E0B2
:1017D000FBA3E0FAA3E0F9EF1211B19006FBE0A33E
:1017E000F0900724E475F00112124C90070EE0040B
:1017F000F0705590070DE004F00219E99006FCE442
:101800000219A990070DE0FEA3E0FF64014E705697
:101810009006FBE0FDB45A33900723E0FBA3E0FA07
:10182000A3E0F9ED1211B19006FBE0FDA3E02DF06D
:10183000900724E475F00112124C90070EE004F0BA
:10184000700690070DE004F00219E9C3E49FFFE47D
:101850009E9007248FF012124C90070DE4F0A3F035
:101860009006FC0219A990070DE0FEA3E0FF6402B8
:101870004E70569006FBE0FDB40433900723E0FB66
:10188000A3E0FAA3E0F9ED1211B19006FBE0FDA38D
:10189000E02DF0900724E475F00112124C90070E31
:1018A000E004F0700690070DE004F00219E9C3E4CB
:1018B0009FFFE49E9007248FF012124C90070DE4D6
:1018C000F0A3F09006FC0219A990070DE07004A3A4
:1018D000E0640370789006FBE0FFFDD3900708E01A
:1018E0009D900707E094004042EFD39400403C9065
:1018F0000723E0FBA3E0FAA3E0F9EF1211B1FF9098
:101900000707E4F0A3EFF09006FBE0FFA3E02FF061
:10191000900724E475F00112124C90070EE004F0D9
:10192000700690070DE004F00219E990070DE0FE43
:10193000A3E0FFC3E49FFFE49E9007248FF0121200
:101940004C90070DE4F0A3F09006FC805C90070833
:10195000E024FFFF900707E034FFFE90070DE06EE4
:101960007003A3E06F704D9006FBE0FFA3E0B507A6
:1019700014900723E0FBA3E0FAA3E0F9EF1211B102
:10198000125391806490070DE0FEA3E0FFC3E49F33
:10199000FFE49E9007248FF012124C90070DE4F0A4
:1019A000A3F09006FCF09006FBF0900707F0A374FC
:1019B0001EF080359006FBE0FF900723E0FBA3E0DC
:1019C000FAA3E0F9EF1211B19006FBE0FFA3E02FBC
:1019D000F0900724E475F00112124C90070EE00419
:1019E000F0700690070DE004F0D007D006D005D0C7
:1019F00004D003D002D001D000D0D0D082D083D088
:101A0000F0D0E03290030DE054DFF090030CE0FEE4
:101A1000A3E07806CEC313CE13D8F95401FF900685
:101A200038E054FE4FF0900636E04401F090081C78
:101A3000E0FEA3E07803CEC313CE13D8F95401FD22
:101A400090030CE0FEA3E0FFEEC313EF135401FF7D
:101A5000EF5D7F0070027F01EF5401FF900632E0DE
:101A600054FE4FF090055BE0FC64036003021C1F12
:101A7000900005E0146073147003021B4614700399
:101A8000021BD0147003021B7B24046003021BFDA5
:101A90009003A6E0FEC39404900634E05005440190
:101AA000F0800354FEF090062EE054FEF0900630D5
:101AB000E054FEF0EEC39405501D90030CE0FEA32D
:101AC000E07803CEC313CE13D8F95401FF90062C4F
:101AD000E054FE4FF0800790062CE054FEF0900397
:101AE000A6E0C39406505C021BAC9003A6E0FEC3C4
:101AF000940490062EE050054401F0800354FEF05B
:101B0000900634E054FEF0900630E054FEF0EEC350
:101B10009405501D90030CE0FEA3E07803CEC313A0
:101B2000CE13D8F95401FF90062CE054FE4FF080FC
:101B30000790062CE054FEF09003A6E0C3940650F4
:101B4000028069021BCB90062EE054FEF090063412
:101B5000E054FEF0900630E054FEF09003A6E0FF63
:101B6000C3940590062CE050054401F0800354FE18
:101B7000F0EFC3940650028033805090062CE0545E
:101B8000FEF090062EE054FEF0900634E054FEF095
:101B90009003A6E0FFC39404900630E05005440192
:101BA000F0800354FEF0EFC39406501F90030CE046
:101BB000FEA3E0FFEEC4F854F0C8EFC4540F48543D
:101BC00001FF90062AE054FE4FF02290062A804C36
:101BD00090062CE054FEF090062EE054FEF09006A5
:101BE00034E054FEF0900630E054FEF09003A6E09E
:101BF000C3940690062AE050504401F02290062A31
:101C0000E054FEF090062CE054FEF090062EE054D6
:101C1000FEF0900634E054FEF0900630E0802A900A
:101C2000062CE054FEF090062EE054FEF0900634B0
:101C3000E054FEF0EC90062AB40606E04401F08081
:101C400004E054FEF0900630E054FEF02290063B93
:101C5000E09054D49390063AF0E05401FF9005F2DE
:101C6000E054FE4FF090063AE05402C313FF900593
:101C7000F4E054FE4FF090063AE054041313543F3E
:101C8000FF9005F6E054FE4FF090063AE05408133A
:101C90001313541FFF9005F8E054FE4FF090063ADE
:101CA000E05410C4540FFF9005FAE054FE4FF0903A
:101CB000063AE05420C4135407FF9005FCE054FE9C
:101CC0004FF090063AE05440C413135403FF9005BC
:101CD000FEE054FE4FF090063CE09054D493900602
:101CE0003AF0E05401FF900600E054FE4FF09006F9
:101CF0003AE05402C313FF900602E054FE4FF09006
:101D0000063AE054041313543FFF900604E054FED7
:101D10004FF090063AE05408131313541FFF900637
:101D200006E054FE4FF090063AE05410C4540FFF02
:101D3000900608E054FE4FF090063AE05420C41399
:101D40005407FF90060AE054FE4FF090063AE05424
:101D500040C413135403FF90060CE054FE4FF09060
:101D6000063DE09054D49390063AF0E05401FF9081
:101D7000060EE054FE4FF090063AE05402C313FF03
:101D8000900610E054FE4FF090063AE0540413130E
:101D9000543FFF900612E054FE4FF090063AE05494
:101DA00008131313541FFF900614E054FE4FF090D5
:101DB000063AE05410C4540FFF900616E054FE4F4C
:101DC000F090063AE05420C4135407FF900618E040
:101DD00054FE4FF090063AE05440C413135403FFEE
:101DE00090061AE054FE4FF0E4FFEF25E024F2F5F0
:101DF00082E43405F583E030E032EF25E024F2F5AB
:101E000082E43405F583E0C313547F2400F582E4B3
:101E10003420F583C083C082E0FEEF25E024F3F593
:101E200082E43405F583E0FDEE4D8031EF25E024BA
:101E3000F2F582E43405F583E0C313547F2400F502
:101E400082E43420F583C083C082E0FEEF25E024E5
:101E5000F3F582E43405F583E0F4FDEE5DD082D045
:101E600083F00FEF642470822290030CE020E007DF
:101E7000E020E20302204F30000B7B017A077990CB
:101E80007D20125452900792E064A06003021F600C
:101E9000A3E064B06003021F601250654003021F9C
:101EA00060900790E090078FF0E0FF131313540148
:101EB0007E0054017803C333CE33CED8F9FF9003AC
:101EC0000CE0FCA3E054F7FDEC4EFEED4FFF900359
:101ED0000CEEF0A3EFF090078FE0C45401C4F85467
:101EE0000FC868FFE4C454F048FE90030CE0FCA364
:101EF000E054EFFDEC4EFEED4FFF90030CEEF0A32F
:101F0000EFF090078FE0FFC4131354017E005401DB
:101F10007806C333CE33CED8F9FF90030CE0FCA390
:101F2000E054BFFDEC4EFEED4FFF90030CEEF0A32E
:101F3000EFF090030DE054DFF0900791E09000E5A2
:101F4000F090055B7408F090030DE054FEF0E0544F
:101F5000FDF090030CE054F7F0E054FEF002204B4B
:101F600090030CE020E003022011900790E090071E
:101F70008FF0E0FF13131354017E0054017803C364
:101F800033CE33CED8F9FF90030CE0FCA3E054F736
:101F9000FDEC4EFEED4FFF90030CEEF0A3EFF09042
:101FA000078FE0C45401C4F8540FC868FFE4C45458
:101FB000F048FE90030CE0FCA3E054EFFDEC4EFE75
:101FC000ED4FFF90030CEEF0A3EFF090078FE0FFD2
:101FD000C4131354017E0054017806C333CE33CEAC
:101FE000D8F9FF90030CE0FCA3E054BFFDEC4EFEDB
:101FF000ED4FFF90030CEEF0A3EFF090030DE054D3
:10200000DFF0900791E09000E5F090030CE054FEC3
:10201000F090030CE030E23790055B7408F090001C
:10202000E57401F090030DE04408F0E04410F090F6
:10203000000F74FFF0A37423F0A374ACF090030DB1
:10204000E04440F0E054DFF090030CE054FBF02259
:102050009007DCEFF09007FBE0C39403748094805A
:102060004051E4F09006FAE0703E9007DDF09007F2
:10207000DDE0C3951A5031E0FF75F002A424E2F5CB
:1020800082E5F03406F583E0FCA3E0FD75F002EF95
:10209000A4247CF582E5F03406F583ECF0A3EDF0A2
:1020A0009007DDE004F080C612400EC204E4900602
:1020B000FAF0229007F5E004F09007DCE0FF9007CB
:1020C000F5E0B50708124C64E49007F6F09007DCE1
:1020D000E0FF9007F5E0D39F500302220BE4900746
:1020E000DDF09007DDE0C3951A40030221B7E0FF61
:1020F00075F002A424E2F582E5F03406F583E0FCF5
:10210000A3E0FD75F002EFA4249CF582E5F034060F
:10211000F583E0FEA3E0C39DFFEE9CAD07FC9006B7
:10212000FAE070429006E1E0FB3395E0FAFEEB78CE
:1021300002C333CE33CED8F9FFD3ED9FEE6480F8DF
:10214000EC6480984060E49BFFE49AFEEF7802C361
:1021500033CE33CED8F9FFC3ED9FEE6480F8EC6444
:102160008098504280519006E1E0FB3395E0FAFE02
:10217000EB7803C333CE33CED8F9FFD3ED9FEE64B3
:1021800080F8EC648098401EE49BFFE49AFEEF78B0
:1021900003C333CE33CED8F9FFC3ED9FEE6480F88E
:1021A000EC64809840119007DDE0FF12220C90074C
:1021B000DDE004F00220E29007DDE0B51A069007AA
:1021C000F6E004F09007DCE0FD75F008A4FF90074E
:1021D000F5E0C39FE5F06480F8748098402DE4F04A
:1021E000C2039007FBE004F0ED75F004A4FF900734
:1021F000F6E0C39FE5F06480F8748098400DE490A9
:1022000007FBF0124C3012400EC204229007E0EFA0
:10221000F0F9E0FF75F002A424E2F582E5F034065F
:10222000F583E0FCA3E0FD75F002EFA4249CF582A9
:10223000E5F03406F583E0FEA3E0C39DFFEE9C903D
:1022400007E1F0A3EFF0AF01124ED6AD07AC069058
:1022500007E1E0FEA3E0FFD39DEC6480F8EE64802C
:10226000985014C3E49DFBE49CFAC3EF9BEA64809E
:10227000F8EE648098502F9007E0E0FF75F002A41C
:10228000249CF582E5F03406F583E0FCA3E0FD75BF
:10229000F002EFA424E2F582E5F03406F583ECF0D9
:1022A000A3EDF002237FECA2E713FEED13FF9007EE
:1022B000E1E0FAA3E0FBD39FEE6480F8EA64809843
:1022C000501CECA2E713FEED13FFC3E49FFFE49E56
:1022D000FEC3EB9FEE6480F8EA648098503E90075E
:1022E000E0E0FD75F002A424E2F582E5F03406F5A5
:1022F00083E0FAA3E0FBEAC313FEEB13FFC3EB9FFB
:10230000FBEA9EFA75F002EDA4249CF582E5F03418
:1023100006F583E0C313FEA3E01380479007E0E0D7
:10232000FD75F002A424E2F582E5F03406F583E0C1
:10233000FAA3E0FBAE027803CEC313CE13D8F9FFA5
:10234000C3EB9FFBEA9EFA75F002EDA4249CF58294
:10235000E5F03406F583E0FEA3E07803CEC313CEA8
:1023600013D8F92BFFEA3EFE9007E0E075F002A4D7
:1023700024E2F582E5F03406F583EEF0A3EFF09069
:1023800007E0E0FF75F002A424E2F582E5F03406F0
:10239000F583E0FCA3E0FD75F002EFA4249CF58238
:1023A000E5F03406F583ECF0A3EDF022E49000F9BB
:1023B000F0A3F09005A1E054FEF0E4900001F0A33A
:1023C000F0900015E004F0900005E075F003A424FF
:1023D000D6F582E43400F583E0FBA3E0FAA3E0F94C
:1023E000900015E075F007A4FFE92FF9EA35F0FA3F
:1023F00078DC7C077D017E007F071211457B017A26
:102400000779DC124D2E50B9124D5F50B49007DCA5
:10241000E020E7030224C4900356E0FEA3E0FF900F
:10242000000DE0FCA3E0FD9FEC9E50030224B6EDFE
:102430009FFFEC9EAB07FA900019E0FF7E0090072B
:10244000E3EEF0A3EFF02401FFEE33FE7C007D3CD1
:102450001211E59007E3EEF0A3EFF0900003E0F92E
:102460002BFFE43AFED39007E4E09F9007E3E09E61
:10247000403EE9AC02AD032DFFE43CFEC3A3E09F68
:10248000F09007E3E09EF0E0FAA3E0FB7C007D3CE7
:10249000FFAE021211F7900019EFF07C007D3CAF07
:1024A00003AE021211F7C3743C9D900003F0800646
:1024B0009000197401F0E4900356F0A3F090030A21
:1024C000E054F7F09003A6E0FF9007DCE05407FE2D
:1024D000B5070660046406703AE490021FF0A3F0AA
:1024E000900309E054FDF0A3E054EFF0E054FDF058
:1024F000900309E054FEF0E49000FDF0A3F090009A
:1025000004F09005A1E04402F0E4900308F0900389
:10251000A6EEF0E490004FF0A3F0900016F0A3F0C8
:102520009007DDE090001BF09007DFE0FFA3E09054
:102530000012CFF0A3EFF09007E1E0FFA3E09000DE
:102540000DCFF0A3EFF0229005B3E0540F24FE600E
:102550002F24FE7003022694240360030226B09009
:1025600005B4E09005EEF09005B5E09005A4F0907C
:1025700005B6E09005A5F09005B7E09005A6F0221D
:102580009005B4E09005A8F09005B5E09005AEF098
:102590009005B6E09005A3F0E05404FF9005EDE04F
:1025A00054FB4FF09005A3E05408FF9005EDE05474
:1025B000F74FF09005A3E05410FF9005EDE054EFC5
:1025C0004FF09005A3E05420FF9005A1E054DF4FA9
:1025D000F09005A3E05440FF9005A1E054BF4FF0F8
:1025E0009005A3E05480FF9005A1E0547F4FF09048
:1025F00005B7E09005A3F0E05401FF9005A7E05473
:10260000FE4FF09005A3E05402FF9005A7E054FDB3
:102610004FF09005A3E05404FF9005A7E054FB4F52
:10262000F09005B8E09005F1F09005B9E0FEA3E068
:102630007C002400FFEC3E90059FF0A3EFF0900596
:10264000BBE0FEA3E02400FFEC3E9005EBF0A3EF1F
:10265000F09005BDE0FEA3E02400FFEC3E9005AA4B
:10266000F0A3EFF09005BFE0FEA3E02400FFEC3EF6
:102670009005EFF0A3EFF09005B2E0D3941340374C
:102680009005C1E0FEA3E02400FFEC3E9005ACF015
:10269000A3EFF0229005EDE054FDF0900816E02045
:1026A000E01590055F7401F0900816E04401F022F7
:1026B0009005EDE054FDF0227F011251C0EF603330
:1026C0009005EDE04401F09005AFE0B4AA0DA3E061
:1026D000B45508A3E0B44003122547E490055CF02C
:1026E0007B017A0579AF9007E1F0A3741EF07F01BA
:1026F000124FE2E4FF1251C0EF60409005EDE02080
:10270000E121900816E020E01A90055F7401F0E4E2
:10271000900815F0A3F0900816E04401F09008131B
:10272000740AF0E490055DF07B017A0579CD90079D
:10273000E1F0A3741EF0E4FF124FE290081CE0FEEB
:10274000A3E07802CEC313CE13D8F95401FD90084C
:102750001CE0131354016D7001E47003022809A3F7
:10276000E05404FE90081CE054FBFCA3E0FDEC4E9A
:10277000FFED90081CCFF0A3EFF090055EE004F0B1
:10278000C394024005E4F0122D9A900816E020E070
:10279000099000E6E0D39400403F1244A290055D0A
:1027A000E004F0D3941E4031900816E030E00B9026
:1027B00005EDE054FEF0E054FDF0900816E054FE04
:1027C000F0E490055DF07B017A0579CD9007E1F0AA
:1027D000A3741EF0E4FF124FE290055CE004F0D316
:1027E000941E4025E4F09005EDE054FEF0E054FD29
:1027F000F0E04408F07B017A0579AF9007E1E4F05E
:10280000A3741EF07F01124FE22290030DE054DF0B
:10281000F090030CE0FEA3E07806CEC313CE13D8ED
:10282000F95401FF900638E054FE4FF0900005E0A7
:10283000FD14603224FD6060240460030228CC9003
:102840000634E04401F090062EE054FEF09006308D
:10285000E054FEF090030CE0FEA3E07803CEC31337
:10286000CE13D8F98025900634E054FEF090062E61
:10287000E04401F0900630E054FEF090030CE0FEDE
:10288000A3E07803CEC313CE13D8F95401FF90060A
:102890002CE054FE4FF0805B90062CE054FEF0904C
:1028A000062EE054FEF0900634E054FEF090030C47
:1028B000E0C4F854F0C8A3E0C4540F485401FF909A
:1028C000062AE054FE4FF0900630805A900634E01D
:1028D00054FEF090062EE054FEF0900630E054FED8
:1028E000F090030DE020E304EDB4022290062CE00A
:1028F0004401F090030CE0C4F854F0C8A3E0C454C1
:102900000F485401FF90062AE054FE4FF022900336
:102910000DE020E407900005E0B4030F90062CE0E2
:1029200054FEF090062AE04401F02290062AE0547A
:10293000FEF090062CE054FEF02290081DE04401C9
:10294000F0900817E004F0C3940A4032E4F09008D5
:102950001CE013A3E0137F0020E0027F01EF54018D
:1029600025E0FFE433FE90081CE0FCA3E054FDFDED
:10297000EC4EFEED4FFF90081CEEF0A3EFF0900838
:1029800018E004F0C394645003022A62E4F0900853
:102990001CE0FEA3E07802CEC313CE13D8F97F006B
:1029A00020E0027F017E00EF54017802C333CE3372
:1029B000CED8F9FF90081CE0FCA3E054FBFDEC4EE0
:1029C000FEED4FFF90081CEEF0A3EFF0900819E029
:1029D00004F0C394054040E4F090081CE0FEA3E03E
:1029E0007803CEC313CE13D8F97F0020E0027F0115
:1029F0007E00EF54017803C333CE33CED8F9FF9075
:102A0000081CE0FCA3E054F7FDEC4EFEED4FFF90F8
:102A1000081CEEF0A3EFF090081AE004F0C3940A4B
:102A20004040E4F090081CE0C4F854F0C8A3E0C4AF
:102A3000540F487F0020E0027F01EF5401C4F85496
:102A40000FC868FFE4C454F048FE90081CE0FCA3E3
:102A5000E054EFFDEC4EFEED4FFF90081CEEF0A3AE
:102A6000EFF022E4F509F511F510F50FF50E12540B
:102A70004C5003022B71124DF18F0D8E0C8D0B8C6F
:102A80000AE4F508E508C3951A5049AF0DAE0CAD40
:102A90000BAC0A78011212CE8F0D8E0C8D0B8C0AA6
:102AA00030D72DE47F01FEFDFC74942508F582E407
:102AB0003406F583E0F9F81212E1E5114FF511E55E
:102AC000104EF510E50F4DF50FE50E4CF50E05090E
:102AD000050880B0E509C394024015D203E50994C6
:102AE00003400512544F80081253D9EF6002C2030D
:102AF00020032CE4FFFEFDFCAB11AA10A90FA80EC9
:102B0000C31212BD60109006E0E004F0700690065B
:102B1000DFE004F08020E49006DFF0A3F08017905F
:102B200006DDE004F070069006DCE004F0E4F51148
:102B3000F510F50FF50E125350C39006E0E09F908C
:102B400006DFE09E400A12544FE49006DFF0A3F047
:102B5000D39006DDE0942C9006DCE09401401D1239
:102B6000544F9006FA7401F0E49006DCF0A3F08074
:102B70000B90547FE4740193FF122050AF11AE10FC
:102B8000AD0FAC0E229005A1E054FEF0E04402F03F
:102B9000E054FBF0E490004FF0A3F0900016F0A397
:102BA000F0900004F0900003F09005A7E054EFF0DF
:102BB000E4900767F090001DF0A3F090001AF090E9
:102BC00000FFF090030BF0900019F09000F9F0A3D3
:102BD000F0900001F0A3F090021FF0A3F090000D20
:102BE000F0A3F0900356F0A3F0900018F09000FDD1
:102BF000F0A3F0900308F0A3E054FEF0A3E054FD2E
:102C0000F0E054EFF0900309E054FDF0A3E054F736
:102C1000F0E054FBF0E49003A6F0900012F0A3F073
:102C200090001BF090055F7405F090030DE054FBDD
:102C3000F0E4900814F090030DE054FEF0E054FD31
:102C4000F0900005E09000E5F090000F74FFF0A315
:102C50007423F0A374ACF090001574FFF090030A95
:102C6000E090055B30E50F7406F090030AE054DF56
:102C7000F01253F180037405F090030CE04402F06D
:102C80009004257402F090001C74FFF090000CF08A
:102C9000E4900358F0229007E0EBF0A3EAF0A3E9F8
:102CA000F09007E0E0FBA3E0FAA3E0F94A7003022A
:102CB0002D9912116BFF75F009A4243AF582E434C2
:102CC00007F583EFF0900001121184FF12116BFEE3
:102CD00075F009A4243BF582E43407F583EFF09006
:102CE0000002121278FDACF0EE75F009A4243CF558
:102CF00082E43407F583ECF0A3EDF09000041211A8
:102D000084FF12116BFE75F009A4243EF582E434B1
:102D100007F583EFF0900005121184FFEE75F009BE
:102D2000A4243FF582E43407F583EFF07B00EE75D1
:102D3000F009A42440F582E43407F583EBF0A3F016
:102D4000A3F0EE14601B14602614603114603C2460
:102D50000470469007E0E0FBA3E0FAA3E0F9023834
:102D6000879007E0E0FBA3E0FAA3E0F902391D90A9
:102D700007E0E0FBA3E0FAA3E0F90237579007E091
:102D8000E0FBA3E0FAA3E0F90235839007E0E0FB63
:102D9000A3E0FAA3E0F91236202290056074A5F0B2
:102DA000A3745AF0A37404F09005B3E0FDC454F08A
:102DB000900564F09005EDE030E160900563740DDE
:102DC000F0A3E0440AF09005EDE030E30AE054F7A8
:102DD000F090055F74FFF09005A2E0900565F0901B
:102DE00005A9E0900566F090055FE0900567F0901A
:102DF00005A1E0541F900568F09000FBE0FEA3E001
:102E0000900569F0EEA3F0900822E054F0FF9008DE
:102E10001FE0540F4F90056BF08044900563740AD7
:102E2000F0A3E04409F0A37402F0E490057EF0A35F
:102E30007468F0E4A3F090057EE0900566F09005DC
:102E40007FE0900567F0E4A3F0EDC4540FFFBF09E5
:102E50000E9005B1E0B440079005EDE04402F01299
:102E60005085900563E0245FF582E43405F583EF37
:102E7000F07B017A057960900563E0FF9007E0E45C
:102E8000F0A3EFF07F01024FC0900814E075F00A44
:102E900084AFF090063DEFF090063CF090063BF0DA
:102EA00090080FE0C313A3E0135401FF900634E031
:102EB00054FE4FF090080FE0FEA3E07802CEC3135B
:102EC000CE13D8F95401FF900636E054FE4FF0902F
:102ED000080FE0FEA3E07803CEC313CE13D8F95455
:102EE00001FF90062CE054FE4FF090080FE0C4F86C
:102EF00054F0C8A3E0C4540F485401FF900630E0DA
:102F000054FE4FF090080FE0FEA3E07805CEC31307
:102F1000CE13D8F95401FF900638E054FE4FF090DC
:102F2000080FE0FEA3E07806CEC313CE13D8F95401
:102F300001FF90062EE054FE4FF090080FE0FEA334
:102F4000E07807CEC313CE13D8F95401FF90062AB8
:102F5000E054FE4FF090080FE05401FF900632E07D
:102F600054FE4FF022C0E0C0F0C083C082C0D075D4
:102F7000D000C000C001C002C003C004C005C0062C
:102F8000C007E59530E13F439502D3900712E094E6
:102F900000900711E09400402A900729E0FBA3E08D
:102FA000FAA3E0F912116BF59F90072AE475F0017E
:102FB00012124C900712E024FFF0900711E034FF4A
:102FC000F080031253FFE59530E0574395019007D9
:102FD0000BE0FEA3E0FFD3900706E09F900705E01B
:102FE0009E403F900720E0FBA3E0FAA3E0F9E59FB5
:102FF0001211B1900721E475F00112124C90070CE8
:10300000E004F0700690070BE004F090070BE0FE80
:10301000A3E0FF900705E0B50608A3E0B50703129B
:103020005387D007D006D005D004D003D002D001FA
:10303000D000D0D0D082D083D0F0D0E03290030D39
:10304000E020E6030231029005EDE030E035E030AB
:10305000E431900820E475F00112124CFEC3E5F053
:103060009470EE9417400D9008207417F0A37470BC
:10307000F00230F890081F740FF090030DE030E17B
:1030800074805BE4900820F0A3F090055BE024FCE2
:10309000603914604314604D1460522404705990D8
:1030A00003A6E024FB600B04701090081F740DF061
:1030B000800E90081F7407F0800690081F740EF0B1
:1030C00090030DE030E1028015802A90081F740102
:1030D000F09008227410F02290081F7404F09008F9
:1030E000227460F02290081F7402F0800890082378
:1030F000E090081FF0E48005E490081FF09008229B
:10310000F022E490081FF0900822F0900820F0A32D
:10311000F022C0E0C0F0C083C082C0D075D000C033
:1031200000C001C002C003C004C005C006C0073013
:10313000993EC299D390071CE0940090071BE0943D
:1031400000402A900736E0FBA3E0FAA3E0F9121151
:103150006BF599900737E475F00112124C90071C3B
:10316000E024FFF090071BE034FFF080031253F9D6
:10317000309856C298900719E0FEA3E0FFD390075D
:1031800014E09F900713E09E403F900733E0FBA3BD
:10319000E0FAA3E0F9E5991211B1900734E475F073
:1031A0000112124C90071AE004F07006900719E023
:1031B00004F0900719E0FEA3E0FF900713E0B506C6
:1031C00008A3E0B507031253A5D007D006D005D059
:1031D00004D003D002D001D000D0D0D082D083D090
:1031E000F0D0E03290081CE0FEA3E07803CEC313D9
:1031F000CE13D8F913B392059005A1E030E211A2E5
:1032000005E4335401FF900628E054FE4FF0800798
:10321000900628E054FEF090061CE054FEF0900565
:10322000A1E030E011A205E4335401FF90061CE058
:1032300054FE4FF0800790061CE054FEF09003A669
:10324000E0FF64016009EF64026004EFB40311A2BF
:1032500005E4335401FF90061EE054FE4FF0800752
:1032600090061EE054FEF09003A6E0FCB40411A208
:1032700005E4335401FE900624E054FE4EF080072E
:10328000900624E054FEF0ECB40510A205E433549B
:1032900001FF900626E054FE4FF02290055BE0907F
:1032A0000626B40605E04401F022E054FEF0229028
:1032B000082DE0FF900829E06F6029EF7019C39096
:1032C000082CE0940290082BE09400400A90082A11
:1032D000E0B4050302516F90082DE0900829F0A397
:1032E0007405F02290082DE0700B90082BF0A3F0ED
:1032F00090082AF02290082CE004F0700690082B29
:10330000E004F090082BE0FEA3E0FF64324E701B57
:10331000900829E0B4021490055BE0FD6403600BA3
:10332000ED6404600690082A7403F0C3EF942CEE59
:103330009401401390082AE0B40103D38001C340F4
:103340000690082A7403F0C390082CE094F49008C7
:103350002BE09401401A7401F0A374F4F090082A51
:10336000E0B40103D38001C3400690082A7404F03E
:10337000229007E6EFF012531E9007E7EFF0900758
:10338000E6E0FF125295EFFB9007F8E025E0FF9092
:1033900007F7E033FE7C007D0A1211F7AD037C00D5
:1033A0001211E59007E6E0FD75F002A4247CF58299
:1033B000E5F03406F583E0FAA3E0C39FEA9E5009E6
:1033C0009007E7E0605F14804D9007E6E0FF12523F
:1033D00095EFFB9007F7E0FEA3E0FF7C007D07126E
:1033E00011E57D0A1211F7AD037C001211E590077B
:1033F000E6E0FD75F002A4247CF582E5F03406F5E4
:1034000083E0FAA3E0D39FEA9E401A9007E7E0FF2B
:10341000647E6011EF04FF74D42DF582E43406F568
:1034200083EFF0D2042290030DE020E2291244F051
:1034300050181250C3E4335401C43333335480FF63
:103440009005A9E0547F4FF08008124A675007901A
:1034500005A9E04410F09005A2E04402F0900012AB
:10346000E0FEA3E0FF4E6009900309E030E15B80DD
:10347000349005EFE07002A3E060079005A1E044FE
:1034800002F074FF9000FBF0A3F09005A1E044016E
:10349000F09005A9E04402F0123D5E500B90000D43
:1034A000E0FEA3E0FF02407D90000EE0245AFF9072
:1034B000000DE03400FEC39000FAE09F9000F9E0B8
:1034C0009E4013900309E04402F090000FA3E0FA3D
:1034D000A3E0F912136B22900829E0FB6404703218
:1034E00090082AE06402702A90055F7402F090064A
:1034F00030E0FE7D0020E0027D01ED5401FCEE5441
:10350000FE4C900630F0ED5401FF90061CE054FE96
:103510004FF0EB6401703190082AE064027029904A
:10352000055F7402F0900634E0FF7E0020E0027E2A
:1035300001EE5401FEEF54FE4E900634F05401FFAC
:10354000900628E054FE4FF0900829E0640670329F
:1035500090082AE06402702A90055F7402F09006D9
:103560002EE0FF7E0020E0027E01EE5401FDEF54CC
:10357000FE4D90062EF0EE5401FF90061EE054FE24
:103580004FF0229007E3EBF0A3EAF0A3E9F09007F5
:10359000E3E0FBA3E0FAA3E0F94A700302361F75EB
:1035A000CE0390000412118442C8900001121184CD
:1035B00042C9900002121278AEF0FBE4C39BFFE414
:1035C0009EFE74019400FDE49400FCE4FB7A01F992
:1035D000F81248E4AF038FCA9007E3E0FBA3E0FAD8
:1035E000A3E0F9900002121278AEF0FBE4C39BFF57
:1035F000E49EFE74019400FDE49400FCE4FB7A0177
:10360000F9F81248E48FCB9007E3E0FBA3E0FAA3BC
:10361000E0F990000512118442B953A9BFC2CA2231
:103620009007E3EBF0A3EAF0A3E9F09007E3E0FBF7
:10363000A3E0FAA3E0F94A70030236BC75CE049009
:10364000000412118442C890000112118442C990F2
:103650000002121278AEF0FBE4C39BFFE49EFE74FE
:10366000019400FDE49400FCE4FB7A01F9F81248AF
:10367000E4AF038FCA9007E3E0FBA3E0FAA3E0F90D
:10368000900002121278AEF0FBE4C39BFFE49EFEB2
:1036900074019400FDE49400FCE4FB7A01F9F81253
:1036A00048E48FCB9007E3E0FBA3E0FAA3E0F990B6
:1036B000000512118442B953A97FC2CA2278FFE4DF
:1036C000F6D8FD9000007FFF7E10E4F0A3DFFCDE63
:1036D000FA75812002371202461FE493A3F8E4939F
:1036E000A34003F68001F208DFF48029E493A3F8F5
:1036F0005407240CC8C333C4540F4420C883400467
:10370000F456800146F6DFE4800B01020408102025
:103710004080900100E47E019360BCA3FF543F30E1
:10372000E509541FFEE493A360010ECF54C025E0C9
:1037300060A840B8E493A3FAE493A3F8E493A3C881
:10374000C582C8CAC583CAF0A3C8C582C8CAC58312
:10375000CADFE9DEE780BE9007E3EBF0A3EAF0A35F
:10376000E9F09007E3E0FBA3E0FAA3E0F94A607F09
:1037700075CE0290000412118442C890000112110B
:103780008442C9900002121278AEF0FBE4C39BFFA2
:10379000E49EFE74019400FDE49400FCE4FB7A01D5
:1037A000F9F81248E4AF038FCA9007E3E0FBA3E007
:1037B000FAA3E0F9900002121278AEF0FBE4C39B8A
:1037C000FFE49EFE74019400FDE49400FCE4FB7AA7
:1037D00001F9F81248E48FCB9007E3E0FBA3E0FA8D
:1037E000A3E0F990000512118442B8C2ADC2CA220A
:1037F00075FE8543FF2053DB7FD2AFC204E4900700
:10380000FCF09006DEF012453EE4FF124CCBEF24B4
:1038100001FDE433FC7E0F7FA01211F79007F7EE55
:10382000F0A3EFF0E4FF1252957E009007F7E0FC62
:10383000A3E0FD1211E58EE78FE67F02124CCBEF7D
:10384000C454F0FEC006E4FF124CCBD0E02FF5E1EB
:103850007F03124CCBE5E254804FF5E27F04124C1B
:10386000CBEF6008E5E254804480F5E27F01124C22
:10387000CB8FE312400E43A910900694E04480F5EC
:10388000E8123B62024C309007E3EBF0A3EAF0A3AE
:10389000E9F09007E3E0FBA3E0FAA3E0F94A607CDB
:1038A000900004121184428E90000112118442890A
:1038B000900002121278AEF0FBE4C39BFFE49EFE80
:1038C00074019400FDE49400FCE4FB7A01F9F81221
:1038D00048E4AF038F8A9007E3E0FBA3E0FAA3E09C
:1038E000F9900002121278AEF0FBE4C39BFFE49E55
:1038F000FE74019400FDE49400FCE4FB7A01F9F805
:103900001248E48F8C9007E3E0FBA3E0FAA3E0F910
:1039100090000512118442B8C2A9C28C229007E31C
:10392000EBF0A3EAF0A3E9F09007E3E0FBA3E0FAF1
:10393000A3E0F94A607C900004121184428E90004A
:10394000011211844289900002121278AEF0FBE459
:10395000C39BFFE49EFE74019400FDE49400FCE42C
:10396000FB7A01F9F81248E4AF038F8B9007E3E08C
:10397000FBA3E0FAA3E0F9900002121278AEF0FB8C
:10398000E4C39BFFE49EFE74019400FDE49400FCFC
:10399000E4FB7A01F9F81248E48F8D9007E3E0FB2D
:1039A000A3E0FAA3E0F990000512118442B8C2AB7B
:1039B000C28E22C0E0C0F0C083C082C0D075D000EB
:1039C000C000C001C002C003C004C005C006C007DB
:1039D00090073CE0FEA3E0FBAA06E4C39BFFE49E45
:1039E000FE74019400FDE49400FCE4FB7A01F9F814
:1039F0001248E4AF038F8A90073CE0FEA3E0FBAAE5
:103A000006E4C39BFFE49EFE74019400FDE4940071
:103A1000FCE4FB7A01F9F81248E48F8C900740A38C
:103A2000E0FAA3E0F912136BD007D006D005D0045A
:103A3000D003D002D001D000D0D0D082D083D0F03B
:103A4000D0E032C0E0C0F0C083C082C0D075D000EA
:103A5000C000C001C002C003C004C005C006C0074A
:103A6000900745E0FEA3E0FBAA06E4C39BFFE49EAB
:103A7000FE74019400FDE49400FCE4FB7A01F9F883
:103A80001248E4AF038F8B900745E0FEA3E0FBAA4A
:103A900006E4C39BFFE49EFE74019400FDE49400E1
:103AA000FCE4FB7A01F9F81248E48F8D900749A3F2
:103AB000E0FAA3E0F912136BD007D006D005D004CA
:103AC000D003D002D001D000D0D0D082D083D0F0AB
:103AD000D0E032C2AF75FEC1AFFFD2AFEF5430FDC0
:103AE0007C0070047920801CED64104C7004791007
:103AF0008012ED64204C700479088008ED64304C2D
:103B000070027904E924F8601824F8602024F06039
:103B100028241C70309007E07401F0A374F4F08046
:103B2000269007E07403F0A374E8F0801A9007E091
:103B30007407F0A374D0F0800E9007E0740FF0A328
:103B400074A0F08002E4F99007E0E07002A3E06066
:103B5000109007E1E024FFF09007E0E034FFF080F0
:103B6000E6229054D3E4939007DEF0124F52E49093
:103B700007DFF09007DFE0FFC3951A5034E0FE75D1
:103B8000F002A4249CF582E5F03406F583E0FCA362
:103B9000E0FD75F002EEA4247CF582E5F03406F534
:103BA00083ECF0A3EDF01233719007DFE004F080B6
:103BB000C29007DEE0FF14F0EF70B0124C641253B5
:103BC000D19007DEEFF0124F52E49007DFF090073C
:103BD000DFE0FFC3951A500B12220C9007DFE004C0
:103BE000F080EB9007DEE0FF14F0EF70D922900731
:103BF000E3EBF0A3EAF0A3E9F0E4FDFCEF146020AE
:103C00001460331460462403705A9007E3E0FBA36A
:103C1000E0FAA3E0F9A3E0FCA3E0FD1242FC80403F
:103C20009007E3E0FBA3E0FAA3E0F9A3E0FCA3E044
:103C3000FD124352802A9007E3E0FBA3E0FAA3E0E1
:103C4000F9A3E0FCA3E0FD1243A880149007E3E091
:103C5000FBA3E0FAA3E0F9A3E0FCA3E0FD12424AD3
:103C6000AC06AD07AE04AF05229007E4EBF0A3EA83
:103C7000F0A3E9F0E4FDFCEF14602014603314605D
:103C8000462403705A9007E4E0FBA3E0FAA3E0F9AE
:103C9000A3E0FCA3E0FD12481580409007E4E0FBA0
:103CA000A3E0FAA3E0F9A3E0FCA3E0FD1247418002
:103CB0002A9007E4E0FBA3E0FAA3E0F9A3E0FCA369
:103CC000E0FD12478880149007E4E0FBA3E0FAA32C
:103CD000E0F9A3E0FCA3E0FD1245D5AC06AD07AECC
:103CE00004AF05229005A1E04401F09005EFE070DB
:103CF00002A3E060079005A1E04402F07FF47E0893
:103D0000123DDF123D5E50559005A1E054FEF0904B
:103D10000016E0FEA3E0FF9005AAE0FCA3E0FD2F63
:103D2000FFEC3EFEC3EF942AEE9407501D9000175F
:103D3000E02DF0900016E03CF07F071249EA900574
:103D4000A1E04404F0E054FEF02290030AE04410A5
:103D5000F090000FA3E0FAA3E0F912136B22900099
:103D600016E0FEA3E0FF9005ABE02FFF9005AAE070
:103D70003EFED39000FCE09F9000FBE09E4015903B
:103D80000050E02405FD90004FE03400FCC3EF9D9F
:103D9000EE9C400D90004FEEF0A3EFF0E490000495
:103DA000F090030CE030E40F900004E004F0C394C2
:103DB0000A4004E4F0D322C39000FAE09478900023
:103DC000F9E09400400F90001BE064106007E4905D
:103DD0000004F0D322C322900012E0FEA3E0FF9083
:103DE00007DCEEF0A3EFF0900016E0FCA3E0FD90FE
:103DF00005ABE02DFD9005AAE03CFCC3ED9FEC9ED9
:103E0000402690030AE054EFF09005EFE07002A323
:103E1000E060079005A1E04402F090000FA3E0FAF3
:103E2000A3E0F912136B801490030DE09005A93004
:103E3000E506E04408F08004E04402F09007DCE08E
:103E4000FFA3E09000FBCFF0A3EFF022C2029007A7
:103E5000FCE075F002A4249CF582E5F03406F583BD
:103E6000E5E5F0A3E5E4F09007FCE004F0E0C3959D
:103E70001A400BE4F09006DEE04480F08002D202AB
:103E80009007FCE0FF1252957E009007F7E0FCA33C
:103E9000E0FD1211E58EE78FE69007FCE0FF12537C
:103EA0001EE5E254804FF5E29007FCE02494F58291
:103EB000E43406F583E04480F5E8300202D2EE22D5
:103EC0009005A1E04401F09005EFE07002A3E060EE
:103ED000079005A1E04402F0123DD7123D5E50521A
:103EE000900016E0FEA3E0FF9005ABE02FFF9005E9
:103EF000AAE03EFEC3EF947EEE9415400E90000FB4
:103F0000A3E0FAA3E0F912136B80209005AAE0FE6B
:103F1000A3E0FF900017E02FF0900016E03EF07F46
:103F2000071249EA9005A1E04404F09005A1E0548D
:103F3000FEF0221213313F86000080003F8E000108
:103F400000003F92000200003F7E000400003F8A14
:103F5000001000003F82002000003F76004000007B
:103F60003F9A005000003F7A008000003F96008298
:103F7000000000003F9E7B0180267B0280227B03A5
:103F8000801E7B04801A7B0580167B0680127B07CF
:103F9000800E7B08800A7B1C80067B108002E4FB7D
:103FA000AF03229005A9E04401F090030AE030E15C
:103FB00026900308E0FF9005F1E0C39F50451251A1
:103FC000D8E4335401FF9005A2E054FE4FF0900373
:103FD0000AE054FDF0802C9005F1E0FFD39000132F
:103FE000E09F900012E09400500990030AE0440220
:103FF000F080101251D8E4335401FF9005A2E05430
:10400000FE4FF090000DE0FEA3E0FF02407DE4FFD4
:10401000EFC3951A504674AC2FF582E43406F5834D
:10402000E4F074CC2FF582E43406F583E4F074F206
:104030002FF582E43406F583E4F075F002EFA42452
:10404000BCF582E5F03406F583E4F0A3F074B42FF8
:10405000F582E43406F583E4F00F80B4E4F515F559
:1040600014F513F5129007F674FFF0E49007F9F0D9
:10407000A3F0C20422900012E0FEA3E0FFEF4E6026
:1040800053C39000FAE09F9000F9E09E40469003F1
:104090000DE030E20690055F7402F090001BE0B482
:1040A000150790030AE054FBF090030AE054FEF079
:1040B000900309E054FDF0A3E054FDF0900309E003
:1040C00054FEF0E4900308F090000FA3E0FAA3E0A0
:1040D000F912136B22E49007EEF09007EEE0A3F0E4
:1040E0007F0025E0FE9007F2F0A3EFF02402FFE44A
:1040F0003EFE7D0212523B9007F0EFF09007F3E096
:1041000024039007F21252349007F1EFF09007F079
:10411000E0B4A00BA3E0B4B0069007EFE0FF22905C
:1041200007EEE004F0E0D3940C40AFE4FFFE12543D
:10413000677F0022AD07AC069007DDE5F4F0A2AF83
:10414000E433A3F0AFDFA3E4F0A3EFF0C2AF75F464
:1041500002ECF5F3AF058FF2AFF3EFFEADF27C00AA
:10416000E42DEC3EC39418501475F1F075F620431D
:10417000F60200000000800500000000009007DD4E
:10418000E0F5F49007DFA3E0F5DF9007DEE024FF21
:1041900092AF2290081CE0C313A3E0137C005401EB
:1041A000FD90081CE0FEA3E07806CEC313CE13D822
:1041B000F954016D7001EC60357E0090081DE054EB
:1041C000027805C333CE33CED8F9FF90081CE0FC4B
:1041D000A3E054BFFDEC4EFEED4FFF90081CEEF047
:1041E000A3EFF0900828E090082DF01232AF229053
:1041F00007DCEBF0A3EAF0A3E9F0A3EDF09007F4FD
:10420000E025E09007ECF0A3E4F09007EBF09007D6
:10421000DFE0FF9007EBE0FEC39F502DEEFF90071D
:10422000EDE02F9007EC1252349007DCE0FBA3E0A6
:10423000FAA3E0F99007EBE0F582758300EF121125
:10424000C39007EBE004F080C522E49007E8F0A3F8
:10425000F0C3ED9401EC9400500B9007E8E4F0A358
:104260007480F0803590072FEBF0A3EAF0A3E9F01B
:10427000AF05900717ECF0A3EFF075DC0212116B9D
:10428000F5C7900730E475F00112124C900718E062
:1042900024FFF0900717E034FFF09007E8E0FEA35A
:1042A000E0FF229005A1E04401F09005EFE07002EC
:1042B000A3E060079005A1E04402F090030DE090B8
:1042C00005A930E506E04408F08004E04402F0125D
:1042D0004075123D5E50249005AAE0FEA3E0FF90D9
:1042E0000017E02FF0900016E03EF07F071249EA39
:1042F0009005A1E04404F0E054FEF022E49007E8C9
:10430000F0A3F0C3ED9401EC9400500B9007E8E4A7
:10431000F0A37480F08032900736EBF0A3EAF0A3AC
:10432000E9F0AF0590071BECF0A3EFF012116BF56D
:1043300099900737E475F00112124C90071CE024A5
:10434000FFF090071BE034FFF09007E8E0FEA3E0E9
:10435000FF22E49007E8F0A3F0C3ED9401EC940091
:10436000500B9007E8E4F0A37480F08032900729A6
:10437000EBF0A3EAF0A3E9F0AF05900711ECF0A38E
:10438000EFF012116BF59F90072AE475F0011212FD
:104390004C900712E024FFF0900711E034FFF090FA
:1043A00007E8E0FEA3E0FF22E49007E8F0A3F0C3F3
:1043B000ED9401EC9400500B9007E8E4F0A37480B6
:1043C000F0803290072CEBF0A3EAF0A3E9F0AF0500
:1043D000900715ECF0A3EFF012116BF5A790072DE5
:1043E000E475F00112124C900716E024FFF09007DC
:1043F00015E034FFF09007E8E0FEA3E0FF22E49030
:1044000007DEF0A3F0439340439320439380F59657
:10441000F5979007DEF0A3F09007DEE0FEA3E0FF43
:10442000C3940DEE648094805024EF25E0FFEE33BA
:10443000FE74B02FF974073EFA7B01124BC490074B
:10444000DFE004F070D29007DEE004F080CA02538F
:104450002B90081CE0FEA3E07802CEC313CE13D845
:10446000F95401FD90081CE054016D7001E46031C5
:104470007E00A3E054047806C333CE33CED8F9FFD0
:1044800090081CE054FEFCA3E0FDEC4EFEED4FFF57
:1044900090081CEEF0A3EFF01253E9121C4D1230FD
:1044A0003D2290058174A5F0A3745AF0A37404F022
:1044B000A37406F0A3740CF0900816E030E00790A7
:1044C0000585E04440F01250A4900584E02480F576
:1044D00082E43405F583EFF07B017A05798190055C
:1044E00084E0FF9007E0E4F0A3EFF0E4FF024FC0A8
:1044F000900005E0FFAD0790030DE030E41EED7580
:10450000F003A424E8F582E43400F583E0FEA3E0A0
:104510007803CEC313CE13D8F920E01EED75F00357
:10452000A424E8F582E43400F583E0FEA3E07802F9
:10453000CEC313CE13D8F930E002D322C322905455
:104540007574019390067BF090548F7401939006DC
:10455000E1F012458AE4F508E508C3951A5023E511
:104560000875F008A42495F582E43454F583E493A7
:10457000FF74D42508F582E43406F583EFF00508CE
:1045800080D6E49006DFF0A3F022E4F509F50AF501
:104590000E750D80750CF7F50BF509AF0EAE0DAD70
:1045A0000CAC0B78011212CE8F0E8E0D8D0C8C0B75
:1045B00030D7177494250AF582E43406F583E509AB
:1045C000F0050AE50AC3940850070509E509B41F78
:1045D000CA850A1A22E49007E9F0A3F0C3ED94011A
:1045E000EC9400500B9007E9E4F0A37480F080266F
:1045F000E490071FF090070FF0A3F0AF05900709B4
:10460000ECF0A3EFF0900726EBF0A3EAF0A3E9F0BB
:1046100075DC0243C4109007E9E0FEA3E0FF22121C
:104620005045EF24FFE433540125E025E0FE9003DC
:104630000CE054FBFCA3E0FDEC4EFFED90030CCF2F
:10464000F0A3EFF0D200121E6912545E124ADE90FF
:10465000081DE030E0F3E054FEF0124E7C1247CF2C
:104660001244511226B880E1C0E0C0F0C083C0827D
:10467000C0D075D000C000C001C002C003C004C0DB
:1046800005C006C00775CE03C2CF90075BA3E0FA52
:10469000A3E0F912136BD007D006D005D004D003E5
:1046A000D002D001D000D0D0D082D083D0F0D0E0E2
:1046B00032EEFF7E00E4FCFD9007E47402F0900708
:1046C000E01212F49007E5E5F4F0A2AFE433F9C28A
:1046D000AF9007E4E0F5F49007E0A3A3E0FEA3E0C9
:1046E0002400F582E43EF583E493FF9007E5E0F5CE
:1046F000F4AE01EE24FF92AF22E49007DEF0A3F0C7
:104700009007DEF0A3F09007DEE0FEA3E0FFC39485
:1047100002EE648094805028EF7802C333CE33CE0B
:10472000D8F92407F58274083EF583E0FF12513969
:104730009007DFE004F070CE9007DEE004F080C662
:1047400022E49007E9F0A3F0C3ED9401EC9400504B
:104750000B9007E9E4F0A37480F08023E490071D38
:10476000F090070BF0A3F0AF05900705ECF0A3EF76
:10477000F0900720EBF0A3EAF0A3E9F04395109046
:1047800007E9E0FEA3E0FF22E49007E9F0A3F0C30D
:10479000ED9401EC9400500B9007E9E4F0A37480D1
:1047A000F08023E490071EF090070DF0A3F0AF0512
:1047B000900707ECF0A3EFF0900723EBF0A3EAF0EB
:1047C000A3E9F043A4109007E9E0FEA3E0FF2290E4
:1047D0000630E05401FD9005A1E054FE4DF0ED548B
:1047E0000125E0FF9005A9E054FD4FF074FF900013
:1047F000FBF0A3F0900634E0540125E0FF9005A201
:10480000E054FD4FF090062EE05401FF9005A9E022
:1048100054FE4FF022E49007E9F0A3F0C3ED9401B9
:10482000EC9400500B9007E9E4F0A37480F0802230
:10483000E4900732F0900719F0A3F0AF059007134A
:10484000ECF0A3EFF0900733EBF0A3EAF0A3E9F06C
:10485000D29C9007E9E0FEA3E0FF229005A1E0448E
:1048600001F09005EFE07002A3E060079005A1E081
:104870004402F0123DD7123D5E50249005AAE0FE9E
:10488000A3E0FF900017E02FF0900016E03EF07FCD
:10489000071249EA9005A1E04404F0E054FEF0223A
:1048A000E49007DEF0A3F09007DEF0A3F09007DEBF
:1048B000E0FEA3E0FFC39401EE6480948050247C6A
:1048C000007D091211E574FE2FF974073EFA7B0191
:1048D000122C969007DFE004F070D29007DEE0041F
:1048E000F080CA22C2D5E830E70FB2D5E4C39BFB03
:1048F000E49AFAE499F9E498F8EC30E717B2D512A3
:10490000491A1213ADE4C39BFBE49AFAE499F9E463
:1049100098F880031213AD30D50DE4C39FFFE49ED9
:10492000FEE49DFDE49CFC227B017A0579AF9007B3
:10493000E1E4F0A3741EF07F01124FE27F011252F6
:10494000497B017A0579CD9007E1E4F0A3741EF06C
:10495000E4FF124FE2E4FF1252499005EDE054FDEE
:10496000F0E054FEF0E04408F02290063D740AF0B6
:1049700090063CF090063BF0900628E054FEF09044
:104980000626E054FEF0900624E054FEF090062245
:10499000E054FEF0900620E054FEF090061EE05435
:1049A000FEF090061CE054FEF02290063D7408F0E4
:1049B00090063CF090063BF0900628E04401F09011
:1049C0000626E04401F0900624E04401F09006221F
:1049D000E04401F0900620E04401F090061EE0441F
:1049E00001F090061CE04401F02290055BE06408B1
:1049F000603790078EE025E025E02469F582E434F5
:104A000007F583E0FEEF25E025E02469F582E43434
:104A100007F583E0D39E401190078EEFF090055F7D
:104A20007404F090078D743CF02290030DE020E4B4
:104A30001890030AE030E4059005A9802290000F49
:104A4000A3E0FAA3E0F902136B1250C3E43354015C
:104A5000C43333335480FF9005A9E0547F4FF0E016
:104A60004410F012407522900005E0FFAD0790035E
:104A70000DE030E317ED75F003A424E8F582E4348B
:104A800000F583E0C313A3E01320E013ED75F003FA
:104A9000A424E8F582E43400F583A3E030E002D3F7
:104AA00022C322C0E0C0F0C083C082C0D075D00055
:104AB000C000C001C002C003C004C005C006C007DA
:104AC000123E4CD007D006D005D004D003D002D07F
:104AD00001D000D0D0D082D083D0F0D0E032900688
:104AE000DEE030E733122A639008241212F49008B3
:104AF00024E0FCA3E0FDA3E0FEA3E0FF123F33901F
:104B00000828EFF09006DEE0547FF0125449900838
:104B1000241213000000000022900638E054FEF03A
:104B2000900636E054FEF0900634E054FEF0900615
:104B300032E054FEF0900630E054FEF090062EE095
:104B400054FEF090062CE054FEF090062AE054FE4D
:104B5000F022900638E04401F0900636E04401F07F
:104B6000900634E04401F0900632E04401F09006F3
:104B700030E04401F090062EE04401F090062CE075
:104B80004401F090062AE04401F02290030AE0304C
:104B9000E2251250C3E4335401C43333335480FF4D
:104BA0009005A9E0547F4FF0E04410F0900012E02F
:104BB000FEA3E0FF02407D90000FA3E0FAA3E0F91E
:104BC00012136B22E94A603312116B1460131460E4
:104BD0001914601F24037023900001121184429C59
:104BE000229000011211844294229000011211843B
:104BF00042A32290000112118442B32253A1FC432C
:104C0000A20343984075CE0243C83043C98075CB98
:104C10000D75CA05C2CAC2ADC2ACE4900704F090DB
:104C20000732F090071BF0A3F0900719F0A3F022D1
:104C3000E4FFEFC3951A502B75F002EFA4249CF506
:104C400082E5F03406F583E0FCA3E0FD75F002EFA9
:104C5000A4247CF582E5F03406F583ECF0A3EDF0B6
:104C60000F80CF22E4FFEFC3951A502B75F002EFAF
:104C7000A4249CF582E5F03406F583E0FCA3E0FD76
:104C800075F002EFA424E2F582E5F03406F583EC3A
:104C9000F0A3EDF00F80CF229000F9E0FEA3E0FF3B
:104CA0007C007D1E1211F7C3ED940AEC94004010B5
:104CB0001251D8E4335401FF9005A2E054FE4FF0A6
:104CC000900012E0FEA3E0FF02407DEF146012149A
:104CD000601414601814601A2404701E905491809B
:104CE000089054928003905493E493FF22E4FF02CF
:104CF000531E905483740193FF227F002275DC02BF
:104D0000539AF3439B0C438EC075C44075C505751B
:104D1000C60D53C4EF53AAFDE4900703F090071F9C
:104D2000F0900717F0A3F090070FF0A3F022D20144
:104D300012116BFF131313541F20E01AEFC4540F0A
:104D400030E01690030CE0FEA3E07803CEC313CE50
:104D500013D8F930E003D38001C39201A20122D21B
:104D60000112116BFFC413540720E01BEFC413138F
:104D7000540330E01590030CE0C4F854F0C8A3E0ED
:104D8000C4540F4830E003D38001C39201A2012232
:104D90009005F1E0C39414501590030AE04404F028
:104DA0001244F05010900019E0240AF0800790039C
:104DB0000AE054FBF090000FA3E0FAA3E0F902131D
:104DC0006B900626E054FEF0900624E054FEF0902E
:104DD000061EE054FEF090061CE054FEF09005A183
:104DE000E054041313543FFF900628E054FE4FF0A4
:104DF00022E49007FDF09007DCF09007DCE0FFC3B1
:104E0000951A501312220C9007DCE0FF1209A590AE
:104E100007DCE004F080E3AF15AE14AD13AC122252
:104E2000539A9F439B60438F30759540759D0575E0
:104E30009E0D5395EF53A9FEE4900739F090071D9E
:104E4000F0900711F0A3F090070BF0A3F02253911C
:104E5000F543920A438FC075A44075A50575A60D4C
:104E600053A4EF53AAFEE4900702F090071EF090BF
:104E70000715F0A3F090070DF0A3F02212419390D4
:104E80000811E0FF900829E0FEB5070C900812E039
:104E9000FF90082AE06F6010900811EEF090082A49
:104EA000E0900812F01234D7229005A9E04401F0F6
:104EB000900012E0FEA3E0FF124F2B1251D8E43312
:104EC0005401FF9005A2E054FE4FF090000DE0FE6B
:104ED000A3E0FF02407DAD07ED75F008A42497F52F
:104EE00082E43454F583E493FEED75F008A424982D
:104EF000F582E43454F583E4937C002400FFEC3E17
:104F0000FE229005A9E04401F01251D8E433540187
:104F1000FF9005A2E054FE4FF090030AE04401F038
:104F2000900012E0FEA3E0FF024F2B9005F1E0C3DA
:104F30009FE49E401C900309E04401F0A3E030E0B0
:104F400010E054FEF090000FA3E0FAA3E0F9121372
:104F50006B22E4FE9006DEE0547FF0D2EE9006DE97
:104F6000E054807011123AD343CF100EEEC3946414
:104F70007480948040E7221250C3E4335401C43358
:104F800033335480FF9005A9E0547F4FF0E0441084
:104F9000F0900012E0FEA3E0FF02407DE490078E57
:104FA000F0900426E0FF90055FB403057402F080E2
:104FB000037407F090055BEFF09000187401F02285
:104FC000EF25E025E02407F582E43408F583E0FFCF
:104FD0009007E0E0FDA3E09007E6CDF0A3EDF0023E
:104FE0003BEEEF25E025E02407F582E43408F58365
:104FF000E0FF9007E1E0FDA3E09007E7CDF0A3ED2F
:10500000F0023C69EF14601014601014601014601A
:10501000102404700F02542902542E0253C9025363
:10502000AE1253B7221254581254559007DDEFF0C8
:105030001248A01246F91243FE12546112545B90BA
:1050400007DDE0FF221254581250259007DCEFF0E4
:105050001253011254641252A712492812545B9041
:1050600007DCE0FF22E4FFFE74902EF582E43407B3
:10507000F583E02FFF0EEEB41FEE9007AFE0B5070B
:1050800002D322C322E4FFFE900563E014FDEEC3C9
:105090009D501074602EF582E43405F583E02FFFF7
:1050A0000E80E522E4FFFE900584E014FDEEC39D32
:1050B000501074812EF582E43405F583E02FFF0E45
:1050C00080E5221250D7E433540125E025E0FF901B
:1050D00005A2E054FB4FF09005A7E0C4540F13B3B2
:1050E000229005A9E04401F090021FE07002A3E0C5
:1050F000700C90000FA3E0FAA3E0F912136B22905A
:105100000768E070037428F0900768E0D394149067
:1051100005A2E040044402F02254FDF02290030A6C
:10512000E054FDF0900012A3E0900308F090000F0F
:10513000A3E0FAA3E0F902136BEF14600D14600D05
:1051400014600D2403700C024BFC024E20024E4EE4
:10515000124CFD22EF14600D14600D14600D240339
:10516000700C02544302543302543712543B22C38E
:1051700090082CE0942C90082BE09401500B9008A0
:105180002A7402F0E4A3F0A3F022900012E0FFA33F
:10519000E090021FCFF0A3EFF090000FA3E0FAA37E
:1051A000E0F902136B1251D8E4335401FF9005A2C9
:1051B000E054FE4FF0900012E0FEA3E0FF02407DBD
:1051C000E4FEEF14600A04700C125405AE0780056B
:1051D000125411AE07AF06229005A7E0700E90039F
:1051E00009E020E0079005A7E030E302C322D322C4
:1051F000EF75F009A42440F582E43407F583EBF061
:10520000A3EAF0A3E9F02212496A124B199006367C
:10521000E04401F0E5964597700343973022124E23
:10522000D6EF7803C333CE33CED8F9FF7C007D0AA6
:105230001211F722FFE03400FE7D02AB05E4FCFD15
:105240009007E4EBF01246BE22EF25E025E02407AC
:10525000F582E43408F583E0FF025154EF75F0095C
:10526000A424FEF582E43407F583E0FF0251F0EF59
:1052700075F009A424FEF582E43407F583E0FF020B
:10528000500490030AE04420F090000FA3E0FAA33A
:10529000E0F902136BEF75F008A42494F582E4346E
:1052A00054F583E493FF22E4900829F0900811F06C
:1052B00090082AF0900812F0229005A2E04402F033
:1052C000900012E0FEA3E0FF02407D9005A9E044BB
:1052D00001F0900012E0FEA3E0FF02407D9005A9DE
:1052E000E04410F0900012E0FEA3E0FF02407D9049
:1052F00005A1E020E20A124F9CE49000F9F0A3F02F
:10530000227BFF7A29793AE4FF12525CE4FF0252D1
:105310006F75DC0253C4EF90071F7401F02274D440
:105320002FF582E43406F583E0FF22E4FF7E1C9033
:105330002000E4F0A3DEFC22E59645976005E4F545
:1053400096F5972290000FA3E0FAA3E0F902136B01
:10535000905479E493FE740193FF2290547DE4937A
:10536000FE740193FF22900012E0FEA3E0FF0240D2
:105370007D9005EDE030E103124F9C229005EDE0B9
:1053800020E403124F9C225395EF90071D7401F007
:105390002253A4EF90071E7401F02290067BE07563
:1053A000F00384FF22C29C9007327401F02275CE74
:1053B0000343A940D2CA2275CE0443A980D2CA228F
:1053C0001240D59007F4EFF02275CE02D2ADD2CACA
:1053D00022905477740193FF22905471740193FFCB
:1053E0002290067BE0C313FF2290030DE054BFF030
:1053F000229007D9E04401F022E4900704F022E46F
:10540000900739F02290071EE0FF22E4900702F097
:105410002290071FE0FF22E4900703F02275CE02DE
:10542000C2CF3275CE04C2CF32D2A9D28C22D2AB37
:10543000D28E2243A9012243AA012243AA02224377
:10544000CF1022D2AC227F0122D2EE22A20422D29D
:1054500004220241EF7F0122C2AF22D2AF220254C6
:105460003F0237F00253C00241342222222222009E
:1054700000000100000005000A138800C800640055
:105480000200000000000400000001FFFFFFFF0019
:1054900014034E04081A0500BA034E04081F050041
:1054A000BC034E0408240500A8034E040818050098
:1054B000A3034E04081D0500B5034E040821050092
:1054C000A3034E04081D0500A4034E04081805009C
:1054D000A50A0A203F065B4F666D7D077F6F007946
:1054E0007639408054371C3E5E3038363F737771D2
:0354F000747C7851
:00000001FF
