:030000000236C6FF
:03000B000239BCFB
:03001B00023A4C5A
:0300230002311295
:03002B0002542656
:03003B00022F652C
:03005B00024AACAA
:03006B00024671D9
:0300730002542C08
:03007B0002173930
:03009B0002143F0D
:100100004106FB004106FC004107000041070100D9
:100110004106FA004107FB004808070200000003FF
:100120000000004907FE00017D00010000000044BE
:10013000082400000000410828005A07B00380038B
:10014000400320031003080304030203010101011B
:100150000401100120014042081C000041081B005E
:1001600041081700410818004108190041081A0009
:100170006020079000000000000000000000000068
:10018000000000000000000000000000000000006F
:100190000000000041078F004107F4004107EB0019
:1001A0004107EF004107F1004207F2000041082D2E
:1001B0000042082B00004108290041082A0541059A
:1001C000A3004105A8004105AE004205EB00005E1A
:1001D00005AF00000000000000000000000000006B
:1001E000000000000000000000000000000000000F
:1001F0005E0560000000000000000000000000003C
:1002000000000000000000000000000000000000EE
:10021000005E05CD000000000000000000000000AE
:1002200000000000000000000000000000000000CE
:1002300000005E05810000000000000000000000DA
:1002400000000000000000000000000000000000AE
:100250000000004105ED004105A2004105A9004153
:1002600005A1004105A7004105EE004105F100424E
:10027000059F00004205AA00004205EF000042056C
:10028000AC000041055FFF4305A400000043057E6C
:1002900000000041055C0041055D0041055E005C19
:1002A000065F0000000000000000000000000000E9
:1002B0000000000000000000000000000000604896
:1002C00005F2120810080C080808060804080208BD
:1002D000121010100C10081006100410021012203A
:1002E00010200C200820062004200220124010407C
:1002F0000C400840064004400240128010800C80F0
:100300000880068004800280148041063B0041067C
:100310003C0041063D00C1056021063EFF4973FFD8
:1003200049B3FF4B22FF4B5BFF32AFFF2E89FF2803
:100330000AFF1A04FF5210FF5341FF4DCA41082320
:1003400000420820000041081F0041082200410827
:100350001E00410811004108120041081300410825
:10036000140042080F00004208150000611F010040
:10037000A8000000000000A8000000020000A90181
:1003800000000F00202900000002002029010000C9
:100390000F0020A9000000020000A903001CA80013
:1003A0001EA9070000140000A90A00002A01C2A922
:1003B0000700005A005AA9000000020000AA01002C
:1003C000000F00202A0000000200202A0100000F78
:1003D0000020AA000000020000AA03001913001E5A
:1003E000AA070000140000AA0A00002A00B4AA000C
:1003F0000000020000AB0100000F00202B000000F5
:100400000200202B0100000F0020AB0000000200C2
:1004100000AB03001913001EAB070000140000AB73
:100420000A0000480168AB000000020000AC0100B7
:10043000000F00202C0000000200202C0100000F03
:100440000020AC000000020000B4060000000258CA
:10045000340E0001E00258340F0000780258AD134A
:100460000000F000F0AD10000000003CAD100000F6
:100470001E0000CD120008340834CD1100001E000B
:1004800000CD160000000000AE1700000000006163
:10049000340427A8000000000000A80000000200AB
:1004A00000A90100000F00202900000002002029FF
:1004B0000100000F0020A9140000000000A90000A6
:1004C00000020000A903001CA8001EA907000014D8
:1004D0000000A90A00002A01C2A9070000960096A0
:1004E000A90A00003700F0A9000000020000AA01DC
:1004F00000000F00202A0000000200202A01000056
:100500000F0020AA000000020000AA030019130037
:100510001EAA070000140000AA0A000037012CAA36
:10052000000000020000AB0100000F00202B0000C3
:10053000000200202B0100000F0020AB0000000291
:100540000000AB03001913001EAB070000140000ED
:10055000AB0A000048021CAB000000020000AC0126
:1005600000000F00202C0000000200202C010000E1
:100570000F0020AC000000020000B40600000002E2
:1005800058340E0001E00258340F0000780258ADD4
:10059000130000F000F0AD10000000003CAD1000B2
:1005A000001E0000CD120008340834CD150002589A
:1005B0000258CD1100001E0000CD16000000000002
:1005C000AE17000000000060850051A80000000088
:1005D0000000A8000000020000A90100000F002098
:1005E00029000000020020290100000F0020A914AA
:1005F0000000000000AC0600000002582C0E0001B4
:10060000E002582C0F00007802582C0E0001E00286
:10061000582C0F0000780258AD130000F000F0AD28
:1006200010000000003CAD1000001E0000CD1200C4
:1006300008340834CD150002580258CD1100001EB0
:100640000000CD160000000000AE17000000000002
:10065000604D0359A8000000000000A8000000023F
:100660000000A90100000F00202900000002002066
:10067000290100000F0020A9140000000000AD12A5
:100680000009600960AD150002580258AD11000064
:100690001E0000AD160000000000AE1700000000B4
:1006A0000060E70221A8000000000000A800000090
:1006B000020000A90100000F002029000000020034
:1006C00020290100000F0020A9000000020000A95D
:1006D00003001CA8001EA9070000140000A90A00BE
:1006E000002A012CA9000000020000AA0100000F4E
:1006F00000202A0000000200202A0100000F002034
:10070000AA000000020000AA03001913001EAA0795
:100710000000140000AA0A00002A0078AA000000C5
:10072000020000AB0100000F00202B0000000200BF
:10073000202B0100000F0020AB000000020000ABE6
:1007400003001913001EAB070000140000AB0A00E1
:10075000003700B4AB000000020000AD130000F051
:1007600000F0AD10000000003CAD1000001E0000C5
:10077000CD120008340834CD1100001E0000CD1643
:100780000000000000AE170000000000605403A746
:1007900060000000000000E00000000200026103B1
:1007A000001CA8003C620A00004802D0630100005F
:1007B0000F000F63000000020002630100000F0041
:1007C0000F641200016801686510000000003C65BC
:1007D0001000001E0000E600000002000266170084
:1007E00000000000602A03FB20000000000000A0C1
:1007F0000000000200022110000000003C21100057
:10080000001E0000A20000000200022217000000EB
:1008100000005200E700001A01001A02001903004C
:100820001404001805000A6030001F13130A0700A3
:100830000000001D1D0F0A000000000A0A0A0A0A33
:1008400000000028282828282800000A0A0503009C
:1008500000000000000000000000004F00D6010171
:10086000000104270100510103590102214600063D
:100870000103A70103FB410015FF4200F9000043FB
:10088000000F00000042030C000042030900004179
:1008900000FF0042001D000041001A0042000D0050
:1008A000004203560000410003004100E600410001
:1008B00018004200FB0000420016000041000C003E
:1008C0004103580041001C0042004F000041000459
:1008D000004200FD000041030B0042000100004205
:1008E000021F000041030800410014004100000005
:1008F0006048030EFF536FFF52C2FF534DFF486421
:10090000FF3EC9FF42ACFF3CEDFF52D4FF5193FFC5
:1009100050EAFF4EB2FF4F0BFF3FACFF5126FF5195
:10092000AEFF4CA1FF342FFF52E6FF4F80FF4A334A
:10093000FF4D99FF4B94FF528BFF2B856024076975
:1009400000FF547301FF547504FF510803FF5474F2
:1009500003FF547605FF537A02FF538501FF52F8D7
:1009600003FF547741078E0041078D004107670060
:10097000410768004107D9004207DA00004107CE6D
:10098000004207D100004207CC00004207D7000018
:100990004207D300004207D500004207CF000042C3
:1009A00007CA0000009007DDEFF0E49007E5F09043
:1009B00007DDE0FF75F002A4247CF582E5F0340643
:1009C000F583E0FCA3E0FD75F002EFA4249CF58222
:1009D000E5F03406F583E0FEA3E0C39DFFEE9C90B6
:1009E00007DEF0A3EFF0E47F01FEFDFC9007DDE001
:1009F000F9F81212E18F198E188D178C16AF0112AB
:100A00004EDF9007E3EEF0A3EFF0C39007DFE09F27
:100A1000EE6480F89007DEE064809840089007E07C
:100A20007401F08005E49007E0F09007E0E06401D5
:100A30006003020C2A9007DDE0FF24ACF582E43469
:100A400006F583E0C394FA74809480500D74AC2F43
:100A5000F582E43406F583E004F0E5155519FFE569
:100A6000145518FEE5135517FDE5125516FCE4FB69
:100A7000FAF9F8C31212BD6003020BF090067BE096
:100A80009007E2F012544FEF6047E49007E0F0A3C4
:100A9000F09007E1E0FFC3951A502274AC2FF58265
:100AA000E43406F583E0C39401748094804006909A
:100AB00007E0E004F09007E1E004F080D49007E064
:100AC000E0C394037480948040079007E2E0240F11
:100AD000F09007DDE024ACF582E43406F583E0FF16
:100AE0009007E2E0FEEFC39E5003020BF0E4900794
:100AF000E0F01253E2EF6003020B7D9007E1F0900B
:100B000007E1E0FFC3951A502C9007DDE06F601DF0
:100B10001253A49007E1E024ACF582E43406F58397
:100B2000E0C39F40089007E07401F080089007E15F
:100B3000E004F080CA12544FEF3395E04F60030297
:100B40000BCE9007E0E06003020BCEA3F09007E12C
:100B5000E0FFC3951A50779007DDE06F60171253DE
:100B6000A49007E1E024B4F582E43406F583E0C301
:100B70009F400280539007E1E004F080D012544F70
:100B8000EF3395E04F70479007E2F09007E1F09067
:100B900007E1E0FFC3951A502274AC2FF582E434CC
:100BA00006F583E0C394027480948040069007E2C7
:100BB000E004F09007E1E004F080D49007E2E0C3A5
:100BC00094037480948040069007E07401F09007CD
:100BD000E0E064017002D203E5154519F515E5144E
:100BE0004518F514E5134517F513E5124516F512EA
:100BF0009007DDE0FF24CCF582E43406F583E4F0D1
:100C000074F22FF582E43406F583E4F075F002EF18
:100C1000A424BCF582E5F03406F583E4F0A3F07477
:100C20008C2FF582E43406020FEF9007DDE0FF120F
:100C300052279007DEE0FCA3E0FDD39FEE6480F82E
:100C4000EC64809840129007DDE024B4F582E4342F
:100C500006F583E004F080159007FDE004F09007AE
:100C6000DDE024B4F582E43406F583E4F09006E197
:100C7000E0FF3395E0FEC3E49FFBE49EFAC3ED9BE7
:100C8000EA6480F8EC6480985003020D91D39007D9
:100C9000DFE09FEE6480F89007DEE0648098400318
:100CA000020D919007DDE0FF24CCF582E43406F5D7
:100CB00083E4F0748C2FF582E43406F583E4F0FFCE
:100CC000FEFDFCAB15AA14A913A812C31212BD6035
:100CD00003020EF49007DEE0FEA3E0FF9007DDE0E4
:100CE00075F002A424BCF582E5F03406F583EE8F9E
:100CF000F012124C1253649007DDE075F002A42448
:100D0000BCF582E5F03406F583E0FCA3E0C39FEE7A
:100D10006480F8EC64809840199007DDE0FF75F07E
:100D200002A4247CF582E5F03406F583E475F00135
:100D30008046125364C3E49FFFE49EFE9007DDE00B
:100D400075F002A424BCF582E5F03406F583E0FCDE
:100D5000A3E0C39FEE6480F8EC6480984003020E29
:100D6000F49007DDE0FF75F002A4247CF582E5F045
:100D70003406F58374FFF5F012124C75F002EFA4FF
:100D800024BCF582E5F03406F583E4F0A3F0020E0E
:100D9000F49006E1E0FF3395E0FEC3E49FFFE49E9C
:100DA000FEC39007DFE09FEE6480F89007DEE0640A
:100DB00080984003020E639007DDE0FF24CCF582AB
:100DC000E43406F583E004F0748C2FF582E43406F5
:100DD000F583E4F074CC2FF582E43406F583E0FD6E
:100DE0009054DAE493FFED8FF084E5F07060905456
:100DF000DB93FEEF8EF0A4FFC3ED9FE5F06480F877
:100E00007480989007DDE0401424CCF582E4340629
:100E1000F583E4F0D2049006FA04F0803175F00214
:100E2000A4247CF582E5F03406F583C083C082E01B
:100E3000FEA3E0FF9006E1E0A2E713FD3395E0FC9E
:100E4000C3EF9DFFEE9CD082D083F0A3EFF090071C
:100E5000DDE0FF9007F6E06F6003020EF474FFF030
:100E6000020EF49006E1E0FF3395E0FED39007DF39
:100E7000E09FEE6480F89007DEE064809840759013
:100E800007DDE024CCF582E43406F583E4F0FFFED0
:100E9000FDFCAB15AA14A913A812C31212BD7054FD
:100EA0009007DDE0FF248CF582E43406F583E0044E
:100EB000F0748C2FF582E43406F583E064207034FE
:100EC0009007DDE0FF248CF582E43406F583E4F03E
:100ED0009006E1E0A2E713A2E713FD3395E0FC756D
:100EE000F002EFA4247CF582E5F03406F583EC8D66
:100EF000F012124CE5155519FFE5145518FEE513CF
:100F00005517FDE51255164D4E4F70030210059012
:100F100007E3E0FCA3E0FDAE047802CEA2E713CE27
:100F200013D8F8FFC3ED9FFFEC9EFEC39007DFE0F0
:100F30009FEE6480F89007DEE06480984003020F23
:100F4000F49007DDE024F2F582E43406F583E00452
:100F5000F01253EA9007E2EFF0E49007E1F0900717
:100F6000E1E0FFC3951A502274AC2FF582E43406F9
:100F7000F583E0C394017480948040069007E0E01C
:100F800004F09007E1E004F080D49007E0E0C3941F
:100F90000374809480400890067BE09007E2F09014
:100FA00007DDE0FB24F2F582E43406F583E0FF90F0
:100FB00007E2E0FEEFC39E500302107474F22BF5BB
:100FC00082E43406F583E4F0AF19AE18AD17AC1621
:100FD0001212B0E5155FF515E5145EF514E5135D25
:100FE000F513E5125CF51274AC2BF582E43406F5CA
:100FF00083E4F0229007DDE024F2F582E43406F584
:1010000083E014F0229007DDE024ACF582E434069E
:10101000F583E4F0FFFEFDFCAB15AA14A913A8129A
:10102000C31212BD70089007DDE0FF12337AE51A93
:1010300014FF9007DDE06F703B9007FDE0C3951A49
:101040004032E49007E1F09007E1E0FFC3951A50C9
:101050001B74AC2FF582E43406F583E0600690073C
:10106000E07401F09007E1E004F080DB9007E0E03D
:101070007002C20322E709F608DFFA8046E709F2A8
:1010800008DFFA803E88828C83E709F0A3DFFA80CC
:1010900032E309F608DFFA8078E309F208DFFA8024
:1010A0007088828C83E309F0A3DFFA806489828AE6
:1010B00083E0A3F608DFFA805889828A83E0A3F2EE
:1010C00008DFFA804C80D280FA80C680D4806980A4
:1010D000F28033801080A680EA809A80A880DA802F
:1010E000E280CA803389828A83ECFAE493A3C8C57C
:1010F00082C8CCC583CCF0A3C8C582C8CCC583CC7C
:10110000DFE9DEE7800D89828A83E493A3F608DFB6
:10111000F9ECFAA9F0EDFB2289828A83ECFAE0A3CC
:10112000C8C582C8CCC583CCF0A3C8C582C8CCC50D
:1011300083CCDFEADEE880DB89828A83E493A3F252
:1011400008DFF980CC88F0EF60010E4E60C388F0B4
:10115000ED2402B4040050B9F582EB2402B404007B
:1011600050AF23234582239010C573BB01068982AB
:101170008A83E0225002E722BBFE02E32289828AB0
:1011800083E49322BB010CE58229F582E5833AF5DD
:1011900083E0225006E92582F8E622BBFE06E92517
:1011A00082F8E222E58229F582E5833AF583E49329
:1011B00022BB010689828A83F0225002F722BBFEFD
:1011C00001F322F8BB010DE58229F582E5833AF5AA
:1011D00083E8F0225006E92582C8F622BBFE05E925
:1011E0002582C8F222EF8DF0A4A8F0CF8CF0A428BD
:1011F000CE8DF0A42EFE22BC000BBE0029EF8DF098
:1012000084FFADF022E4CCF875F008EF2FFFEE3349
:10121000FEEC33FCEE9DEC984005FCEE9DFE0FD5F8
:10122000F0E9E4CEFD22EDF8F5F0EE8420D21CFECC
:10123000ADF075F008EF2FFFED33FD400798500635
:10124000D5F0F222C398FD0FD5F0EA22C5F0F8A33D
:10125000E028F0C5F0F8E582158270021583E038C9
:10126000F022A3F8E0C5F025F0F0E58215827002C7
:101270001583E0C838F0E822BB0110E58229F58229
:10128000E5833AF583E0F5F0A3E0225009E92582F1
:10129000F886F008E622BBFE0AE92582F8E2F5F0BE
:1012A00008E222E5832AF583E993F5F0A3E9932286
:1012B000CFF4CFCEF4CECDF4CDCCF4CC22EB9FF551
:1012C000F0EA9E42F0E99D42F0E89C45F022E86099
:1012D0000FECC313FCED13FDEE13FEEF13FFD8F17B
:1012E00022E8600FEFC333FFEE33FEED33FDEC3346
:1012F000FCD8F122ECF0A3EDF0A3EEF0A3EFF02286
:10130000A8828583F0D083D082121317121317128C
:101310001317121317E473E493A3C583C5F0C583B1
:10132000C8C582C8F0A3C583C5F0C583C8C582C837
:1013300022D083D082E4937012740193700DA3A322
:1013400093F8740193F5828883E4737402936C704C
:10135000127403936D700C7404936E70067405938D
:101360006F60DDA3A3A3A3A3A380CA8A838982E4B9
:101370007375F008758200EF2FFFEE33FECD33CD8D
:10138000CC33CCC58233C5829BED9AEC99E582982B
:10139000400CF582EE9BFEED9AFDEC99FC0FD5F02A
:1013A000D6E4CEFBE4CDFAE4CCF9A88222B800C1A1
:1013B000B90059BA002DEC8BF084CFCECDFCE5F00E
:1013C000CBF97818EF2FFFEE33FEED33FDEC33FC55
:1013D000EB33FB10D703994004EB99FB0FD8E5E4FE
:1013E000F9FA227818EF2FFFEE33FEED33FDEC33E0
:1013F000FCC933C910D7059BE99A4007EC9BFCE96F
:101400009AF90FD8E0E4C9FAE4CCFB2275F010EFAA
:101410002FFFEE33FEED33FDCC33CCC833C810D7ED
:10142000079BEC9AE899400AED9BFDEC9AFCE89941
:10143000F80FD5F0DAE4CDFBE4CCFAE4C8F922C029
:10144000E0C0F0C083C082C0D075D000C000C00131
:10145000C002C003C004C005C006C007E5C430E137
:101460004275DC0243C402D3900718E09400900751
:1014700017E09400402A90072FE0FBA3E0FAA3E0D6
:10148000F912116BF5C7900730E475F00112124C98
:10149000900718E024FFF0900717E034FFF0800376
:1014A000125420E5C420E00302171E75DC0243C479
:1014B0000190070FE0FEA3E0FFD390070AE09F90A2
:1014C0000709E09E500302171E900700E5C7F0EFE2
:1014D0004E7056E0FF64A56004EFB4AA459007265D
:1014E000E0FBA3E0FAA3E0F9EF1211B1900700E0EE
:1014F000A3F0900726E0F9A3E0FAA3E09006FDC967
:10150000F0A3EAF0A3E9F0900727E475F0011212C6
:101510004C900710E004F0705A90070FE004F002BE
:10152000171E900701E40216DE90070FE0FEA3E00D
:10153000FF64014E705B900700E0FD645A6004EDAB
:10154000B45533900726E0FBA3E0FAA3E0F9ED12CF
:1015500011B1900700E0FDA3E02DF0900727E4759E
:10156000F00112124C900710E004F0700690070F83
:10157000E004F002171EC3E49FFFE49E9007278F4C
:10158000F012124C90070FE4F0A3F090070102163E
:10159000DE90070FE0FEA3E0FF64024E706090074C
:1015A00000E0FD64046009ED64406004EDB4413383
:1015B000900726E0FBA3E0FAA3E0F9ED1211B19049
:1015C0000700E0FDA3E02DF0900727E475F001127D
:1015D000124C900710E004F0700690070FE004F042
:1015E00002171EC3E49FFFE49E9007278FF012129C
:1015F0004C90070FE4F0A3F09007010216DE90076D
:101600000FE07004A3E064037078900700E0FFFD32
:10161000D390070AE09D900709E094004042EFD381
:101620009400403C900726E0FBA3E0FAA3E0F9EF2A
:101630001211B1FF900709E4F0A3EFF0900700E06A
:10164000FFA3E02FF0900727E475F00112124C90F1
:101650000710E004F0700690070FE004F002171E78
:1016600090070FE0FEA3E0FFC3E49FFFE49E900716
:10167000278FF012124C90070FE4F0A3F0900701AF
:10168000805C90070AE024FFFF900709E034FFFE2A
:1016900090070FE06E7003A3E06F704D900700E0BD
:1016A000FFA3E0B50714900726E0FBA3E0FAA3E050
:1016B000F9EF1211B112531A806490070FE0FEA3E4
:1016C000E0FFC3E49FFFE49E9007278FF012124CC7
:1016D00090070FE4F0A3F0900701F0900700F0905E
:1016E0000709F0A3741EF08035900700E0FF900713
:1016F00026E0FBA3E0FAA3E0F9EF1211B190070096
:10170000E0FFA3E02FF0900727E475F00112124CE0
:10171000900710E004F0700690070FE004F0D00787
:10172000D006D005D004D003D002D001D000D0D054
:10173000D082D083D0F0D0E032C0E0C0F0C083C00F
:1017400082C0D075D000C000C001C002C003C00478
:10175000C005C006C007E5A430E13F43A402D39012
:101760000716E09400900715E09400402A90072C9B
:10177000E0FBA3E0FAA3E0F912116BF5A790072DA7
:10178000E475F00112124C900716E024FFF0900768
:1017900015E034FFF08003125414E5A420E00302A6
:1017A00019E943A40190070DE0FEA3E0FFD39007E1
:1017B00008E09F900707E09E50030219E99006FB9E
:1017C000E5A7F0EF4E703CE0FFB4A530900723E0B2
:1017D000FBA3E0FAA3E0F9EF1211B19006FBE0A33E
:1017E000F0900724E475F00112124C90070EE0040B
:1017F000F0705590070DE004F00219E99006FCE442
:101800000219A990070DE0FEA3E0FF64014E705697
:101810009006FBE0FDB45A33900723E0FBA3E0FA07
:10182000A3E0F9ED1211B19006FBE0FDA3E02DF06D
:10183000900724E475F00112124C90070EE004F0BA
:10184000700690070DE004F00219E9C3E49FFFE47D
:101850009E9007248FF012124C90070DE4F0A3F035
:101860009006FC0219A990070DE0FEA3E0FF6402B8
:101870004E70569006FBE0FDB40433900723E0FB66
:10188000A3E0FAA3E0F9ED1211B19006FBE0FDA38D
:10189000E02DF0900724E475F00112124C90070E31
:1018A000E004F0700690070DE004F00219E9C3E4CB
:1018B0009FFFE49E9007248FF012124C90070DE4D6
:1018C000F0A3F09006FC0219A990070DE07004A3A4
:1018D000E0640370789006FBE0FFFDD3900708E01A
:1018E0009D900707E094004042EFD39400403C9065
:1018F0000723E0FBA3E0FAA3E0F9EF1211B1FF9098
:101900000707E4F0A3EFF09006FBE0FFA3E02FF061
:10191000900724E475F00112124C90070EE004F0D9
:10192000700690070DE004F00219E990070DE0FE43
:10193000A3E0FFC3E49FFFE49E9007248FF0121200
:101940004C90070DE4F0A3F09006FC805C90070833
:10195000E024FFFF900707E034FFFE90070DE06EE4
:101960007003A3E06F704D9006FBE0FFA3E0B507A6
:1019700014900723E0FBA3E0FAA3E0F9EF1211B102
:1019800012539A806490070DE0FEA3E0FFC3E49F2A
:10199000FFE49E9007248FF012124C90070DE4F0A4
:1019A000A3F09006FCF09006FBF0900707F0A374FC
:1019B0001EF080359006FBE0FF900723E0FBA3E0DC
:1019C000FAA3E0F9EF1211B19006FBE0FFA3E02FBC
:1019D000F0900724E475F00112124C90070EE00419
:1019E000F0700690070DE004F0D007D006D005D0C7
:1019F00004D003D002D001D000D0D0D082D083D088
:101A0000F0D0E03290030DE054DFF090030CE0FEE4
:101A1000A3E07806CEC313CE13D8F95401FF900685
:101A200038E054FE4FF0900636E04401F090081C78
:101A3000E0FEA3E07803CEC313CE13D8F95401FD22
:101A400090030CE0FEA3E0FFEEC313EF135401FF7D
:101A5000EF5D7F0070027F01EF5401FF900632E0DE
:101A600054FE4FF090055BE0FC64036003021C1F12
:101A7000900005E0146073147003021B4614700399
:101A8000021BD0147003021B7B24046003021BFDA5
:101A90009003A6E0FEC39404900634E05005440190
:101AA000F0800354FEF090062EE054FEF0900630D5
:101AB000E054FEF0EEC39405501D90030CE0FEA32D
:101AC000E07803CEC313CE13D8F95401FF90062C4F
:101AD000E054FE4FF0800790062CE054FEF0900397
:101AE000A6E0C39406505C021BAC9003A6E0FEC3C4
:101AF000940490062EE050054401F0800354FEF05B
:101B0000900634E054FEF0900630E054FEF0EEC350
:101B10009405501D90030CE0FEA3E07803CEC313A0
:101B2000CE13D8F95401FF90062CE054FE4FF080FC
:101B30000790062CE054FEF09003A6E0C3940650F4
:101B4000028069021BCB90062EE054FEF090063412
:101B5000E054FEF0900630E054FEF09003A6E0FF63
:101B6000C3940590062CE050054401F0800354FE18
:101B7000F0EFC3940650028033805090062CE0545E
:101B8000FEF090062EE054FEF0900634E054FEF095
:101B90009003A6E0FFC39404900630E05005440192
:101BA000F0800354FEF0EFC39406501F90030CE046
:101BB000FEA3E0FFEEC4F854F0C8EFC4540F48543D
:101BC00001FF90062AE054FE4FF02290062A804C36
:101BD00090062CE054FEF090062EE054FEF09006A5
:101BE00034E054FEF0900630E054FEF09003A6E09E
:101BF000C3940690062AE050504401F02290062A31
:101C0000E054FEF090062CE054FEF090062EE054D6
:101C1000FEF0900634E054FEF0900630E0802A900A
:101C2000062CE054FEF090062EE054FEF0900634B0
:101C3000E054FEF0EC90062AB40606E04401F08081
:101C400004E054FEF0900630E054FEF02290063B93
:101C5000E09054DD9390063AF0E05401FF9005F2D5
:101C6000E054FE4FF090063AE05402C313FF900593
:101C7000F4E054FE4FF090063AE054041313543F3E
:101C8000FF9005F6E054FE4FF090063AE05408133A
:101C90001313541FFF9005F8E054FE4FF090063ADE
:101CA000E05410C4540FFF9005FAE054FE4FF0903A
:101CB000063AE05420C4135407FF9005FCE054FE9C
:101CC0004FF090063AE05440C413135403FF9005BC
:101CD000FEE054FE4FF090063CE09054DD939006F9
:101CE0003AF0E05401FF900600E054FE4FF09006F9
:101CF0003AE05402C313FF900602E054FE4FF09006
:101D0000063AE054041313543FFF900604E054FED7
:101D10004FF090063AE05408131313541FFF900637
:101D200006E054FE4FF090063AE05410C4540FFF02
:101D3000900608E054FE4FF090063AE05420C41399
:101D40005407FF90060AE054FE4FF090063AE05424
:101D500040C413135403FF90060CE054FE4FF09060
:101D6000063DE09054DD9390063AF0E05401FF9078
:101D7000060EE054FE4FF090063AE05402C313FF03
:101D8000900610E054FE4FF090063AE0540413130E
:101D9000543FFF900612E054FE4FF090063AE05494
:101DA00008131313541FFF900614E054FE4FF090D5
:101DB000063AE05410C4540FFF900616E054FE4F4C
:101DC000F090063AE05420C4135407FF900618E040
:101DD00054FE4FF090063AE05440C413135403FFEE
:101DE00090061AE054FE4FF0E4FFEF25E024F2F5F0
:101DF00082E43405F583E030E032EF25E024F2F5AB
:101E000082E43405F583E0C313547F2400F582E4B3
:101E10003420F583C083C082E0FEEF25E024F3F593
:101E200082E43405F583E0FDEE4D8031EF25E024BA
:101E3000F2F582E43405F583E0C313547F2400F502
:101E400082E43420F583C083C082E0FEEF25E024E5
:101E5000F3F582E43405F583E0F4FDEE5DD082D045
:101E600083F00FEF642470822290030CE020E007DF
:101E7000E020E20302204F30000B7B017A077990CB
:101E80007D2012545B900792E064A06003021F6003
:101E9000A3E064B06003021F6012506E4003021F93
:101EA00060900790E090078FF0E0FF131313540148
:101EB0007E0054017803C333CE33CED8F9FF9003AC
:101EC0000CE0FCA3E054F7FDEC4EFEED4FFF900359
:101ED0000CEEF0A3EFF090078FE0C45401C4F85467
:101EE0000FC868FFE4C454F048FE90030CE0FCA364
:101EF000E054EFFDEC4EFEED4FFF90030CEEF0A32F
:101F0000EFF090078FE0FFC4131354017E005401DB
:101F10007806C333CE33CED8F9FF90030CE0FCA390
:101F2000E054BFFDEC4EFEED4FFF90030CEEF0A32E
:101F3000EFF090030DE054DFF0900791E09000E5A2
:101F4000F090055B7408F090030DE054FEF0E0544F
:101F5000FDF090030CE054F7F0E054FEF002204B4B
:101F600090030CE020E003022011900790E090071E
:101F70008FF0E0FF13131354017E0054017803C364
:101F800033CE33CED8F9FF90030CE0FCA3E054F736
:101F9000FDEC4EFEED4FFF90030CEEF0A3EFF09042
:101FA000078FE0C45401C4F8540FC868FFE4C45458
:101FB000F048FE90030CE0FCA3E054EFFDEC4EFE75
:101FC000ED4FFF90030CEEF0A3EFF090078FE0FFD2
:101FD000C4131354017E0054017806C333CE33CEAC
:101FE000D8F9FF90030CE0FCA3E054BFFDEC4EFEDB
:101FF000ED4FFF90030CEEF0A3EFF090030DE054D3
:10200000DFF0900791E09000E5F090030CE054FEC3
:10201000F090030CE030E23790055B7408F090001C
:10202000E57401F090030DE04408F0E04410F090F6
:10203000000F74FFF0A37423F0A374ACF090030DB1
:10204000E04440F0E054DFF090030CE054FBF02259
:102050009007DCEFF09007FBE0C39403748094805A
:102060004051E4F09006FAE0703E9007DDF09007F2
:10207000DDE0C3951A5031E0FF75F002A424E2F5CB
:1020800082E5F03406F583E0FCA3E0FD75F002EF95
:10209000A4247CF582E5F03406F583ECF0A3EDF0A2
:1020A0009007DDE004F080C6124017C204E49006F9
:1020B000FAF0229007F5E004F09007DCE0FF9007CB
:1020C000F5E0B50708124C6DE49007F6F09007DCD8
:1020D000E0FF9007F5E0D39F500302220BE4900746
:1020E000DDF09007DDE0C3951A40030221B7E0FF61
:1020F00075F002A424E2F582E5F03406F583E0FCF5
:10210000A3E0FD75F002EFA4249CF582E5F034060F
:10211000F583E0FEA3E0C39DFFEE9CAD07FC9006B7
:10212000FAE070429006E1E0FB3395E0FAFEEB78CE
:1021300002C333CE33CED8F9FFD3ED9FEE6480F8DF
:10214000EC6480984060E49BFFE49AFEEF7802C361
:1021500033CE33CED8F9FFC3ED9FEE6480F8EC6444
:102160008098504280519006E1E0FB3395E0FAFE02
:10217000EB7803C333CE33CED8F9FFD3ED9FEE64B3
:1021800080F8EC648098401EE49BFFE49AFEEF78B0
:1021900003C333CE33CED8F9FFC3ED9FEE6480F88E
:1021A000EC64809840119007DDE0FF12220C90074C
:1021B000DDE004F00220E29007DDE0B51A069007AA
:1021C000F6E004F09007DCE0FD75F008A4FF90074E
:1021D000F5E0C39FE5F06480F8748098402DE4F04A
:1021E000C2039007FBE004F0ED75F004A4FF900734
:1021F000F6E0C39FE5F06480F8748098400DE490A9
:1022000007FBF0124C39124017C204229007E0EF8E
:10221000F0F9E0FF75F002A424E2F582E5F034065F
:10222000F583E0FCA3E0FD75F002EFA4249CF582A9
:10223000E5F03406F583E0FEA3E0C39DFFEE9C903D
:1022400007E1F0A3EFF0AF01124EDFAD07AC06904F
:1022500007E1E0FEA3E0FFD39DEC6480F8EE64802C
:10226000985014C3E49DFBE49CFAC3EF9BEA64809E
:10227000F8EE648098502F9007E0E0FF75F002A41C
:10228000249CF582E5F03406F583E0FCA3E0FD75BF
:10229000F002EFA424E2F582E5F03406F583ECF0D9
:1022A000A3EDF002237FECA2E713FEED13FF9007EE
:1022B000E1E0FAA3E0FBD39FEE6480F8EA64809843
:1022C000501CECA2E713FEED13FFC3E49FFFE49E56
:1022D000FEC3EB9FEE6480F8EA648098503E90075E
:1022E000E0E0FD75F002A424E2F582E5F03406F5A5
:1022F00083E0FAA3E0FBEAC313FEEB13FFC3EB9FFB
:10230000FBEA9EFA75F002EDA4249CF582E5F03418
:1023100006F583E0C313FEA3E01380479007E0E0D7
:10232000FD75F002A424E2F582E5F03406F583E0C1
:10233000FAA3E0FBAE027803CEC313CE13D8F9FFA5
:10234000C3EB9FFBEA9EFA75F002EDA4249CF58294
:10235000E5F03406F583E0FEA3E07803CEC313CEA8
:1023600013D8F92BFFEA3EFE9007E0E075F002A4D7
:1023700024E2F582E5F03406F583EEF0A3EFF09069
:1023800007E0E0FF75F002A424E2F582E5F03406F0
:10239000F583E0FCA3E0FD75F002EFA4249CF58238
:1023A000E5F03406F583ECF0A3EDF022E49000F9BB
:1023B000F0A3F09005A1E054FEF0E4900001F0A33A
:1023C000F0900015E004F0900005E075F003A424FF
:1023D000D6F582E43400F583E0FBA3E0FAA3E0F94C
:1023E000900015E075F007A4FFE92FF9EA35F0FA3F
:1023F00078DC7C077D017E007F071211457B017A26
:102400000779DC124D3750B9124D6850B49007DC93
:10241000E020E7030224C4900356E0FEA3E0FF900F
:10242000000DE0FCA3E0FD9FEC9E50030224B6EDFE
:102430009FFFEC9EAB07FA900019E0FF7E0090072B
:10244000E3EEF0A3EFF02401FFEE33FE7C007D3CD1
:102450001211E59007E3EEF0A3EFF0900003E0F92E
:102460002BFFE43AFED39007E4E09F9007E3E09E61
:10247000403EE9AC02AD032DFFE43CFEC3A3E09F68
:10248000F09007E3E09EF0E0FAA3E0FB7C007D3CE7
:10249000FFAE021211F7900019EFF07C007D3CAF07
:1024A00003AE021211F7C3743C9D900003F0800646
:1024B0009000197401F0E4900356F0A3F090030A21
:1024C000E054F7F09003A6E0FF9007DCE05407FE2D
:1024D000B5070660046406703AE490021FF0A3F0AA
:1024E000900309E054FDF0A3E054EFF0E054FDF058
:1024F000900309E054FEF0E49000FDF0A3F090009A
:1025000004F09005A1E04402F0E4900308F0900389
:10251000A6EEF0E490004FF0A3F0900016F0A3F0C8
:102520009007DDE090001BF09007DFE0FFA3E09054
:102530000012CFF0A3EFF09007E1E0FFA3E09000DE
:102540000DCFF0A3EFF0229005B3E0540F24FE600E
:102550002F24FE7003022694240360030226B09009
:1025600005B4E09005EEF09005B5E09005A4F0907C
:1025700005B6E09005A5F09005B7E09005A6F0221D
:102580009005B4E09005A8F09005B5E09005AEF098
:102590009005B6E09005A3F0E05404FF9005EDE04F
:1025A00054FB4FF09005A3E05408FF9005EDE05474
:1025B000F74FF09005A3E05410FF9005EDE054EFC5
:1025C0004FF09005A3E05420FF9005A1E054DF4FA9
:1025D000F09005A3E05440FF9005A1E054BF4FF0F8
:1025E0009005A3E05480FF9005A1E0547F4FF09048
:1025F00005B7E09005A3F0E05401FF9005A7E05473
:10260000FE4FF09005A3E05402FF9005A7E054FDB3
:102610004FF09005A3E05404FF9005A7E054FB4F52
:10262000F09005B8E09005F1F09005B9E0FEA3E068
:102630007C002400FFEC3E90059FF0A3EFF0900596
:10264000BBE0FEA3E02400FFEC3E9005EBF0A3EF1F
:10265000F09005BDE0FEA3E02400FFEC3E9005AA4B
:10266000F0A3EFF09005BFE0FEA3E02400FFEC3EF6
:102670009005EFF0A3EFF09005B2E0D3941340374C
:102680009005C1E0FEA3E02400FFEC3E9005ACF015
:10269000A3EFF0229005EDE054FDF0900816E02045
:1026A000E01590055F7401F0900816E04401F022F7
:1026B0009005EDE054FDF0227F011251C9EF603327
:1026C0009005EDE04401F09005AFE0B4AA0DA3E061
:1026D000B45508A3E0B44003122547E490055CF02C
:1026E0007B017A0579AF9007E1F0A3741EF07F01BA
:1026F000124FEBE4FF1251C9EF60409005EDE0206E
:10270000E121900816E020E01A90055F7401F0E4E2
:10271000900815F0A3F0900816E04401F09008131B
:10272000740AF0E490055DF07B017A0579CD90079D
:10273000E1F0A3741EF0E4FF124FEB90081CE0FEE2
:10274000A3E07802CEC313CE13D8F95401FD90084C
:102750001CE0131354016D7001E47003022809A3F7
:10276000E05404FE90081CE054FBFCA3E0FDEC4E9A
:10277000FFED90081CCFF0A3EFF090055EE004F0B1
:10278000C394024005E4F0122D9A900816E020E070
:10279000099000E6E0D39400403F1244AB90055D01
:1027A000E004F0D3941E4031900816E030E00B9026
:1027B00005EDE054FEF0E054FDF0900816E054FE04
:1027C000F0E490055DF07B017A0579CD9007E1F0AA
:1027D000A3741EF0E4FF124FEB90055CE004F0D30D
:1027E000941E4025E4F09005EDE054FEF0E054FD29
:1027F000F0E04408F07B017A0579AF9007E1E4F05E
:10280000A3741EF07F01124FEB2290030DE054DF02
:10281000F090030CE0FEA3E07806CEC313CE13D8ED
:10282000F95401FF900638E054FE4FF0900005E0A7
:10283000FD14603224FD6060240460030228CC9003
:102840000634E04401F090062EE054FEF09006308D
:10285000E054FEF090030CE0FEA3E07803CEC31337
:10286000CE13D8F98025900634E054FEF090062E61
:10287000E04401F0900630E054FEF090030CE0FEDE
:10288000A3E07803CEC313CE13D8F95401FF90060A
:102890002CE054FE4FF0805B90062CE054FEF0904C
:1028A000062EE054FEF0900634E054FEF090030C47
:1028B000E0C4F854F0C8A3E0C4540F485401FF909A
:1028C000062AE054FE4FF0900630805A900634E01D
:1028D00054FEF090062EE054FEF0900630E054FED8
:1028E000F090030DE020E304EDB4022290062CE00A
:1028F0004401F090030CE0C4F854F0C8A3E0C454C1
:102900000F485401FF90062AE054FE4FF022900336
:102910000DE020E407900005E0B4030F90062CE0E2
:1029200054FEF090062AE04401F02290062AE0547A
:10293000FEF090062CE054FEF02290081DE04401C9
:10294000F0900817E004F0C3940A4032E4F09008D5
:102950001CE013A3E0137F0020E0027F01EF54018D
:1029600025E0FFE433FE90081CE0FCA3E054FDFDED
:10297000EC4EFEED4FFF90081CEEF0A3EFF0900838
:1029800018E004F0C394645003022A62E4F0900853
:102990001CE0FEA3E07802CEC313CE13D8F97F006B
:1029A00020E0027F017E00EF54017802C333CE3372
:1029B000CED8F9FF90081CE0FCA3E054FBFDEC4EE0
:1029C000FEED4FFF90081CEEF0A3EFF0900819E029
:1029D00004F0C394054040E4F090081CE0FEA3E03E
:1029E0007803CEC313CE13D8F97F0020E0027F0115
:1029F0007E00EF54017803C333CE33CED8F9FF9075
:102A0000081CE0FCA3E054F7FDEC4EFEED4FFF90F8
:102A1000081CEEF0A3EFF090081AE004F0C3940A4B
:102A20004040E4F090081CE0C4F854F0C8A3E0C4AF
:102A3000540F487F0020E0027F01EF5401C4F85496
:102A40000FC868FFE4C454F048FE90081CE0FCA3E3
:102A5000E054EFFDEC4EFEED4FFF90081CEEF0A3AE
:102A6000EFF022E4F509F511F510F50FF50E12540B
:102A7000555003022B71124DFA8F0D8E0C8D0B8C5D
:102A80000AE4F508E508C3951A5049AF0DAE0CAD40
:102A90000BAC0A78011212CE8F0D8E0C8D0B8C0AA6
:102AA00030D72DE47F01FEFDFC74942508F582E407
:102AB0003406F583E0F9F81212E1E5114FF511E55E
:102AC000104EF510E50F4DF50FE50E4CF50E05090E
:102AD000050880B0E509C394024015D203E50994C6
:102AE00003400512545880081253E2EF6002C203FB
:102AF00020032CE4FFFEFDFCAB11AA10A90FA80EC9
:102B0000C31212BD60109006E0E004F0700690065B
:102B1000DFE004F08020E49006DFF0A3F08017905F
:102B200006DDE004F070069006DCE004F0E4F51148
:102B3000F510F50FF50E125359C39006E0E09F9083
:102B400006DFE09E400A125458E49006DFF0A3F03E
:102B5000D39006DDE0942C9006DCE09401401D1239
:102B600054589006FA7401F0E49006DCF0A3F0806B
:102B70000B905488E4740193FF122050AF11AE10F3
:102B8000AD0FAC0E229005A1E054FEF0E04402F03F
:102B9000E054FBF0E490004FF0A3F0900016F0A397
:102BA000F0900004F0900003F09005A7E054EFF0DF
:102BB000E4900767F090001DF0A3F090001AF090E9
:102BC00000FFF090030BF0900019F09000F9F0A3D3
:102BD000F0900001F0A3F090021FF0A3F090000D20
:102BE000F0A3F0900356F0A3F0900018F09000FDD1
:102BF000F0A3F0900308F0A3E054FEF0A3E054FD2E
:102C0000F0E054EFF0900309E054FDF0A3E054F736
:102C1000F0E054FBF0E49003A6F0900012F0A3F073
:102C200090001BF090055F7405F090030DE054FBDD
:102C3000F0E4900814F090030DE054FEF0E054FD31
:102C4000F0900005E09000E5F090000F74FFF0A315
:102C50007423F0A374ACF090001574FFF090030A95
:102C6000E090055B30E50F7406F090030AE054DF56
:102C7000F01253FA80037405F090030CE04402F064
:102C80009004257402F090001C74FFF090000CF08A
:102C9000E4900358F0229007E0EBF0A3EAF0A3E9F8
:102CA000F09007E0E0FBA3E0FAA3E0F94A7003022A
:102CB0002D9912116BFF75F009A4243AF582E434C2
:102CC00007F583EFF0900001121184FF12116BFEE3
:102CD00075F009A4243BF582E43407F583EFF09006
:102CE0000002121278FDACF0EE75F009A4243CF558
:102CF00082E43407F583ECF0A3EDF09000041211A8
:102D000084FF12116BFE75F009A4243EF582E434B1
:102D100007F583EFF0900005121184FFEE75F009BE
:102D2000A4243FF582E43407F583EFF07B00EE75D1
:102D3000F009A42440F582E43407F583EBF0A3F016
:102D4000A3F0EE14601B14602614603114603C2460
:102D50000470469007E0E0FBA3E0FAA3E0F9023834
:102D6000909007E0E0FBA3E0FAA3E0F90239269097
:102D700007E0E0FBA3E0FAA3E0F90237609007E088
:102D8000E0FBA3E0FAA3E0F902358C9007E0E0FB5A
:102D9000A3E0FAA3E0F91236292290056074A5F0A9
:102DA000A3745AF0A37404F09005B3E0FDC454F08A
:102DB000900564F09005EDE030E160900563740DDE
:102DC000F0A3E0440AF09005EDE030E30AE054F7A8
:102DD000F090055F74FFF09005A2E0900565F0901B
:102DE00005A9E0900566F090055FE0900567F0901A
:102DF00005A1E0541F900568F09000FBE0FEA3E001
:102E0000900569F0EEA3F0900822E054F0FF9008DE
:102E10001FE0540F4F90056BF08044900563740AD7
:102E2000F0A3E04409F0A37402F0E490057EF0A35F
:102E30007468F0E4A3F090057EE0900566F09005DC
:102E40007FE0900567F0E4A3F0EDC4540FFFBF09E5
:102E50000E9005B1E0B440079005EDE04402F01299
:102E6000508E900563E0245FF582E43405F583EF2E
:102E7000F07B017A057960900563E0FF9007E0E45C
:102E8000F0A3EFF07F01024FC9900814E075F00A3B
:102E900084AFF090063DEFF090063CF090063BF0DA
:102EA00090080FE0C313A3E0135401FF900634E031
:102EB00054FE4FF090080FE0FEA3E07802CEC3135B
:102EC000CE13D8F95401FF900636E054FE4FF0902F
:102ED000080FE0FEA3E07803CEC313CE13D8F95455
:102EE00001FF90062CE054FE4FF090080FE0C4F86C
:102EF00054F0C8A3E0C4540F485401FF900630E0DA
:102F000054FE4FF090080FE0FEA3E07805CEC31307
:102F1000CE13D8F95401FF900638E054FE4FF090DC
:102F2000080FE0FEA3E07806CEC313CE13D8F95401
:102F300001FF90062EE054FE4FF090080FE0FEA334
:102F4000E07807CEC313CE13D8F95401FF90062AB8
:102F5000E054FE4FF090080FE05401FF900632E07D
:102F600054FE4FF022C0E0C0F0C083C082C0D075D4
:102F7000D000C000C001C002C003C004C005C0062C
:102F8000C007E59530E13F439502D3900712E094E6
:102F900000900711E09400402A900729E0FBA3E08D
:102FA000FAA3E0F912116BF59F90072AE475F0017E
:102FB00012124C900712E024FFF0900711E034FF4A
:102FC000F08003125408E59530E0574395019007CF
:102FD0000BE0FEA3E0FFD3900706E09F900705E01B
:102FE0009E403F900720E0FBA3E0FAA3E0F9E59FB5
:102FF0001211B1900721E475F00112124C90070CE8
:10300000E004F0700690070BE004F090070BE0FE80
:10301000A3E0FF900705E0B50608A3E0B50703129B
:103020005390D007D006D005D004D003D002D001F1
:10303000D000D0D0D082D083D0F0D0E03290030D39
:10304000E020E6030231029005EDE030E035E030AB
:10305000E431900820E475F00112124CFEC3E5F053
:103060009470EE9417400D9008207417F0A37470BC
:10307000F00230F890081F740FF090030DE030E17B
:1030800074805BE4900820F0A3F090055BE024FCE2
:10309000603914604314604D1460522404705990D8
:1030A00003A6E024FB600B04701090081F740DF061
:1030B000800E90081F7407F0800690081F740EF0B1
:1030C00090030DE030E1028015802A90081F740102
:1030D000F09008227410F02290081F7404F09008F9
:1030E000227460F02290081F7402F0800890082378
:1030F000E090081FF0E48005E490081FF09008229B
:10310000F022E490081FF0900822F0900820F0A32D
:10311000F022C0E0C0F0C083C082C0D075D000C033
:1031200000C001C002C003C004C005C006C0073013
:10313000993EC299D390071CE0940090071BE0943D
:1031400000402A900736E0FBA3E0FAA3E0F9121151
:103150006BF599900737E475F00112124C90071C3B
:10316000E024FFF090071BE034FFF08003125402CC
:10317000309856C298900719E0FEA3E0FFD390075D
:1031800014E09F900713E09E403F900733E0FBA3BD
:10319000E0FAA3E0F9E5991211B1900734E475F073
:1031A0000112124C90071AE004F07006900719E023
:1031B00004F0900719E0FEA3E0FF900713E0B506C6
:1031C00008A3E0B507031253AED007D006D005D050
:1031D00004D003D002D001D000D0D0D082D083D090
:1031E000F0D0E03290082DE0FF900829E06F6032C7
:1031F000EF701BC390082CE0940290082BE0940021
:10320000400C90082AE0B40505125178800C900813
:103210002DE0900829F0A37405F0E490082BF0A3AA
:10322000F02290082DE0700B90082BF0A3F090088E
:103230002AF02290082CE004F0700690082BE0049D
:10324000F090082BE0FEA3E0FF64324E701B900864
:1032500029E0B4021490055BE0FD6403600BED64AB
:1032600004600690082A7403F0C3EF942CEE9401D6
:10327000401390082AE0B40103D38001C3400690B4
:10328000082A7403F0C390082CE094F490082BE013
:103290009401401A7401F0A374F4F090082AE0B489
:1032A0000103D38001C3400690082A7404F02290E1
:1032B000081CE0FEA3E07803CEC313CE13D8F913A5
:1032C000B392059005A1E030E211A205E433540168
:1032D000FF900628E054FE4FF08007900628E05447
:1032E000FEF090061CE054FEF09005A1E030E011E5
:1032F000A205E4335401FF90061CE054FE4FF08019
:103300000790061CE054FEF09003A6E0FF64016005
:1033100009EF64026004EFB40311A205E433540121
:10332000FF90061EE054FE4FF0800790061EE0540A
:10333000FEF09003A6E0FCB40411A205E4335401AE
:10334000FE900624E054FE4EF08007900624E054E0
:10335000FEF0ECB40510A205E4335401FF900626FC
:10336000E054FE4FF02290055BE0900626B406057F
:10337000E04401F022E054FEF0229007E6EFF01264
:1033800053279007E7EFF09007E6E0FF12529EEF19
:10339000FB9007F8E025E0FF9007F7E033FE7C00A4
:1033A0007D0A1211F7AD037C001211E59007E6E0EB
:1033B000FD75F002A4247CF582E5F03406F583E087
:1033C000FAA3E0C39FEA9E50099007E7E0605F140C
:1033D000804D9007E6E0FF12529EEFFB9007F7E06A
:1033E000FEA3E0FF7C007D071211E57D0A1211F7B4
:1033F000AD037C001211E59007E6E0FD75F002A434
:10340000247CF582E5F03406F583E0FAA3E0D39F4F
:10341000EA9E401A9007E7E0FF647E6011EF04FF28
:1034200074D42DF582E43406F583EFF0D2042290B3
:10343000030DE020E2291244F950181250CCE43375
:103440005401C43333335480FF9005A9E0547F4FB7
:10345000F08008124A7050079005A9E04410F090DF
:1034600005A2E04402F0900012E0FEA3E0FF4E60EF
:1034700009900309E030E15B80349005EFE07002D1
:10348000A3E060079005A1E04402F074FF9000FB08
:10349000F0A3F09005A1E04401F09005A9E04402FA
:1034A000F0123D67500B90000DE0FEA3E0FF0240DC
:1034B0008690000EE0245AFF90000DE03400FEC319
:1034C0009000FAE09F9000F9E09E4013900309E01D
:1034D0004402F090000FA3E0FAA3E0F912136B226C
:1034E000900829E0FB6404703290082AE0640270BE
:1034F0002A90055F7402F0900630E0FE7D0020E027
:10350000027D01ED5401FCEE54FE4C900630F0EDCE
:103510005401FF90061CE054FE4FF0EB6401703143
:1035200090082AE06402702990055F7402F090060A
:1035300034E0FF7E0020E0027E01EE5401FEEF54F5
:10354000FE4E900634F05401FF900628E054FE4FE2
:10355000F0900829E06406703290082AE064027056
:103560002A90055F7402F090062EE0FF7E0020E0B6
:10357000027E01EE5401FDEF54FE4D90062EF0EE5A
:103580005401FF90061EE054FE4FF0229007E3EB3B
:10359000F0A3EAF0A3E9F09007E3E0FBA3E0FAA3CD
:1035A000E0F94A700302362875CE03900004121128
:1035B0008442C890000112118442C9900002121284
:1035C00078AEF0FBE4C39BFFE49EFE74019400FD23
:1035D000E49400FCE4FB7A01F9F81248EDAF038FA4
:1035E000CA9007E3E0FBA3E0FAA3E0F9900002121F
:1035F0001278AEF0FBE4C39BFFE49EFE74019400DE
:10360000FDE49400FCE4FB7A01F9F81248ED8FCB5D
:103610009007E3E0FBA3E0FAA3E0F99000051211A4
:103620008442B953A9BFC2CA229007E3EBF0A3EAD0
:10363000F0A3E9F09007E3E0FBA3E0FAA3E0F94A86
:1036400070030236C575CE0490000412118442C87E
:1036500090000112118442C9900002121278AEF05B
:10366000FBE4C39BFFE49EFE74019400FDE4940020
:10367000FCE4FB7A01F9F81248EDAF038FCA90071A
:10368000E3E0FBA3E0FAA3E0F9900002121278AEA7
:10369000F0FBE4C39BFFE49EFE74019400FDE49400
:1036A00000FCE4FB7A01F9F81248ED8FCB9007E3B8
:1036B000E0FBA3E0FAA3E0F990000512118442B9FF
:1036C00053A97FC2CA2278FFE4F6D8FD9000007F9C
:1036D000FF7E10E4F0A3DFFCDEFA75812002371BC9
:1036E000024628E493A3F8E493A34003F68001F292
:1036F00008DFF48029E493A3F85407240CC8C333EB
:10370000C4540F4420C8834004F456800146F6DFB9
:10371000E4800B0102040810204080900100E47E48
:10372000019360BCA3FF543F30E509541FFEE493AE
:10373000A360010ECF54C025E060A840B8E493A375
:10374000FAE493A3F8E493A3C8C582C8CAC583CAA0
:10375000F0A3C8C582C8CAC583CADFE9DEE780BE58
:103760009007E3EBF0A3EAF0A3E9F09007E3E0FBB6
:10377000A3E0FAA3E0F94A607F75CE02900004123C
:10378000118442C890000112118442C990000212B3
:103790001278AEF0FBE4C39BFFE49EFE740194003C
:1037A000FDE49400FCE4FB7A01F9F81248EDAF0364
:1037B0008FCA9007E3E0FBA3E0FAA3E0F9900002D0
:1037C000121278AEF0FBE4C39BFFE49EFE740194FA
:1037D00000FDE49400FCE4FB7A01F9F81248ED8F57
:1037E000CB9007E3E0FBA3E0FAA3E0F99000051219
:1037F000118442B8C2ADC2CA2275FE8543FF205370
:10380000DB7FD2AFC204E49007FCF09006DEF0123A
:103810004547E4FF124CD4EF2401FDE433FC7E0F56
:103820007FA01211F79007F7EEF0A3EFF0E4FF127C
:10383000529E7E009007F7E0FCA3E0FD1211E58E9A
:10384000E78FE67F02124CD4EFC454F0FEC006E4CA
:10385000FF124CD4D0E02FF5E17F03124CD4E5E207
:1038600054804FF5E27F04124CD4EF6008E5E25437
:10387000804480F5E27F01124CD48FE3124017435D
:10388000A910900694E04480F5E8123B6B024C3995
:103890009007E3EBF0A3EAF0A3E9F09007E3E0FB85
:1038A000A3E0FAA3E0F94A607C900004121184427C
:1038B0008E9000011211844289900002121278AE9B
:1038C000F0FBE4C39BFFE49EFE74019400FDE494CE
:1038D00000FCE4FB7A01F9F81248EDAF038F8A90FF
:1038E00007E3E0FBA3E0FAA3E0F9900002121278EC
:1038F000AEF0FBE4C39BFFE49EFE74019400FDE484
:103900009400FCE4FB7A01F9F81248ED8F8C9007E3
:10391000E3E0FBA3E0FAA3E0F99000051211844272
:10392000B8C2A9C28C229007E3EBF0A3EAF0A3E9A6
:10393000F09007E3E0FBA3E0FAA3E0F94A607C9093
:103940000004121184428E90000112118442899069
:103950000002121278AEF0FBE4C39BFFE49EFE74FB
:10396000019400FDE49400FCE4FB7A01F9F81248AC
:10397000EDAF038F8B9007E3E0FBA3E0FAA3E0F940
:10398000900002121278AEF0FBE4C39BFFE49EFEAF
:1039900074019400FDE49400FCE4FB7A01F9F81250
:1039A00048ED8F8D9007E3E0FBA3E0FAA3E0F990E8
:1039B000000512118442B8C2ABC28E22C0E0C0F032
:1039C000C083C082C0D075D000C000C001C002C09A
:1039D00003C004C005C006C00790073CE0FEA3E09A
:1039E000FBAA06E4C39BFFE49EFE74019400FDE481
:1039F0009400FCE4FB7A01F9F81248EDAF038F8ADA
:103A000090073CE0FEA3E0FBAA06E4C39BFFE49E14
:103A1000FE74019400FDE49400FCE4FB7A01F9F8E3
:103A20001248ED8F8C900740A3E0FAA3E0F912133F
:103A30006BD007D006D005D004D003D002D001D07F
:103A400000D0D0D082D083D0F0D0E032C0E0C0F03F
:103A5000C083C082C0D075D000C000C001C002C009
:103A600003C004C005C006C007900745E0FEA3E000
:103A7000FBAA06E4C39BFFE49EFE74019400FDE4F0
:103A80009400FCE4FB7A01F9F81248EDAF038F8B48
:103A9000900745E0FEA3E0FBAA06E4C39BFFE49E7B
:103AA000FE74019400FDE49400FCE4FB7A01F9F853
:103AB0001248ED8F8D900749A3E0FAA3E0F91213A5
:103AC0006BD007D006D005D004D003D002D001D0EF
:103AD00000D0D0D082D083D0F0D0E032C2AF75FE1B
:103AE000C1AFFFD2AFEF5430FD7C0070047920806D
:103AF0001CED64104C700479108012ED64204C7041
:103B00000479088008ED64304C70027904E924F8E7
:103B1000601824F8602024F06028241C703090077E
:103B2000E07401F0A374F4F080269007E07403F0D1
:103B3000A374E8F0801A9007E07407F0A374D0F043
:103B4000800E9007E0740FF0A374A0F08002E4F9F7
:103B50009007E0E07002A3E060109007E1E024FF2E
:103B6000F09007E0E034FFF080E6229054DCE4932C
:103B70009007DEF0124F5BE49007DFF09007DFE084
:103B8000FFC3951A5034E0FE75F002A4249CF58220
:103B9000E5F03406F583E0FCA3E0FD75F002EEA449
:103BA000247CF582E5F03406F583ECF0A3EDF01209
:103BB000337A9007DFE004F080C29007DEE0FF1464
:103BC000F0EF70B0124C6D1253DA9007DEEFF01286
:103BD0004F5BE49007DFF09007DFE0FFC3951A50DA
:103BE0000B12220C9007DFE004F080EB9007DEE080
:103BF000FF14F0EF70D9229007E3EBF0A3EAF0A3F3
:103C0000E9F0E4FDFCEF14602014603314604624F6
:103C100003705A9007E3E0FBA3E0FAA3E0F9A3E006
:103C2000FCA3E0FD12430580409007E3E0FBA3E026
:103C3000FAA3E0F9A3E0FCA3E0FD12435B802A9025
:103C400007E3E0FBA3E0FAA3E0F9A3E0FCA3E0FDB7
:103C50001243B180149007E3E0FBA3E0FAA3E0F97C
:103C6000A3E0FCA3E0FD124253AC06AD07AE04AFE7
:103C700005229007E4EBF0A3EAF0A3E9F0E4FDFCF1
:103C8000EF1460201460331460462403705A9007C8
:103C9000E4E0FBA3E0FAA3E0F9A3E0FCA3E0FD125B
:103CA000481E80409007E4E0FBA3E0FAA3E0F9A3FC
:103CB000E0FCA3E0FD12474A802A9007E4E0FBA362
:103CC000E0FAA3E0F9A3E0FCA3E0FD124791801421
:103CD0009007E4E0FBA3E0FAA3E0F9A3E0FCA3E093
:103CE000FD1245DEAC06AD07AE04AF05229005A17E
:103CF000E04401F09005EFE07002A3E0600790055A
:103D0000A1E04402F07FF47E08123DE8123D6750C6
:103D1000559005A1E054FEF0900016E0FEA3E0FFF0
:103D20009005AAE0FCA3E0FD2FFFEC3EFEC3EF945C
:103D30002AEE9407501D900017E02DF0900016E039
:103D40003CF07F071249F39005A1E04404F0E054F1
:103D5000FEF02290030AE04410F090000FA3E0FA76
:103D6000A3E0F912136B22900016E0FEA3E0FF908F
:103D700005ABE02FFF9005AAE03EFED39000FCE0EB
:103D80009F9000FBE09E4015900050E02405FD90C0
:103D9000004FE03400FCC3EF9DEE9C400D90004FBF
:103DA000EEF0A3EFF0E4900004F090030CE030E4B8
:103DB0000F900004E004F0C3940A4004E4F0D3221E
:103DC000C39000FAE094789000F9E09400400F90DE
:103DD000001BE064106007E4900004F0D322C322CB
:103DE000900012E0FEA3E0FF9007DCEEF0A3EFF0FE
:103DF000900016E0FCA3E0FD9005ABE02DFD9005E2
:103E0000AAE03CFCC3ED9FEC9E402690030AE054E0
:103E1000EFF09005EFE07002A3E060079005A1E0ED
:103E20004402F090000FA3E0FAA3E0F912136B80B4
:103E30001490030DE09005A930E506E04408F080F9
:103E400004E04402F09007DCE0FFA3E09000FBCF29
:103E5000F0A3EFF022C2029007FCE075F002A42468
:103E60009CF582E5F03406F583E5E5F0A3E5E4F0A2
:103E70009007FCE004F0E0C3951A400BE4F09006D4
:103E8000DEE04480F08002D2029007FCE0FF125294
:103E90009E7E009007F7E0FCA3E0FD1211E58EE79F
:103EA0008FE69007FCE0FF125327E5E254804FF5C0
:103EB000E29007FCE02494F582E43406F583E044C4
:103EC00080F5E8300202D2EE229005A1E04401F034
:103ED0009005EFE07002A3E060079005A1E04402C6
:103EE000F0123DE0123D675052900016E0FEA3E054
:103EF000FF9005ABE02FFF9005AAE03EFEC3EF94D4
:103F00007EEE9415400E90000FA3E0FAA3E0F912A4
:103F1000136B80209005AAE0FEA3E0FF900017E05D
:103F20002FF0900016E03EF07F071249F39005A1B4
:103F3000E04404F09005A1E054FEF0221213313F5A
:103F40008F000080003F97000100003F9B000200AF
:103F5000003F87000400003F93001000003F8B00EB
:103F60002000003F7F004000003FA3005000003FC2
:103F700083008000003F9F0082000000003FA77B7D
:103F80000180267B0280227B03801E7B04801A7BBB
:103F90000580167B0680127B07800E7B08800A7BDB
:103FA0001C80067B108002E4FBAF03229005A9E091
:103FB0004401F090030AE030E126900308E0FF900E
:103FC00005F1E0C39F50451251E1E4335401FF90E5
:103FD00005A2E054FE4FF090030AE054FDF0802C5F
:103FE0009005F1E0FFD3900013E09F900012E09461
:103FF00000500990030AE04402F080101251E1E4FD
:10400000335401FF9005A2E054FE4FF090000DE004
:10401000FEA3E0FF024086E4FFEFC3951A5046740A
:10402000AC2FF582E43406F583E4F074CC2FF582EE
:10403000E43406F583E4F074F22FF582E43406F5F7
:1040400083E4F075F002EFA424BCF582E5F03406B9
:10405000F583E4F0A3F074B42FF582E43406F5831D
:10406000E4F00F80B4E4F515F514F513F51290079C
:10407000F674FFF0E49007F9F0A3F0C20422900078
:1040800012E0FEA3E0FFEF4E6053C39000FAE09F02
:104090009000F9E09E404690030DE030E206900566
:1040A0005F7402F090001BE0B4150790030AE0541F
:1040B000FBF090030AE054FEF0900309E054FDF099
:1040C000A3E054FDF0900309E054FEF0E4900308EF
:1040D000F090000FA3E0FAA3E0F912136B22E49032
:1040E00007EEF09007EEE0A3F07F0025E0FE9007DA
:1040F000F2F0A3EFF02402FFE43EFE7D02125244F0
:104100009007F0EFF09007F3E024039007F21252CB
:104110003D9007F1EFF09007F0E0B4A00BA3E0B4FE
:10412000B0069007EFE0FF229007EEE004F0E0D346
:10413000940C40AFE4FFFE1254707F0022AD07AC38
:10414000069007DDE5F4F0A2AFE433A3F0AFDFA300
:10415000E4F0A3EFF0C2AF75F402ECF5F3AF058F16
:10416000F2AFF3EFFEADF27C00E42DEC3EC3941809
:10417000501475F1F075F62043F60200000000803F
:104180000500000000009007DDE0F5F49007DFA3D4
:10419000E0F5DF9007DEE024FF92AF2290081CE0FC
:1041A000C313A3E0137C005401FD90081CE0FEA3A0
:1041B000E07806CEC313CE13D8F954016D7001EC2C
:1041C00060357E0090081DE054027805C333CE337D
:1041D000CED8F9FF90081CE0FCA3E054BFFDEC4EE4
:1041E000FEED4FFF90081CEEF0A3EFF0900828E0E2
:1041F00090082DF01231E4229007DCEBF0A3EAF0F6
:10420000A3E9F0A3EDF09007F4E025E09007ECF0CF
:10421000A3E4F09007EBF09007DFE0FF9007EBE0FE
:10422000FEC39F502DEEFF9007EDE02F9007EC129C
:10423000523D9007DCE0FBA3E0FAA3E0F99007EB26
:10424000E0F582758300EF1211C39007EBE004F0F4
:1042500080C522E49007E8F0A3F0C3ED9401EC944C
:1042600000500B9007E8E4F0A37480F080359007CD
:104270002FEBF0A3EAF0A3E9F0AF05900717ECF0FD
:10428000A3EFF075DC0212116BF5C7900730E475EF
:10429000F00112124C900718E024FFF0900717E08D
:1042A00034FFF09007E8E0FEA3E0FF229005A1E0D4
:1042B0004401F09005EFE07002A3E060079005A1D3
:1042C000E04402F090030DE09005A930E506E044DB
:1042D00008F08004E04402F012407E123D67502452
:1042E0009005AAE0FEA3E0FF900017E02FF09000F9
:1042F00016E03EF07F071249F39005A1E04404F078
:10430000E054FEF022E49007E8F0A3F0C3ED94013E
:10431000EC9400500B9007E8E4F0A37480F0803236
:10432000900736EBF0A3EAF0A3E9F0AF0590071B86
:10433000ECF0A3EFF012116BF599900737E475F0EC
:104340000112124C90071CE024FFF090071BE03490
:10435000FFF09007E8E0FEA3E0FF22E49007E8F01A
:10436000A3F0C3ED9401EC9400500B9007E8E4F047
:10437000A37480F08032900729EBF0A3EAF0A3E960
:10438000F0AF05900711ECF0A3EFF012116BF59F61
:1043900090072AE475F00112124C900712E024FFF6
:1043A000F0900711E034FFF09007E8E0FEA3E0FF93
:1043B00022E49007E8F0A3F0C3ED9401EC940050E0
:1043C0000B9007E8E4F0A37480F0803290072CEBA8
:1043D000F0A3EAF0A3E9F0AF05900715ECF0A3EF26
:1043E000F012116BF5A790072DE475F00112124C35
:1043F000900716E024FFF0900715E034FFF09007D7
:10440000E8E0FEA3E0FF22E49007DEF0A3F0439390
:1044100040439320439380F596F5979007DEF0A3F1
:10442000F09007DEE0FEA3E0FFC3940DEE648094FD
:10443000805024EF25E0FFEE33FE74B02FF97407AF
:104440003EFA7B01124BCD9007DFE004F070D29072
:1044500007DEE004F080CA02533490081CE0FEA39B
:10446000E07802CEC313CE13D8F95401FD90081C96
:10447000E054016D7001E460317E00A3E0540478E3
:1044800006C333CE33CED8F9FF90081CE054FEFCAF
:10449000A3E0FDEC4EFEED4FFF90081CEEF0A3EF05
:1044A000F01253F2121C4D12303D2290058174A57A
:1044B000F0A3745AF0A37404F0A37406F0A3740C70
:1044C000F0900816E030E007900585E04440F012D7
:1044D00050AD900584E02480F582E43405F583EF47
:1044E000F07B017A057981900584E0FF9007E0E494
:1044F000F0A3EFF0E4FF024FC9900005E0FFAD0725
:1045000090030DE030E41EED75F003A424E8F5827D
:10451000E43400F583E0FEA3E07803CEC313CE13AA
:10452000D8F920E01EED75F003A424E8F582E43408
:1045300000F583E0FEA3E07802CEC313CE13D8F9D2
:1045400030E002D322C32290547E74019390067B04
:10455000F09054987401939006E1F0124593E4F5BD
:1045600008E508C3951A5023E50875F008A4249EB1
:10457000F582E43454F583E493FF74D42508F5827E
:10458000E43406F583EFF0050880D6E49006DFF00A
:10459000A3F022E4F509F50AF50E750D80750CF708
:1045A000F50BF509AF0EAE0DAD0CAC0B7801121288
:1045B000CE8F0E8E0D8D0C8C0B30D7177494250A70
:1045C000F582E43406F583E509F0050AE50AC394AB
:1045D0000850070509E509B41FCA850A1A22E490A4
:1045E00007E9F0A3F0C3ED9401EC9400500B9007A1
:1045F000E9E4F0A37480F08026E490071FF09007B0
:104600000FF0A3F0AF05900709ECF0A3EFF09007CF
:1046100026EBF0A3EAF0A3E9F075DC0243C41090A6
:1046200007E9E0FEA3E0FF2212504EEF24FFE4333F
:10463000540125E025E0FE90030CE054FBFCA3E0D0
:10464000FDEC4EFFED90030CCFF0A3EFF0D2001283
:104650001E69125467124AE790081DE030E0F3E04B
:1046600054FEF0124E851247D812445A1226B880D2
:10467000E1C0E0C0F0C083C082C0D075D000C000EF
:10468000C001C002C003C004C005C006C00775CE8B
:1046900003C2CF90075BA3E0FAA3E0F912136BD03B
:1046A00007D006D005D004D003D002D001D000D06E
:1046B000D0D082D083D0F0D0E032EEFF7E00E4FC98
:1046C000FD9007E47402F09007E01212F49007E501
:1046D000E5F4F0A2AFE433F9C2AF9007E4E0F5F4FB
:1046E0009007E0A3A3E0FEA3E02400F582E43EF5FA
:1046F00083E493FF9007E5E0F5F4AE01EE24FF922A
:10470000AF22E49007DEF0A3F09007DEF0A3F09074
:1047100007DEE0FEA3E0FFC39402EE6480948050C5
:1047200028EF7802C333CE33CED8F92407F582744C
:10473000083EF583E0FF1251429007DFE004F0707D
:10474000CE9007DEE004F080C622E49007E9F0A3F3
:10475000F0C3ED9401EC9400500B9007E9E4F0A352
:104760007480F08023E490071DF090070BF0A3F015
:10477000AF05900705ECF0A3EFF0900720EBF0A356
:10478000EAF0A3E9F04395109007E9E0FEA3E0FF0B
:1047900022E49007E9F0A3F0C3ED9401EC940050FB
:1047A0000B9007E9E4F0A37480F08023E490071EE7
:1047B000F090070DF0A3F0AF05900707ECF0A3EF22
:1047C000F0900723EBF0A3EAF0A3E9F043A41090E4
:1047D00007E9E0FEA3E0FF22900630E05401FD90DF
:1047E00005A1E054FE4DF0ED540125E0FF9005A930
:1047F000E054FD4FF074FF9000FBF0A3F0900634FE
:10480000E0540125E0FF9005A2E054FD4FF0900632
:104810002EE05401FF9005A9E054FE4FF022E490F1
:1048200007E9F0A3F0C3ED9401EC9400500B90075E
:10483000E9E4F0A37480F08022E4900732F090075E
:1048400019F0A3F0AF05900713ECF0A3EFF0900779
:1048500033EBF0A3EAF0A3E9F0D29C9007E9E0FE85
:10486000A3E0FF229005A1E04401F09005EFE07085
:1048700002A3E060079005A1E04402F0123DE012BF
:104880003D6750249005AAE0FEA3E0FF900017E0EA
:104890002FF0900016E03EF07F071249F39005A13B
:1048A000E04404F0E054FEF022E49007DEF0A3F0D0
:1048B0009007DEF0A3F09007DEE0FEA3E0FFC394D4
:1048C00001EE6480948050247C007D091211E5740F
:1048D000FE2FF974073EFA7B01122C969007DFE059
:1048E00004F070D29007DEE004F080CA22C2D5E85E
:1048F00030E70FB2D5E4C39BFBE49AFAE499F9E4FC
:1049000098F8EC30E717B2D51249231213ADE4C37F
:104910009BFBE49AFAE499F9E498F880031213AD4A
:1049200030D50DE4C39FFFE49EFEE49DFDE49CFCB6
:10493000227B017A0579AF9007E1E4F0A3741EF0C1
:104940007F01124FEB7F011252527B017A0579CD24
:104950009007E1E4F0A3741EF0E4FF124FEBE4FFD4
:104960001252529005EDE054FDF0E054FEF0E044A8
:1049700008F02290063D740AF090063CF090063B49
:10498000F0900628E054FEF0900626E054FEF090E9
:104990000624E054FEF0900622E054FEF09006203B
:1049A000E054FEF090061EE054FEF090061CE05429
:1049B000FEF02290063D7408F090063CF090063B15
:1049C000F0900628E04401F0900626E04401F090C3
:1049D0000624E04401F0900622E04401F090062015
:1049E000E04401F090061EE04401F090061CE04413
:1049F00001F02290055BE06408603790078EE025A7
:104A0000E025E02469F582E43407F583E0FEEF2534
:104A1000E025E02469F582E43407F583E0D39E4085
:104A20001190078EEFF090055F7404F090078D747D
:104A30003CF02290030DE020E41890030AE030E4FB
:104A4000059005A9802290000FA3E0FAA3E0F902E7
:104A5000136B1250CCE4335401C43333335480FF0E
:104A60009005A9E0547F4FF0E04410F012407E2200
:104A7000900005E0FFAD0790030DE030E317ED7502
:104A8000F003A424E8F582E43400F583E0C313A323
:104A9000E01320E013ED75F003A424E8F582E4347C
:104AA00000F583A3E030E002D322C322C0E0C0F0CF
:104AB000C083C082C0D075D000C000C001C002C099
:104AC00003C004C005C006C007123E55D007D0067B
:104AD000D005D004D003D002D001D000D0D0D082F5
:104AE000D083D0F0D0E0329006DEE030E733122AF7
:104AF000639008241212F4900824E0FCA3E0FDA3C4
:104B0000E0FEA3E0FF123F3C900828EFF09006DEA5
:104B1000E0547FF012545290082412130000000059
:104B20000022900638E054FEF0900636E054FEF085
:104B3000900634E054FEF0900632E054FEF0900609
:104B400030E054FEF090062EE054FEF090062CE08B
:104B500054FEF090062AE054FEF022900638E0441D
:104B600001F0900636E04401F0900634E04401F094
:104B7000900632E04401F0900630E04401F09006E7
:104B80002EE04401F090062CE04401F090062AE06B
:104B90004401F02290030AE030E2251250CCE433C5
:104BA0005401C43333335480FF9005A9E0547F4F40
:104BB000F0E04410F0900012E0FEA3E0FF02408617
:104BC00090000FA3E0FAA3E0F912136B22E94A6008
:104BD0003312116B14601314601914601F240370D6
:104BE00023900001121184429C2290000112118432
:104BF00042942290000112118442A32290000112DB
:104C0000118442B32253A1FC43A20343984075CEC2
:104C10000243C83043C98075CB0D75CA05C2CAC2EC
:104C2000ADC2ACE4900704F0900732F090071BF09F
:104C3000A3F0900719F0A3F022E4FFEFC3951A50F8
:104C40002B75F002EFA4249CF582E5F03406F58381
:104C5000E0FCA3E0FD75F002EFA4247CF582E5F012
:104C60003406F583ECF0A3EDF00F80CF22E4FFEFE4
:104C7000C3951A502B75F002EFA4249CF582E5F041
:104C80003406F583E0FCA3E0FD75F002EFA424E216
:104C9000F582E5F03406F583ECF0A3EDF00F80CF5C
:104CA000229000F9E0FEA3E0FF7C007D1E1211F7C8
:104CB000C3ED940AEC940040101251E1E433540126
:104CC000FF9005A2E054FE4FF0900012E0FEA3E03A
:104CD000FF024086EF146012146014146018146010
:104CE0001A2404701E90549A800890549B8003905C
:104CF000549CE493FF22E4FF02532790548C7401E8
:104D000093FF227F002275DC02539AF3439B0C43EE
:104D10008EC075C44075C50575C60D53C4EF53AA42
:104D2000FDE4900703F090071FF0900717F0A3F041
:104D300090070FF0A3F022D20112116BFF1313138F
:104D4000541F20E01AEFC4540F30E01690030CE01B
:104D5000FEA3E07803CEC313CE13D8F930E003D31B
:104D60008001C39201A20122D20112116BFFC41370
:104D7000540720E01BEFC41313540330E0159003D5
:104D80000CE0C4F854F0C8A3E0C4540F4830E0036A
:104D9000D38001C39201A201229005F1E0C39414D3
:104DA000501590030AE04404F01244F950109000AA
:104DB00019E0240AF0800790030AE054FBF0900009
:104DC0000FA3E0FAA3E0F902136B900626E054FE6D
:104DD000F0900624E054FEF090061EE054FEF090A1
:104DE000061CE054FEF09005A1E054041313543F58
:104DF000FF900628E054FE4FF022E49007FDF0906B
:104E000007DCF09007DCE0FFC3951A501312220C68
:104E10009007DCE0FF1209A59007DCE004F080E3D6
:104E2000AF15AE14AD13AC1222539A9F439B60434F
:104E30008F30759540759D05759E0D5395EF53A95F
:104E4000FEE4900739F090071DF0900711F0A3F0F1
:104E500090070BF0A3F0225391F543920A438FC0C1
:104E600075A44075A50575A60D53A4EF53AAFEE4DD
:104E7000900702F090071EF0900715F0A3F090073E
:104E80000DF0A3F02212419C900811E0FF90082938
:104E9000E0FEB5070C900812E0FF90082AE06F6072
:104EA00010900811EEF090082AE0900812F01234E9
:104EB000E0229005A9E04401F0900012E0FEA3E09A
:104EC000FF124F341251E1E4335401FF9005A2E088
:104ED00054FE4FF090000DE0FEA3E0FF024086ADCF
:104EE00007ED75F008A424A0F582E43454F583E4BA
:104EF00093FEED75F008A424A1F582E43454F58303
:104F0000E4937C002400FFEC3EFE229005A9E044DF
:104F100001F01251E1E4335401FF9005A2E054FE88
:104F20004FF090030AE04401F0900012E0FEA3E08D
:104F3000FF024F349005F1E0C39FE49E401C9003B4
:104F400009E04401F0A3E030E010E054FEF09000EE
:104F50000FA3E0FAA3E0F912136B22E4FE9006DE41
:104F6000E0547FF0D2EE9006DEE054807011123AE9
:104F7000DC43CF100EEEC394647480948040E7222B
:104F80001250CCE4335401C43333335480FF9005C2
:104F9000A9E0547F4FF0E04410F0900012E0FEA32F
:104FA000E0FF024086E490078EF0900426E0FF9038
:104FB000055FB403057402F080037407F090055B8D
:104FC000EFF09000187401F022EF25E025E02407AF
:104FD000F582E43408F583E0FF9007E0E0FDA3E00C
:104FE0009007E6CDF0A3EDF0023BF7EF25E025E0DA
:104FF0002407F582E43408F583E0FF9007E1E0FD43
:10500000A3E09007E7CDF0A3EDF0023C72EF14604F
:10501000101460101460101460102404700F0254F7
:10502000320254370253D20253B71253C0221254E1
:105030006112545E9007DDEFF01248A91247021288
:10504000440712546A1254649007DDE0FF221254A0
:105050006112502E9007DCEFF012530A12546D12B9
:1050600052B01249311254649007DCE0FF22E4FF91
:10507000FE74902EF582E43407F583E02FFF0EEEE8
:10508000B41FEE9007AFE0B50702D322C322E4FFBE
:10509000FE900563E014FDEEC39D501074602EF584
:1050A00082E43405F583E02FFF0E80E522E4FFFE65
:1050B000900584E014FDEEC39D501074812EF5829E
:1050C000E43405F583E02FFF0E80E5221250E0E482
:1050D00033540125E025E0FF9005A2E054FB4FF09A
:1050E0009005A7E0C4540F13B3229005A9E0440132
:1050F000F090021FE07002A3E0700C90000FA3E09C
:10510000FAA3E0F912136B22900768E07003742889
:10511000F0900768E0D394149005A2E040044402A4
:10512000F02254FDF02290030AE054FDF0900012AA
:10513000A3E0900308F090000FA3E0FAA3E0F902C7
:10514000136BEF14600D14600D14600D2403700CCC
:10515000024C05024E29024E57124D0622EF1460F2
:105160000D14600D14600D2403700C02544C025495
:105170003C02544012544422C390082CE0942C90DA
:10518000082BE09401500B90082A7402F0E4A3F07D
:10519000A3F022900012E0FFA3E090021FCFF0A343
:1051A000EFF090000FA3E0FAA3E0F902136B1251A5
:1051B000E1E4335401FF9005A2E054FE4FF090006B
:1051C00012E0FEA3E0FF024086E4FEEF14600A0452
:1051D000700C12540EAE07800512541AAE07AF06BB
:1051E000229005A7E0700E900309E020E0079005EB
:1051F000A7E030E302C322D322EF75F009A42440D4
:10520000F582E43407F583EBF0A3EAF0A3E9F0229A
:10521000124973124B22900636E04401F0E59645A0
:1052200097700343973022124EDFEF7803C333CEDB
:1052300033CED8F9FF7C007D0A1211F722FFE0344B
:1052400000FE7D02AB05E4FCFD9007E4EBF01246A6
:10525000C722EF25E025E02407F582E43408F58332
:10526000E0FF02515DEF75F009A424FEF582E434FD
:1052700007F583E0FF0251F9EF75F009A424FEF56C
:1052800082E43407F583E0FF02500D90030AE04406
:1052900020F090000FA3E0FAA3E0F902136BEF7582
:1052A000F008A4249DF582E43454F583E493FF22AE
:1052B000E4900829F0900811F090082AF090081264
:1052C000F0229005A2E04402F0900012E0FEA3E07C
:1052D000FF0240869005A9E04401F0900012E0FE34
:1052E000A3E0FF0240869005A9E04410F090001270
:1052F000E0FEA3E0FF0240869005A1E020E20A1252
:105300004FA5E49000F9F0A3F0227BFF7A29793AC7
:10531000E4FF125265E4FF02527875DC0253C4EFD9
:1053200090071F7401F02274D42FF582E43406F53F
:1053300083E0FF22E4FF7E1C902000E4F0A3DEFC6B
:1053400022E59645976005E4F596F5972290000FC3
:10535000A3E0FAA3E0F902136B905482E493FE7485
:105360000193FF22905486E493FE740193FF2290F0
:105370000012E0FEA3E0FF0240869005EDE030E180
:1053800003124FA5229005EDE020E403124FA52261
:105390005395EF90071D7401F02253A4EF90071E60
:1053A0007401F02290067BE075F00384FF22C29C1A
:1053B0009007327401F02275CE0343A940D2CA226D
:1053C00075CE0443A980D2CA221240DE9007F4EFC2
:1053D000F02275CE02D2ADD2CA22905480740193CD
:1053E000FF2290547A740193FF2290067BE0C3134E
:1053F000FF2290030DE054BFF0229007D9E0440152
:10540000F022E4900704F022E4900739F02290079C
:105410001EE0FF22E4900702F02290071FE0FF2227
:10542000E4900703F02275CE02C2CF3275CE04C2DB
:10543000CF32D2A9D28C22D2ABD28E2243A9012262
:1054400043AA012243AA022243CF1022D2AC227FD8
:105450000122D2EE22A20422D204220241F87F01CC
:1054600022C2AF22D2AF220254480237F90253C9F6
:1054700002413D22222222220000000100000005FC
:10548000000A0BB800C8006400020000000000041D
:1054900000000001FFFFFFFF002B034B04081B056A
:1054A0000273034B04081E0502E1034B04082305A5
:1054B00002C8034B0408170502F1034B04081C053E
:1054C00003C2034B0408200502E5034B04081E0534
:1054D0000319034B0408170503000A0A203F065B63
:1054E0004F666D7D077F6F00797639408054371C99
:0C54F0003E5E3038363F737771747C7874
:00000001FF
